S01400005368756E416E5F50616E656C2E7372656374
S1130000F8FF002011040000670B0000670B0000DC
S1130010670B0000670B0000670B0000670B000014
S1130020670B0000670B0000670B0000670B000004
S1130030670B0000670B0000670B0000670B0000F4
S1130040670B0000670B0000670B0000670B0000E4
S1130400FFFFFFFFFFFFFFFFFFFFFFFFFEFFFFFFF9
S11304104FF000004FF000014FF000024FF00003D6
S11304204FF000044FF000054FF000064FF00007B6
S11304304FF000084FF000094FF0000A4FF0000B96
S11304404FF0000C62B600F013FBFEE7DFF8F41384
S11304504FF480720A60DFF8F0134FF480720A6080
S1130460DFF8E8134FF480720A60DFF8E4134FF406
S113047080720A60DFF8DC134FF480720A60DFF8E0
S1130480D8134FF480720A60DFF8D0134FF48072EF
S11304900A60DFF8CC134FF480720A60DFF8C413EB
S11304A04FF480720A60DFF8C0134FF480720A6060
S11304B0DFF8B8134FF480720A60DFF8B4134FF416
S11304C080720A60DFF8AC134FF480720A60DFF8C0
S11304D0A8134FF480720A60DFF8A0134FF48072FF
S11304E00A60DFF89C134FF480720A60C0B20028DF
S11304F00AD1DFF89003006840F47F4050F0FF0019
S1130500DFF88013086007E0DFF878030068000C68
S11305100004DFF870130860DFF86C034FF4807197
S11305200160DFF868034FF480710160D8484FF42C
S113053080710160D7484FF480710160D6484FF450
S113054080710160D548006850F0F850D3490860C4
S1130550704781B0D249096831F08071D04A116086
S1130560CF49096831F00071CD4A1160CD4909685D
S1130570009100996FF30F010091009980B2084334
S11305800090C84800990160C548006830F00060D8
S1130590C3490860C248006850F00060C049086060
S11305A0BF48006850F00070BD49086001B0704752
S11305B081B0BB49096851F08071B94A1160B849EA
S11305C0096831F00071B64A1160B64909680091B2
S11305D000996FF30F010091009980B208430090D5
S11305E0B04800990160AE48006830F00060AC4942
S11305F00860AB48006850F00060A9490860A8484A
S1130600006850F00070A649086001B0704710B54A
S11306100C00A349096831F00071A14A116080B24D
S1130620FFF797FF200080B2FFF7C2FF9C480068E5
S113063050F000709A49086010BD80B5914909686E
S113064041F47F4151F0FF018E4A116080B2FFF7FF
S113065080FF9348006850F000709149086090480A
S1130660006850F080708E4908608D48006830F052
S113067000708B4908608A48006850F0006088491F
S113068008608748006830F08060854908608548C4
S11306900068009000986FF30F000090009840F4F9
S11306A07F4050F0FF0000907E480099016075483B
S11306B00068000C0004734908607948006850F031
S11306C08060774908607848006880B20090744878
S11306D0006850F0007072490860009880B202BD52
S11306E038B57248006850F44050704908600024DE
S11306F000250020FFF7AAFE6948006830F080500A
S113070067490860642000F09FF96548006850F06C
S1130710805063490860642000F096F96D1C002045
S1130720FFF794FE5E48006830F080505C49086032
S1130730642000F089F95A48006850F08050584904
S11307400860642000F080F90020FFF776FF0400C1
S1130750322000F079F9ADB2042D01DBFA206FE00C
S1130760A4B248F689108442D8D10020FFF76EFE67
S113077001210020FFF74BFF00211020FFF747FF66
S1130780322000F061F946F63F110120FFF73FFFE8
S113079033210720FFF73BFF46F230011120FFF71A
S11307A036FF4FF4C0610220FFF731FF4AF6A4017F
S11307B00320FFF72CFF00210C20FFF728FF40F651
S11307C00C010D20FFF723FF4FF42C510E20FFF7EF
S11307D01EFFB0211E20FFF71AFF40F20111302046
S11307E0FFF715FF40F201113120FFF710FF40F22F
S11307F001113220FFF70BFF40F201113320FFF704
S113080006FF40F201113420FFF701FF40F201110D
S11308103520FFF7FCFE40F201113620FFF7F7FE0A
S113082040F201113720FFF7F2FE40F201113A20A5
S1130830FFF7EDFE40F201113B20FFF7E8FE002038
S113084032BD000000C0044004C0044008C004409D
S11308500CC0044010C0044014C0044018C004403C
S11308601CC0044020C0044024C0044028C00440EC
S11308702CC0044030C0044034C0044038C004409C
S11308803CC00440D4F00F4060D0044064D0044025
S113089068D004406CD0044070D0044014F10F4080
S11308A000F10F40C0F00F40D0F00F4038800440FA
S11308B010B50C00010089B24F20FFF7A8FE2100FB
S11308C089B24E20FFF7A3FE10BD80B5C0B2002848
S11308D00BD0022815D00ED304281ED017D3062817
S11308E027D020D307282AD02EE046F21001112069
S11308F0FFF78DFE28E046F230011120FFF787FE56
S113090022E04FF4C0411120FFF781FE1CE046F2C3
S113091020011120FFF77BFE16E046F2380111207A
S1130920FFF775FE10E046F228011120FFF76FFE75
S11309300AE046F218011120FFF769FE04E046F2CE
S113094008011120FFF763FE01BD38B514001D0036
S113095089B280B2FFF7ACFF05E0290089B22220FA
S1130960FFF755FE641EA4B2002CF6D131BDF8B5D4
S113097015001E00002789B280B2FFF799FF0420FA
S1130980FFF7A3FF2F00069C04E0210089B2222078
S1130990FFF73DFE3800471E80B20028F5D1012044
S11309A0FFF793FF370004E0210089B22220FFF70C
S11309B02EFE3800471E80B20028F5D10720FFF72D
S11309C084FF2F0004E0210089B22220FFF71FFEDC
S11309D03800471E80B20028F5D10220FFF775FFCA
S11309E0370004E0210089B22220FFF710FE38000E
S11309F0471E80B20028F5D1F1BD38B504000025AA
S1130A0000210020FFF754FF2220FFF7A2FD002061
S1130A10050004E0200080B2FFF7CAFD6D1CB5F5A7
S1130A20963FF7D331BD50F8041B61B150F8042B45
S1130A30D30744BFA9F101039A18002342F8043BE9
S1130A40091FFAD1EFE770470021002200231900A3
S1130A5005E0521C44F69C239A42FAD3491C814275
S1130A6001D20022F6E77047DFF800F0A105FF1F6E
S1130A7080B572B6DFF810054CF220510180DFF822
S1130A8008054DF62811018062B6DFF800050088DC
S1130A904FF6FE710840DFF8F4140880DFF8F00424
S1130AA0DFF8F01488420DD0002008E0DFF8E014ED
S1130AB0DFF8E02452F8202041F82020401CB0F553
S1130AC0826FF3D3DFF8C80400F092FADFF8C81499
S1130AD0DFF8C824DFF8C804801A03E013780B7029
S1130AE0521C491C0300581E002BF7D1DFF8B41424
S1130AF0DFF8B404401A02E000220A70491C020024
S1130B00501E002AF8D1DFF8A414DFF8A424DFF87B
S1130B10A404801A03E013780B70521C491C0300D0
S1130B20581E002BF7D1072000F0A2F9DFF8881433
S1130B300860DFF8840400684FF47A714843DFF8F2
S1130B407C140860DFF874040068DFF87414096822
S1130B50C1F30361491CB0FBF1F0DFF868140860CD
S1130B6000F0B0FAFEE77047C0B2DFF85C1431F869
S1130B702010C0B2002800F07A81C0B2162880F29A
S1130B807681DFF848040022027089B24C2904DA25
S1130B90DFF838040022427084E089B2972904DA2D
S1130BA0DFF82804012242707CE089B2E22904DAE9
S1130BB0DFF818040222427074E089B2B1F5967F1E
S1130BC004DCDFF80804032242706BE089B2B1F55B
S1130BD0BC7F04DADFF8F4030422427062E089B2D5
S1130BE0B1F5E17F04DCDFF8E4030522427059E04B
S1130BF089B240F20E20814204DADFF8D0030622E3
S1130C0042704FE089B2B1F5167F04DCDFF8BC0313
S1130C100722427046E089B2B1F5297F04DADFF891
S1130C20AC03082242703DE089B240F2EF208142D9
S1130C3004DADFF898030922427033E089B240F203
S1130C403A30814204DADFF884030A22427029E050
S1130C5089B2B1F5617F04DCDFF870030B224270C6
S1130C6020E089B2B1F5747F04DADFF860030C2266
S1130C70427017E089B240F21B40814204DADFF887
S1130C804C030D2242700DE089B240F2664081426D
S1130C9004DADFF838030E22427003E0DFF82C0395
S1130CA00F22427089B21A2904DADFF820030022E5
S1130CB082706BE089B2332904DADFF81003012271
S1130CC0827063E089B24C2904DADFF8000302225F
S1130CD082705BE089B2652903DABC480322827022
S1130CE054E089B27E2903DAB848042282704DE0C8
S1130CF089B2972903DAB5480522827046E089B2A1
S1130D00B02903DAB148062282703FE089B2C929CA
S1130D1003DAAE480722827038E089B2E22903DAA6
S1130D20AA480822827031E089B2FB2903DAA74875
S1130D30092282702AE089B2B1F58A7F03DAA348D6
S1130D400A22827022E089B2B1F5967F03DC9F48C3
S1130D500B2282701AE089B2B1F5A37F03DA9B48B3
S1130D600C22827012E089B2B1F5AF7F03DC9748A0
S1130D700D2282700AE089B2B1F5BC7F03DA934890
S1130D800E22827002E091480F22827089B21A29E1
S1130D9003DA8E480021C17069E089B2332903DA8D
S1130DA08A480121C17062E089B24C2903DA87487C
S1130DB00221C1705BE089B2652903DA834803210B
S1130DC0C17054E089B27E2903DA80480421C170DD
S1130DD04DE089B2972903DA7C480521C17046E0C9
S1130DE089B2B02903DA79480621C1703FE089B29B
S1130DF0C92903DA75480721C17038E089B2E229AC
S1130E0003DA72480821C17031E089B2FB2903DAA0
S1130E106E480921C1702AE089B2B1F58A7F03DAEC
S1130E206A480A21C17022E089B2B1F5967F03DCD9
S1130E3066480B21C1701AE089B2B1F5A37F03DAC9
S1130E4062480C21C17012E089B2B1F5AF7F03DCB6
S1130E505E480D21C1700AE089B2B1F5BC7F03DAA6
S1130E605A480E21C17002E058480F21C1707047E2
S1130E7010B504002000C0B2FFF776FE5448007895
S1130E8010F0FD00524908705148007850F01000ED
S1130E904F4908704F48B82101704F480078C00688
S1130EA0FBD44D480078C0F38100C0B20228F8D1C9
S1130EB04648C37845488278444841784348007896
S1130EC0FFF7D2FDE4B2404810EB8400807810F0C4
S1130ED0070042490870E4B23B4810EB8400C07834
S1130EE010F01F0050F040003D4908703A48007867
S1130EF08006FBD5384800784006FBD53548007895
S1130F0010F03F003349087033480078C0F3810083
S1130F10C0B20328F8D1E4B22B4830F82400C0B2A0
S1130F2010BD304A126852F400022E4B1A602E4A49
S1130F3000231360C0B202012C4B491ED150C0B231
S1130F402A4911EB0011C96851F00101C0B2274AC6
S1130F5012EB0012D160C0B2244911EB0011896870
S1130F6049084900C0B2214A12EB00129160C0B294
S1130F701E4911EB0010032181607047C0B2044A7E
S1130F8042F82010704700000E2005400020054064
S1130F900000FF1F000000001004FF1FC41F00001A
S1130FA054210000EC05FF1F7417FF1FA005FF1F4D
S1130FB054210000A02100006817FF1F6417FF1FC1
S1130FC0448004406C17FF1F4405FF1F9C05FF1F4E
S1130FD001400640004006400640064004400640EA
S1130FE0054006403C80044000700340007103400B
S1130FF02D490860704710B4202190FBF1F10029BD
S113100003D0022935D01AD34CE0284909680122BB
S1131010202390FBF3F404FB1304A2401143234A5E
S11310201160234909680122202390FBF3F404FB97
S1131030130412FA04F008431D49086032E01D4904
S113104009680122202390FBF3F404FB1304A2405B
S11310501143184A1160184909680122202390FBA2
S1131060F3F404FB130412FA04F008431249086071
S113107018E0124909680122202390FBF3F404FBD1
S11310801304A24011430D4A11600D49096801225D
S1131090202390FBF3F404FB130412FA04F0084336
S11310A00749086010BC704708ED00E080E200E0EA
S11310B000E100E084E200E004E100E088E200E016
S11310C008E100E080B562B65FF4E13000F046F874
S11310D000F000FA1B480068142101FB00F1002015
S11310E0FFF71FFF0FF23D015420FFF747FFFFF703
S11310F0F7FA15498988C0B208431349888000204B
S1131100FFF77BFC00F031FC1048002101600F4820
S1131110002180F8D4174420FFF76DFF0C4800F03D
S11311204CFBFBE70B48006850F0010009490860DC
S113113005480068401C04490860074802490968DA
S1131140016070476C17FF1F1004FF1FEC05FF1FA1
S11311504017FF1F0C7103404C17FF1F30B40021D0
S113116000220023DFF81C43246854F40054DFF801
S113117014532C60C44C246854F43054C24D2C6075
S1131180C24C246854F44074C04D2C60C04C246894
S113119054F44074BE4D2C60BE4CBE4D2D68256089
S11311A0BD4CBD4D2D682560BC4CBC4D2D682560E3
S11311B0BB4CBB4D2D682560BA4C247814F0F30465
S11311C0B84D2C70B84C00252570B84C24684FF4E9
S11311D07A756C430501B4FBF5F4A4B22200B44C57
S11311E02478E4B2640964012100140A14F01F0491
S11311F02143AF4C2170AF490A70AC4909684FF4E0
S11312007A74614349010001B1FBF0F0B0EB421084
S11312100300A9480078C0B24109490113F01F0036
S11312200843A54908709F48007850F00C009D4978
S11312300870A2480021017030BC7047A2490A001E
S1131240511E002A08D09E4A12789206F7D59D496D
S113125009780170002000E00120704738B50400CF
S113126000208DF80000002506E094F8E90710F04E
S1131270FD0084F8E907012500A8FFF7DFFF002837
S11312802FD19248006800199DF8001001719DF853
S11312900000FF280BD194F8D40700198B49096882
S11312A080F8D51794F8D407401C84F8D407206834
S11312B0B0F5FA6F0DD22068401C20602068B0F5AC
S11312C07A7FD2D994F8E90750F0020084F8E9074C
S11312D0D1E794F8E90750F0010084F8E907012008
S11312E015E02068002806D194F8E90750F00800BA
S11312F084F8E90705E094F8E90710F0F70084F8AA
S1131300E907EDB2012D01D1002000E0012032BD3A
S113131070B4016890F8D4270023ADE0DBB21C1848
S113132094F8D5474D1EAC4280F0A580DBB21C1862
S113133094F8D54724186479EA2C40F09C80002462
S1131340DBB21D1895F8D55710354E1EB54209D29B
S113135001242E183679FF2E04D12D186D79EA2D2B
S113136000D10024E4B2002C40F08580584CB4F83D
S11313706049DBB21D1895F8D5572D18AD79DBB24D
S11313801E1896F8D5673618F67956EA0525A4B2DC
S11313904F4E26F81450DBB21D1895F8D5572D186A
S11313A02D7ADBB21E1896F8D5673618767A56EA87
S11313B00525A4B2464E16EB4406A6F89051DBB2BE
S11313C01D1895F8D5572D18AD7ADBB21E1896F86E
S11313D0D5673618F67A56EA0525A4B23C4E16EBC4
S11313E04406A6F82053DBB21D1895F8D5572D18DE
S11313F02D7BDBB21E1896F8D5673618767B56EA35
S11314000525A4B2324E16EB4406A6F8B054DBB25E
S11314101D1895F8D5572D18AD7BDBB21E1896F81C
S1131420D5673618F67B56EA0525A4B2284E16EB86
S11314304406A6F84056DBB21D1895F8D5572D186A
S11314402D7CDBB21E1896F8D5673618767C56EAE2
S11314500525A4B21E4E16EB4404A4F8D0571C4C28
S1131460B4F86049641C1A4DA5F86049002404606E
S1131470002480F8D4475B1CDBB29342FFF44EAFE8
S113148070BC7047348004403880044040B004404D
S113149044B0044010D0044014D0044028A00440B8
S11314A02CA0044003D0064002D006406C17FF1F56
S11314B000D0064001D006400AD006400BD00640BA
S11314C004D0064007D0064040420F00EC05FF1F41
S11314D0D80DFF1F6E48006850F4C0606C49086066
S11314E06C48006850F480706A4908606A48006873
S11314F050F48070684908606848006850F480704F
S1131500664908606648006850F480706449086061
S11315106448006850F4807062490860624800685A
S113152050F48070604908606048006850F480702E
S11315305E4908605E48006850F480705C49086049
S11315405C48006830F080705A4908605948006867
S113155030F00070574908605648006830F08060E9
S1131560544908605348006830F0006051490860ED
S11315705048006830F080504E4908604D4800687B
S113158030F000504B4908604B4800684008400068
S1131590494908604848006830F00200464908603C
S11315A04648006850F48070444908604448006824
S11315B050F48070424908604248006850F48070DA
S11315C0404908604048006850F480703E49086013
S11315D03948006830F0040037490860364800682C
S11315E030F00800344908603348006830F01000D7
S11315F0314908603048006830F020002E49086006
S1131600704732480068000E10F0010070472F4800
S11316100068400E10F0010070472C480068800EEE
S113162010F00100704729480068C00E10F0010056
S1131630704726480068000F10F0010070472348E7
S11316400068400F10F0010070472148006810F056
S1131650010070471E480068C0F34000C0B27047E4
S11316601B480068C0F38000C0B270471848006887
S1131670C0F3C000C0B2704715480068C0F3001042
S1131680C0B2704712480068C0F34010C0B270473F
S113169038800440609004406490044068900440A2
S11316A06C900440709004407490044000A0044086
S11316B004A0044014F00F4054F00F4008A004406C
S11316C00CA0044010A0044014A0044010F00F40EB
S11316D050F00F402DE9F84304000D0016000027D8
S11316E05FF000085FF00009FFF7BAFF002809D196
S11316F028686968401A0E2804D358F001080127A5
S113170028686860FFF7B2FF002809D12868A96833
S1131710401A0E2804D358F0020801272868A8604C
S1131720FFF7AAFF002809D12868E968401A0E28A3
S113173004D358F0040801272868E860FFF7A2FFE3
S1131740002809D128682969401A0E2804D358F0C2
S11317500808012728682861FFB2012F28D1FFF764
S113176050FF50EA0909FFF752FF59EA4009FFF711
S113177054FF59EA8009FFF756FF59EAC009FFF7F9
S113178058FF59EA0019FFF75AFF59EA4019FFF7C1
S11317905CFF59EA8019FFF75DFF59EAC01986F822
S11317A0008086F8019026602868A060002000E090
S11317B00120BDE8F2830000704780B599490968AB
S11317C0884798490860002002BD80B59648FFF715
S11317D045FD002802D10FF27D100AE0934A944996
S11317E09448FFF777FF002802D10FF2190000E0B8
S11317F0914802BD80B50100081D49680968884701
S11318008D4802BD7CB50400606801902568287885
S1131810C00744D581A000904FF6FF730022002139
S11318208648008800F020F901980079012802D048
S1131830022811D030E001980069019001980079E4
S1131840022802D00198606005E001986060019868
S1131850406A0199086022E0794800904FF6FF73CE
S1131860002200217548008800F0FEF8019E01A8BE
S11318700199096A88470198006901900198864294
S113188003D0019800790228F5D10198606001988D
S1131890406A0199086002E0606800696060287825
S11318A0C0F34000C0B2002844D05DA000904FF6C1
S11318B0FF73002200216148008800F0D5F80198E8
S11318C00079012802D0022811D030E00198406943
S11318D0019001980079022802D00198606005E027
S11318E0019860600198406A0199086022E05448B8
S11318F000904FF6FF73002200215048008800F04A
S1131900B3F8019E01A80199096A884701984069C2
S113191001900198864203D0019800790228F5D1FC
S1131920019860600198406A0199086002E060686B
S11319304069606028780C21084209D00198406A07
S113194001990968884203D10198C0690199086026
S11319503C4876BD80B53C480088401C3A49088024
S11319603148FFF7D5FC374802BD2E4832490160A3
S11319702E48002101702D48002141702D482B492B
S113198001602C4800218160304831494161304870
S1131990304941612F482D4941612F482F49416108
S11319A02E482D49416129482A490161294828497D
S11319B001612748254901612748284901612748D1
S11319C02549016121482149C16021481F49C1605D
S11319D020481E49C16020481C49C1601F481B495A
S11319E0C1601F481F4941601D480121017017480B
S11319F080691649086016488069154908601548C9
S1131A008069144908600B48104941600948002165
S1131A10816004480B4901607047000031000000F8
S1131A20320000003C17FF1FEC05FF1F6017FF1F6B
S1131A304C17FF1F4017FF1FCB1700007017FF1F25
S1131A402C220000F51700007217FF1F2C04FF1F43
S1131A506804FF1FA404FF1FDC04FF1F1805FF1FF9
S1131A601C04FF1F4005FF1F2DE9F84F83460C009F
S1131A7015001E0000270420FEF727FF5FF0000872
S1131A80DDF8289002E0002718F101085FFA88F8D1
S1131A90B8F1080F36DA54FA88F189B2584680B2A0
S1131AA0FEF706FF00E07F1CFFB217F809000028CC
S1131AB0E9D05FF0000A06E0310089B22220FEF787
S1131AC0A6FD1AF1010A5FFA8AFABAF1060FEADAF8
S1131AD0FFB217F8090020385FFA8AFAC0B206216B
S1131AE0DFF8242001FB00201AF800000121D8F1BE
S1131AF0070291400842DFD0290089B22220FEF774
S1131B0086FDDEE7BDE8F18F9C1D000038B5016855
S1131B10C96889680C89006885680020FEF7D5FECD
S1131B202888A9880818401C6988EA88083A02238A
S1131B3092FBF3F2511859A2009223009BB22A8916
S1131B4089B280B2FFF790FF002032BD38B501683A
S1131B50C96889680C89006885680020FEF7B5FEAD
S1131B602888A9880818401C6988EA88083A02234A
S1131B7092FBF3F251184AA2009223009BB22A89E5
S1131B8089B280B2FFF770FF002032BD70B582B019
S1131B9000240168C968002903D00168C9688968FC
S1131BA00C890068856868890090EB88AA88698830
S1131BB02888FEF7DCFE0020FEF787FE6B89EA88A2
S1131BC069882888C01C80B2FEF7BFFE6B89EA884A
S1131BD069882888AE883018C01E80B2FEF7B5FE2A
S1131BE0687B00280FD1002001E0401C6873C0B25C
S1131BF02969415C002906D0C0B23328F5DB29A04D
S1131C00286100206873002000212A7B12F003025F
S1131C10D2B2002A04D0022A0DD009D3032A0ED14D
S1131C206988EA88083A022392FBF3F2511806E025
S1131C306988491C03E06988EA88511808392A7BB5
S1131C40C2F38102D2B2D2B2002A04D0022A0DD049
S1131C500FD3032A15D12888AA886B7B062606FB96
S1131C601322022392FBF3F210180AE02888401C86
S1131C7007E02888AA8812FA80F06A7B062303FB0F
S1131C8012002A892B69009323009BB292B289B275
S1131C9080B2FFF7E9FE002076BD0000202000009E
S1131CA03C3D00000000000038B505002868846849
S1131CB02089FEF7A2FEE068009023892089C243B0
S1131CC092B2E7210020FFF7CFFE0420FEF7FDFDCE
S1131CD02089C3439BB24FF4A072E6210020FEF793
S1131CE034FE2C682868009000A800F014F80098CE
S1131CF00079012803D000A8009909688847009852
S1131D00006A009908600098406900900098844235
S1131D10EAD1002032BD01680979002906D00229E0
S1131D2006D004D3042908D006D306E005E004E075
S1131D3000680C49016000E0FFE77047002070472D
S1131D4010B5040020680C302168C9688969884787
S1131D502068C06820602068006A2168086000204C
S1131D6010BD00008D1B000010B50400206800E0C9
S1131D70406901790129FBD181680978002903D0E0
S1131D80806840680068206020002168896988476D
S1131D902068006A21680860002010BD000000006F
S1131DA000000000002F00000000070007000014DE
S1131DB07F147F1400242A7F2A12006264081323EC
S1131DC000364955225000000503000000001C2283
S1131DD04100000041221C000014083E08140008C1
S1131DE0083E0808000000A0600000080808080871
S1131DF0000060600000002010080402003E514909
S1131E00453E0000427F40000042615149460021A6
S1131E1041454B31001814127F10002745454539C0
S1131E20003C4A494930000171090503003649491B
S1131E30493600064949291E0000363600000000D4
S1131E40563600000008142241000014141414141F
S1131E5000004122140800020151090600324959C8
S1131E60513E007C1211127C007F49494936003EE4
S1131E7041414122007F4141221C007F494949419F
S1131E80007F09090901003E4149497A007F080899
S1131E90087F0000417F4100002040413F01007F56
S1131EA008142241007F40404040007F020C027F22
S1131EB0007F0408107F003E4141413E007F090934
S1131EC00906003E4151215E007F0919294600465A
S1131ED0494949310001017F0101003F4040403F31
S1131EE0001F2040201F003F4038403F006314087B
S1131EF01463000708700807006151494543000056
S1131F007F41410000552A552A55000041417F0078
S1131F10000402010204004040404040000001026D
S1131F200400002054545478007F48444438003856
S1131F304444442000384444487F003854545418DE
S1131F4000087E0901020018A4A4A47C007F0804F0
S1131F5004780000447D4000004080847D00007FC0
S1131F60102844000000417F4000007C04180478DD
S1131F70007C0804047800384444443800FC2424D9
S1131F8024180018242418FC007C080404080048C1
S1131F905454542000043F444020003C4040207CE2
S1131FA0001C2040201C003C4030403C00442810D1
S1131FB02844001CA0A0A07C004464544C44141485
S1131FC0141414140000000000000000B9170000ED
S1131FD00000000000000000000000001C220000BF
S1131FE000000000010000001C04FF1F00000000AE
S1131FF00000000000000000A91C00003D1D0000BE
S11320003D1D00003D1D00006400640050000E00F2
S113201000F8FFFF0000000038220000000000006C
S1132020020000005404FF1F000000000000000034
S1132030000000008D1B0000691D00000D1B000046
S11320404D1B00006400500050000E0000F8FFFF1C
S11320500000000050220000000000000200000008
S11320609004FF1F000000000000000000000000BA
S11320708D1B00003D1D00000D1B00004D1B0000CA
S113208000000000000000000000000038220000F2
S11320900000000001000000CC04FF1F000000004D
S11320A00000000000000000A91C00003D1D00000D
S11320B03D1D00003D1D00006400640050000E0042
S11320C000F8FFFF0000000058220000000000009C
S11320D0020000000405FF1F0000000000000000D3
S11320E0000000008D1B0000411D00000D1B0000BE
S11320F04D1B0000DC04FF1F66000A1D32000701AF
S1132100640007106E000406780004088200040AC4
S11321108C00040C9600040EA0000410AA00041203
S1132120B4000414BE000416C8000418D200041A33
S1132130DC00041CE100041DE600041EEB00041F87
S1132140F4000317FA000318130101062C0102140A
S11321500001090870B4104C24680F4D2D6855F423
S11321607F050D4E3560090611F0706151EA00706B
S1132170110511F470010843190411F47021084386
S113218006490860002000E0401CC0B29842FBD31E
S11321900148046070BC704700F001404480044072
S11321A010B5074979441831064C7C44163404E0D0
S11321B00A68081D511888470146A142F8D110BD8C
S11321C008000000140000005FE8FFFF8811000011
S11321D0EC05FF1F0000000000F00BF8002801D000
S11321E0FFF7DEFF0020C046C046FEF76BFF00F09D
S11321F002F80120704700F001B800000746384695
S113220000F002F8FBE7000080B5C046C046024A71
S113221011001820ABBEFBE72600020054686520BD
S113222049736C616E64657200000000637574200C
S113223074686520636D6400446174612053636F46
S113224070650000C046C046C046C046FFF7C4FFE4
S11322504E6F6E65000000004261636B0000000079
S903224595
