S01300005368756E416E5F506F65742E73726563CD
S1130000F8FF0020110400004B0500004B05000020
S11300104B0500004B0500004B0500004B0500009C
S11300204B0500004B0500004B0500004B0500008C
S11300304B0500004B0500004B0500004B0500007C
S11300404B0500004B0500004B0500004B0500006C
S1130400FFFFFFFFFFFFFFFFFFFFFFFFFEFFFFFFF9
S11304104FF000004FF000014FF000024FF00003D6
S11304204FF000044FF000054FF000064FF00007B6
S11304304FF000084FF000094FF0000A4FF0000B96
S11304404FF0000C62B600F005F8FEE7DFF800F0AC
S11304506D04FF1F80B572B6DFF8AC044CF2205176
S11304600180DFF8A4044DF62811018062B6DFF89C
S11304709C0400884FF6FE710840DFF89014088051
S1130480DFF88C04DFF88C1488420DD0002008E0DB
S1130490DFF87C14DFF87C2452F8202041F8202077
S11304A0401CB0F5826FF3D3DFF8640400F05AFA0D
S11304B0DFF86414DFF86424DFF86404801A03E0CE
S11304C013780B70521C491C0300581E002BF7D1E3
S11304D0DFF85014DFF85004401A02E000220A70DA
S11304E0491C0200501E002AF8D1DFF84014DFF83E
S11304F04024DFF84004801A03E013780B70521C88
S1130500491C0300581E002BF7D1072000F0A2F964
S1130510DFF824140860DFF8200400684FF47A71CF
S11305204843DFF818140860DFF810040068DFF8A7
S113053010140968C1F30361491CB0FBF1F0DFF842
S11305400414086000F014FAFEE77047C0B2DFF844
S1130550F81331F82010C0B2002800F07A81C0B23C
S1130560162880F27681DFF8E4030022027089B253
S11305704C2904DADFF8D4030022427084E089B203
S1130580972904DADFF8C403012242707CE089B2BF
S1130590E22904DADFF8B4030222427074E089B27B
S11305A0B1F5967F04DCDFF8A403032242706BE00C
S11305B089B2B1F5BC7F04DADFF8900304224270FB
S11305C062E089B2B1F5E17F04DCDFF88003052243
S11305D0427059E089B240F20E20814204DADFF819
S11305E06C03062242704FE089B2B1F5167F04DC39
S11305F0DFF858030722427046E089B2B1F5297F3B
S113060004DADFF84803082242703DE089B240F280
S1130610EF20814204DADFF834030922427033E028
S113062089B240F23A30814204DADFF820030A2228
S1130630427029E089B2B1F5617F04DCDFF80C0374
S11306400B22427020E089B2B1F5747F04DADFF83E
S1130650FC020C22427017E089B240F21B40814236
S113066004DADFF8E8020D2242700DE089B240F2AC
S11306706640814204DADFF8D4020E22427003E0BD
S1130680DFF8C8020F22427089B21A2904DADFF8AF
S1130690BC02002282706BE089B2332904DADFF8ED
S11306A0AC020122827063E089B24C2904DADFF8DB
S11306B09C02022282705BE089B2652903DAA348B6
S11306C00322827054E089B27E2903DA9F4804220F
S11306D082704DE089B2972903DA9C480522827022
S11306E046E089B2B02903DA9848062282703FE0D6
S11306F089B2C92903DA95480722827038E089B2A1
S1130700E22903DA91480822827031E089B2FB2998
S113071003DA8E48092282702AE089B2B1F58A7F11
S113072003DA8A480A22827022E089B2B1F5967F00
S113073003DC86480B2282701AE089B2B1F5A37FEC
S113074003DA82480C22827012E089B2B1F5AF7FDD
S113075003DC7E480D2282700AE089B2B1F5BC7FC9
S113076003DA7A480E22827002E078480F228270FF
S113077089B21A2903DA75480021C17069E089B287
S1130780332903DA71480121C17062E089B24C292E
S113079003DA6E480221C1705BE089B2652903DA8D
S11307A06A480321C17054E089B27E2903DA67489C
S11307B00421C1704DE089B2972903DA6348052109
S11307C0C17046E089B2B02903DA60480621C170DD
S11307D03FE089B2C92903DA5C480721C17038E0D7
S11307E089B2E22903DA59480821C17031E089B29B
S11307F0FB2903DA55480921C1702AE089B2B1F511
S11308008A7F03DA51480A21C17022E089B2B1F526
S1130810967F03DC4D480B21C1701AE089B2B1F513
S1130820A37F03DA49480C21C17012E089B2B1F503
S1130830AF7F03DC45480D21C1700AE089B2B1F5F0
S1130840BC7F03DA41480E21C17002E03F480F210A
S1130850C170704710B504002000C0B2FFF776FEE7
S11308603B48007810F0FD0039490870384800789A
S113087050F01000364908703648B82101703648E7
S11308800078C006FBD434480078C0F38100C0B2BD
S11308900228F8D12D48C3782C4882782B48417817
S11308A02A480078FFF7D2FDE4B2274810EB840011
S11308B0807810F0070029490870E4B2224810EB50
S11308C08400C07810F01F0050F0400024490870E4
S11308D0214800788006FBD51F4800784006FBD5E8
S11308E01C48007810F03F001A4908701A48007834
S11308F0C0F38100C0B20328F8D1E4B2124830F842
S11309002400C0B210BD00000E20054000200540A8
S11309100000FF1F000000001004FF1F7409000006
S1130920D0090000B804FF1FC404FF1F6C04FF1F9C
S1130930D00900001C0A0000BC04FF1FB804FF1FFC
S113094044800440C004FF1F1004FF1F6804FF1FFD
S11309500140064000400640064006400440064070
S113096005400640014908607047000008ED00E0BA
S113097062B6704766000A1D320007016400071062
S11309806E000406780004088200040A8C00040C3B
S11309909600040EA0000410AA000412B40004146B
S11309A0BE000416C8000418D200041ADC00041C9B
S11309B0E100041DE600041EEB00041FF40003170D
S11309C0FA000318130101062C010214000109089E
S11309D070B4104C24680F4D2D6855F47F050D4EEE
S11309E03560090611F0706151EA0070110511F4C7
S11309F070010843190411F4702108430649086082
S1130A00002000E0401CC0B29842FBD301480460BF
S1130A1070BC704700F001404480044010B50749A1
S1130A2079441831064C7C44163404E00A68081DE5
S1130A30511888470146A142F8D110BD2C0000008E
S1130A403800000050F8041B61B150F8042BD307A0
S1130A5044BFA9F101039A18002342F8043B091F7B
S1130A60FAD1EFE770470000DDFFFFFF0C00000044
S1130A70B804FF1F0000000000F00BF8002801D0AC
S1130A80FFF7CCFF0020C046C046FFF771FF00F01F
S1130A9002F80120704700F001B80000074638460C
S1130AA000F002F8FBE7000080B5C046C046024AE9
S1130AB011001820ABBEFBE726000200C046C0466A
S10B0AC0C046C046FFF7D8FF51
S9030ABD35
