S01700005368756E416E5F4E657665724469652E737265634F
S1130000F8FF0020110400004B0500004B05000020
S11300104B0500004B0500004B0500004B0500009C
S11300204B0500004B0500004B0500004B0500008C
S11300304B0500004B0500004B0500004B0500007C
S11300404B0500004B0500004B0500004B0500006C
S1130400FFFFFFFFFFFFFFFFFFFFFFFFFEFFFFFFF9
S11304104FF000004FF000014FF000024FF00003D6
S11304204FF000044FF000054FF000064FF00007B6
S11304304FF000084FF000094FF0000A4FF0000B96
S11304404FF0000C62B600F005F8FEE7DFF800F0AC
S11304506D04FF1F80B572B6DFF810054CF2205111
S11304600180DFF808054DF62811018062B6DFF837
S1130470000500884FF6FE710840DFF8F414088088
S1130480DFF8F004DFF8F01488420DD0002008E013
S1130490DFF8E014DFF8E02452F8202041F82020AF
S11304A0401CB0F5826FF3D3DFF8C80400F092FA71
S11304B0DFF8C814DFF8C824DFF8C804801A03E0A2
S11304C013780B70521C491C0300581E002BF7D1E3
S11304D0DFF8B414DFF8B404401A02E000220A7012
S11304E0491C0200501E002AF8D1DFF8A414DFF8DA
S11304F0A424DFF8A404801A03E013780B70521CC0
S1130500491C0300581E002BF7D1072000F0A2F964
S1130510DFF888140860DFF8840400684FF47A7107
S11305204843DFF87C140860DFF874040068DFF8DF
S113053074140968C1F30361491CB0FBF1F0DFF8DE
S11305406814086000F0B0FAFEE77047C0B2DFF844
S11305505C1431F82010C0B2002800F07A81C0B2D7
S1130560162880F27681DFF848040022027089B2EE
S11305704C2904DADFF838040022427084E089B29E
S1130580972904DADFF82804012242707CE089B25A
S1130590E22904DADFF818040222427074E089B216
S11305A0B1F5967F04DCDFF80804032242706BE0A7
S11305B089B2B1F5BC7F04DADFF8F4030422427097
S11305C062E089B2B1F5E17F04DCDFF8E4030522DF
S11305D0427059E089B240F20E20814204DADFF819
S11305E0D003062242704FE089B2B1F5167F04DCD5
S11305F0DFF8BC030722427046E089B2B1F5297FD7
S113060004DADFF8AC03082242703DE089B240F21C
S1130610EF20814204DADFF898030922427033E0C4
S113062089B240F23A30814204DADFF884030A22C4
S1130630427029E089B2B1F5617F04DCDFF8700310
S11306400B22427020E089B2B1F5747F04DADFF83E
S113065060030C22427017E089B240F21B408142D1
S113066004DADFF84C030D2242700DE089B240F247
S11306706640814204DADFF838030E22427003E058
S1130680DFF82C030F22427089B21A2904DADFF84A
S11306902003002282706BE089B2332904DADFF888
S11306A010030122827063E089B24C2904DADFF876
S11306B00003022282705BE089B2652903DABC4838
S11306C00322827054E089B27E2903DAB8480422F6
S11306D082704DE089B2972903DAB5480522827009
S11306E046E089B2B02903DAB148062282703FE0BD
S11306F089B2C92903DAAE480722827038E089B288
S1130700E22903DAAA480822827031E089B2FB297F
S113071003DAA748092282702AE089B2B1F58A7FF8
S113072003DAA3480A22827022E089B2B1F5967FE7
S113073003DC9F480B2282701AE089B2B1F5A37FD3
S113074003DA9B480C22827012E089B2B1F5AF7FC4
S113075003DC97480D2282700AE089B2B1F5BC7FB0
S113076003DA93480E22827002E091480F228270CD
S113077089B21A2903DA8E480021C17069E089B26E
S1130780332903DA8A480121C17062E089B24C2915
S113079003DA87480221C1705BE089B2652903DA74
S11307A083480321C17054E089B27E2903DA80486A
S11307B00421C1704DE089B2972903DA7C480521F0
S11307C0C17046E089B2B02903DA79480621C170C4
S11307D03FE089B2C92903DA75480721C17038E0BE
S11307E089B2E22903DA72480821C17031E089B282
S11307F0FB2903DA6E480921C1702AE089B2B1F5F8
S11308008A7F03DA6A480A21C17022E089B2B1F50D
S1130810967F03DC66480B21C1701AE089B2B1F5FA
S1130820A37F03DA62480C21C17012E089B2B1F5EA
S1130830AF7F03DC5E480D21C1700AE089B2B1F5D7
S1130840BC7F03DA5A480E21C17002E058480F21D8
S1130850C170704710B504002000C0B2FFF776FEE7
S11308605448007810F0FD0052490870514800784F
S113087050F010004F4908704F48B82101704F489C
S11308800078C006FBD44D480078C0F38100C0B2A4
S11308900228F8D14648C3784548827844484178CC
S11308A043480078FFF7D2FDE4B2404810EB8400DF
S11308B0807810F0070042490870E4B23B4810EB1E
S11308C08400C07810F01F0050F040003D490870CB
S11308D03A4800788006FBD5384800784006FBD5B6
S11308E03548007810F03F003349087033480078E9
S11308F0C0F38100C0B20328F8D1E4B22B4830F829
S11309002400C0B210BD304A126852F400022E4BCB
S11309101A602E4A00231360C0B202012C4B491EF8
S1130920D150C0B22A4911EB0011C96851F001013C
S1130930C0B2274A12EB0012D160C0B2244911EBB5
S11309400011896849084900C0B2214A12EB00121B
S11309509160C0B21E4911EB001003218160704701
S1130960C0B2044A42F82010704700000E2005402F
S1130970002005400000FF1F000000001004FF1FBE
S1130980000F00005C0F0000B804FF1FE004FF1F0D
S11309906C04FF1F5C0F0000A80F0000D804FF1FA9
S11309A0D404FF1F44800440DC04FF1F1004FF1F15
S11309B06804FF1F01400640004006400640064010
S11309C004400640054006403C800440007003405B
S11309D0007103402D490860704710B4202190FB3A
S11309E0F1F1002903D0022935D01AD34CE028496B
S11309F009680122202390FBF3F404FB1304A240B2
S1130A001143234A1160234909680122202390FBE2
S1130A10F3F404FB130412FA04F008431D490860BC
S1130A2032E01D4909680122202390FBF3F404FB02
S1130A301304A2401143184A11601849096801229D
S1130A40202390FBF3F404FB130412FA04F008438C
S1130A501249086018E0124909680122202390FB1A
S1130A60F3F404FB1304A24011430D4A11600D4931
S1130A7009680122202390FBF3F404FB130412FA07
S1130A8004F008430749086010BC704708ED00E013
S1130A9080E200E000E100E084E200E004E100E044
S1130AA088E200E008E100E080B518480021016018
S1130AB01748002101605FF4E13000F02FF800F0E6
S1130AC0D9F8144801680020FFF71DFF0FF219013F
S1130AD05420FFF745FF4420FFF77FFF00F097F90C
S1130AE000F081F8FAE700000B48006850F00100BC
S1130AF00949086006480068401C05490860034825
S1130B000068401C0149086070470000B804FF1FDA
S1130B10CC04FF1FDC04FF1F0C71034030B4002120
S1130B2000220023454C246854F40054434D2C60A7
S1130B30434C246854F40064414D2C60414C2468B7
S1130B4054F440743F4D2C603F4C246854F440747A
S1130B503D4D2C603D4C247814F0F3043B4D2C7037
S1130B603B4C002525703B4C24684FF47A756C434C
S1130B700501B4FBF5F4A4B22200374C2478E4B2A6
S1130B80640964012100140A14F01F042143324C47
S1130B90217032490A702F4909684FF47A7461430D
S1130BA049010001B1FBF0F0B0EB421003002C4806
S1130BB00078C0B24109490113F01F0008432849D5
S1130BC008702248007850F00C002049087025482D
S1130BD00021017030BC7047234909780906FBD510
S1130BE022490870704780B521480079012802D154
S1130BF00A20FFF7F1FF1E484079012802D1142092
S1130C00FFF7EAFF1A488079012802D11E20FFF776
S1130C10E3FF1748C079012802D12820FFF7DCFF41
S1130C2013480021017112480021817110480021EC
S1130C3041710F480021C17102BD0000348004409D
S1130C403880044040B0044044B0044003D006401F
S1130C5002D00640DC04FF1F00D0064001D006404D
S1130C600AD006400BD0064004D0064007D0064008
S1130C70CC04FF1F8D48006850F4C0608B490860A5
S1130C808B48006850F4807089490860894800687E
S1130C9050F48070874908608748006850F4807079
S1130CA0854908608548006850F48070834908606D
S1130CB08348006850F48070814908608148006866
S1130CC050F480707F4908607F48006850F4807059
S1130CD07D4908607D48006850F480707B49086055
S1130CE07B48006830F08070794908607848006873
S1130CF030F00070764908607548006830F0806014
S1130D00734908607248006830F0006070490860F8
S1130D106F48006830F080506D4908606C48006886
S1130D2030F000506A4908606A4800684008400092
S1130D30684908606748006830F002006549086047
S1130D406548006850F4807063490860634800682F
S1130D5050F48070614908606148006850F4807004
S1130D605F4908605F48006850F480705D4908601E
S1130D705848006830F00400564908605548006837
S1130D8030F00800534908605248006830F0100001
S1130D90504908604F48006830F020004D49086011
S1130DA04248006850F40050404908604E480068CA
S1130DB050F480704C4908604C48006850F48070CE
S1130DC04A4908604A48006850F4807048490860FD
S1130DD04748006850F4007045490860704745482A
S1130DE00068C0F38000C0B2704742480068C0F396
S1130DF0C000C0B270473F480068C0F30010C0B2E2
S1130E0070473C480068C0F34010C0B2704780B5DA
S1130E10FFF7E5FF00280ED13748006836494968D6
S1130E20401AB0F5967F06D9344801210171324841
S1130E30314909684160FFF7D8FF00280ED12E48D8
S1130E4000682D498968401AB0F5967F06D92B4869
S1130E50012141712848284909688160FFF7CBFFC7
S1130E6000280ED1244800682349C968401AB0F507
S1130E70967F06D92148012181711F481E490968BE
S1130E80C160FFF7BEFF00280ED11B4800681A4955
S1130E900969401AB0F5967F06D918480121C17135
S1130EA0154815490968016101BD000038800440F6
S1130EB06090044064900440689004406C90044046
S1130EC0709004407490044000A0044004A00440C6
S1130ED014F00F4054F00F4008A004400CA004404C
S1130EE010A0044014A0044020D0044024D00440A6
S1130EF014F10F4050F00F40B804FF1FCC04FF1F43
S1130F0066000A1D32000701640007106E00040623
S1130F10780004088200040A8C00040C9600040E75
S1130F20A0000410AA000412B4000414BE000416A5
S1130F30C8000418D200041ADC00041CE100041DDB
S1130F40E600041EEB00041FF4000317FA00031864
S1130F50130101062C0102140001090870B4104C9D
S1130F6024680F4D2D6855F47F050D4E3560090634
S1130F7011F0706151EA0070110511F47001084319
S1130F80190411F47021084306490860002000E0A8
S1130F90401CC0B29842FBD30148046070BC704747
S1130FA000F001404480044010B5074979441831E9
S1130FB0064C7C44163404E00A68081D511888471E
S1130FC00146A142F8D110BD2C00000038000000F9
S1130FD050F8041B61B150F8042BD30744BFA9F1A6
S1130FE001039A18002342F8043B091FFAD1EFE7E2
S1130FF070470000DDFFFFFF28000000B804FF1F5A
S11310000000000000F00BF8002801D0FFF7CCFF2F
S11310100020C046C046FFF747FD00F002F801205B
S1131020704700F001B800000746384600F002F8A7
S1131030FBE7000080B5C046C046024A11001820F4
S1131040ABBEFBE726000200C046C046C046C04611
S1071050FFF7D8FFCB
S9031049A3
