S00E00005368756E416E322E686578FF
S1130000F8FF002011040000C3760000C37600004E
S1130010C3760000C3760000C3760000C3760000F8
S1130020C3760000C3760000C3760000C3760000E8
S1130030C3760000C3760000C3760000C3760000D8
S1130040C3760000C3760000C3760000C3760000C8
S1130400FFFFFFFFFFFFFFFFFFFFFFFFFEFFFFFFF9
S11304104FF000004FF000014FF000024FF00003D6
S11304204FF000044FF000054FF000064FF00007B6
S11304304FF000084FF000094FF0000A4FF0000B96
S11304404FF0000C62B607F0C1F8FEE7002015E09B
S1130450C0B28A49002221F81020C0B2884911EBA9
S113046040014FF47A72A1F89821C0B2844911EB8B
S113047040014FF47A72A1F8D624401CC0B2C828B7
S1130480E6DB7F483E2180F82C137D48442180F828
S11304906A167C48012141707A480521C170794867
S11304A0012180F831107748012180F83210754815
S11304B0012180F837107348012180F83610714803
S11304C0012180F833106F48012180F834106D4801
S11304D0012180F835106B485FF08241C16369489F
S11304E06949016469483221818168485FF07C511F
S11304F0C16166486649416164485FF07E5181622A
S11305006248642141715E48012180F836135C48D9
S11305104CF25031C0F83813704780B55D48002163
S113052080F880105B48FF2180F8811000202BE0C8
S1130530C0B2B0F10A016C2925D2564991F8801055
S1130540C0B2544A825C914205D2C0B25149415C66
S1130550504A82F88010C0B24E49415C4D4A92F82C
S11305608120914205D2C0B24A49415C494A82F88D
S113057081104849B1F88210C0B2464A825C891899
S1130580444AA2F88210401CC0B28028D0DB414803
S1130590B0F882006C2190FBF1F03E49A1F8820092
S11305A03C4890F880003B4991F88110401A03F0D0
S11305B03BF803F063F85FF03332374B03F086F80F
S11305C003F056F9334981F8840001BD80B53348FE
S11305D0002180F880103148FF2180F8811000202C
S11305E02AE0C0B2411F762925D22C4991F8801007
S11305F0C0B22A4A825C914205D2C0B22749415C0A
S1130600264A82F88010C0B22449415C234A92F8F9
S11306108120914205D2C0B22049415C1F4A82F830
S113062081101E49B1F88210C0B21C4A825C89183C
S11306301A4AA2F88210401CC0B28028D1DB1748A5
S1130640B0F88200762190FBF1F01449A1F8820001
S1130650124890F88000114991F88110401A02F074
S1130660E3FF03F00BF85FF033320B4B03F02EF88B
S113067003F0FEF8094981F8840001BDB804FF1FA6
S1130680840AFF1FB811FF1FC3F5C83F7811FF1F6D
S11306909A99993E7409FF1F3333D33FFC09FF1F16
S11306A02DE9F041DFF8E00DDFF8DC1DB1F8281387
S11306B0A0F82A13DFF8D00DDFF8CC1DB1F8C8106C
S11306C0A0F8CA10DFF8C00DB0F8C800C72805D1DB
S11306D0DFF8B40D0021A0F8C81008E0DFF8A80D79
S11306E0B0F8C800401CDFF8A01DA1F8C800DFF86E
S11306F0980DB0F8C800DFF8901DFF224254DFF8CF
S1130700880DB0F82A03DFF8801D11EB4000B0F823
S1130710980140F2BB318842C0F28880DFF8680D4E
S1130720B0F82A03DFF8601D11EB4000B0F898011F
S113073040F21F4188421ADADFF84C0DB0F82A0360
S1130740DFF8441D11EB4000B0F8980140F2BA31D3
S1130750461ADFF8340DB0F82A03DFF82C1D11EB2C
S11307604000B0F8980140F2A931471A01E064262C
S113077075275FF000084AE0BFB2DFF8100D3818A3
S113078010F8080CBFB2DFF8041D795C88423BD234
S1130790BFB2DFF8F80C385CBFB2DFF8F01C791890
S11307A011F8081C401ADFF8E41C91F88410884200
S11307B02ADBDFF8D80CB0F8820003F089F8DFF800
S11307C0D02CDFF8D03C02F081FF02000B001400B3
S11307D01D00BFB2DFF8B40C385CBFB2DFF8AC1C4C
S11307E0791811F8081C401A03F068F822002B004D
S11307F003F07CF808D8DFF8900CB0F8C800DFF8F4
S1130800881C3A00083A42547F1E18F101084046F9
S1130810C0B280B2B6B2B04208D2DFF86C0CB0F805
S1130820C800DFF8641C405CFF28A5D0DFF8580C32
S1130830DFF8541CB1F89411A0F89611DFF8480CB5
S1130840B0F89401C72805D1DFF83C0C0021A0F8CA
S1130850941108E0DFF8300CB0F89401401CDFF884
S1130860281CA1F89401DFF8200CB0F89401DFF8FB
S1130870181C4018FF2180F8CC10DFF80C0CB0F8DD
S11308802A03DFF8041C11EB4000B0F8980140F291
S11308901741884280F28680DFF8EC0BB0F82A0317
S11308A0DFF8E41B11EB4000B0F8980140F2B331DB
S11308B0884218DBDFF8D00BB0F82A03DFF8C81B36
S11308C011EB4000B0F89801D0F11706DFF8B80B2F
S11308D0B0F82A03DFF8B01B11EB4000B0F8980120
S11308E010F1570701E064260A275FF0000849E089
S11308F0FFB2DFF8980B3818007AFFB2DFF88C1BD0
S1130900795C88423BD2FFB2DFF8800B385CFFB2DF
S1130910DFF8781B7918097A401ADFF8701B91F810
S1130920841088422BDBDFF8640BB0F8820002F0FD
S1130930CFFFDFF85C2BDFF85C3B02F0C7FE020060
S11309400B0014001D00FFB2DFF8400B385CFFB24F
S1130950DFF8381B7918097A401A02F0AFFF220039
S11309602B0002F0C3FF0AD8DFF81C0BB0F8940187
S1130970DFF8141B401817F1080180F8CC107F1C15
S113098018F101085FFA88F8F6B2B0450AD2DFF828
S1130990F80AB0F89401DFF8F01A401890F8CC0087
S11309A0FF28A5D0DFF8E00AB0F82803C72805D14E
S11309B0DFF8D40A0021A0F8281308E0DFF8C80AF9
S11309C0B0F82803401CDFF8C01AA1F82803DFF8A8
S11309D0B80AB0F8C800DFF8B01A405CFF2852D05B
S11309E0DFF8A40AB0F89401DFF89C1A401890F8D4
S11309F0CC00FF2847D0DFF8900AB0F8C800DFF831
S1130A00881A405CDFF8801AB1F89411DFF8782A6C
S1130A10891891F8CC100818022190FBF1F000F22B
S1130A20A930DFF8641AB1F82813DFF85C2A12EB56
S1130A304101A1F89801DFF8500ADFF84C1A91F847
S1130A402C1380F8C116DFF8400AB0F89401DFF8DF
S1130A50381A401890F8CC00DFF82C1AB1F8C810F6
S1130A60DFF8242A895C401ADFF81C1A81F82C0369
S1130A70DFF8140A002180F82D13DFF80C0A002196
S1130A8080F82E13A4E1DFF8000AB0F8C800DFF8FC
S1130A90F819405CFF2872D0DFF8EC09B0F8940133
S1130AA0DFF8E419401890F8CC00FF2867D1DFF88C
S1130AB0D809B0F82803DFF8D01911EB4000DFF8AB
S1130AC0C819B1F8C810DFF8C029895C01F2CF3128
S1130AD0A0F89811DFF8B009B0F82803DFF8A819D6
S1130AE011EB4000B0F89801B0F5966F0BDDDFF81C
S1130AF09809B0F82803DFF8901911EB40004FF47F
S1130B009661A0F89811DFF88009B0F82803DFF89F
S1130B10781911EB4000B0F8980140F20641884280
S1130B2005DADFF86409002180F82D1304E0DFF80A
S1130B305809012180F82D13DFF84C09B0F8C800DA
S1130B40DFF84419405C292813DADFF83C09B0F8CF
S1130B502803DFF8341911EB4000DFF82C19B1F841
S1130B602A13DFF8242912EB4101B1F89811A0F8F7
S1130B709811DFF81409002180F82E1328E1DFF81A
S1130B800809B0F8C800DFF80019405CFF2875D1E7
S1130B90DFF8F408B0F89401DFF8EC18401890F886
S1130BA0CC00FF286AD0DFF8E008B0F82803DFF8AB
S1130BB0D81811EB4000DFF8D018B1F89411DFF821
S1130BC0C828891891F8CC1001F28331A0F8981143
S1130BD0DFF8B408B0F82803DFF8AC1811EB4000D4
S1130BE0B0F89801B0F5966F0ADDDFF89C08B0F80C
S1130BF02803DFF8941811EB40000021A0F89811A5
S1130C00DFF88408B0F82803DFF87C1811EB400003
S1130C10B0F8980140F2CB31884205DBDFF8680870
S1130C20002180F82D1304E0DFF85C08012180F82E
S1130C302D13DFF85408B0F89401DFF84C1840186D
S1130C4090F8CC00572813DBDFF83C08B0F82803F1
S1130C50DFF8341811EB4000DFF82C18B1F82A1330
S1130C60DFF8242812EB4101B1F89811A0F898118B
S1130C70DFF81408002180F82E13A9E0DFF8080833
S1130C8090F82D03012814D1DFF8FC07B0F82803ED
S1130C90DFF8F41711EB4000DFF8EC17B1F82A1372
S1130CA0DFF8E42712EB4101B1F89811A0F898118C
S1130CB08EE0DFF8D40790F82E0300282ED1DFF859
S1130CC0C807012180F82E13DFF8BC07DFF8C81726
S1130CD04968C0F83013DFF8B007B0F82A03DFF82A
S1130CE0A81711EB4000B0F89801DFF89C17A1F8A1
S1130CF03403DFF89407B0F82803DFF88C1711EBFE
S1130D004000DFF88417B1F82A13DFF87C2712EBD0
S1130D104101B1F89811A0F8981159E0DFF868077B
S1130D20012180F82E13DFF870074068DFF85817A8
S1130D30D1F83013401A02F081FC04002000DFF8DF
S1130D405C1702F0EBFD01D8DFF854472000DFF810
S1130D50501702F0F5FD04005FF07E50210002F010
S1130D606DFE0400DFF82007B0F83403B0F57A7F95
S1130D7010DBDFF81407B0F83403B0F57A7002F032
S1130D8053FC210002F0CEFEDFF8181702F036FF04
S1130D90040010E0DFF8F006B0F83403D0F57A7000
S1130DA002F042FC210002F0BDFE0100DFF8F4066F
S1130DB002F044FE0400200002F062FFDFF8C816CF
S1130DC0B1F82813DFF8C02612EB4101A1F898010D
S1130DD0DFF8B406DFF8B016B1F86616A0F86816A6
S1130DE0DFF8A406DFF8A016B1F80614A0F808147A
S1130DF0DFF89406B0F80604C72805D1DFF88806A2
S1130E000021A0F8061408E0DFF87C06B0F8060418
S1130E10401CDFF87416A1F80604DFF86C06B0F87D
S1130E200604DFF864164018FF2180F83E13DFF84B
S1130E305806B0F86806DFF8501611EB4000B0F819
S1130E40D60440F2B6318842C0F28C80DFF838060E
S1130E50B0F86806DFF8301611EB4000B0F8D6049D
S1130E6040F2244188421ADADFF81C06B0F868061A
S1130E70DFF8141611EB4000B0F8D60440F2B53197
S1130E80461ADFF80406B0F86806DFF8FC1511EB23
S1130E904000B0F8D60440F2A931471A01E06E26AA
S1130EA07A275FF000084CE0BFB2DFF8FC05381881
S1130EB010F8080CBFB2DFF8F015795C88423DD217
S1130EC0BFB2DFF8E405385CBFB2DFF8DC1579188F
S1130ED011F8081C401ADFF8D01591F884108842E4
S1130EE02CDBDFF8C405B0F8820002F0F1FCDFF877
S1130EF0A025DFF8A03502F0E9FB02000B00140086
S1130F001D00BFB2DFF8A005385CBFB2DFF898154A
S1130F10791811F8081C401A02F0D0FC22002B00AA
S1130F2002F0E4FC0AD8DFF86005B0F80604DFF844
S1130F30581540183900083980F83E137F1E18F1FF
S1130F4001084046C0B280B2B6B2B0420AD2DFF85D
S1130F503805B0F80604DFF83015401890F83E0361
S1130F60FF28A1D0DFF82005DFF81C15B1F8D21452
S1130F70A0F8D414DFF81005B0F8D204C72805D1BE
S1130F80DFF804050021A0F8D21408E0DFF8F80423
S1130F90B0F8D204401CDFF8F014A1F8D204DFF852
S1130FA0E804B0F8D204DFF8E0144018FF2180F818
S1130FB00A14DFF8D404B0F86806DFF8CC1411EB97
S1130FC04000B0F8D60440F21C41884280F286808A
S1130FD0DFF8B404B0F86806DFF8AC1411EB400095
S1130FE0B0F8D60440F2AE31884218DBDFF898043A
S1130FF0B0F86806DFF8901411EB4000B0F8D6049E
S1131000D0F11C06DFF88004B0F86806DFF8781425
S113101011EB4000B0F8D60410F1570701E06E263A
S113102005275FF0000849E0FFB2DFF87C043818B8
S1131030007AFFB2DFF87014795C88423BD2FFB2C9
S1131040DFF86404385CFFB2DFF85C147918097ABD
S1131050401ADFF8541491F8841088422BDBDFF82F
S11310604804B0F8820002F033FCDFF82424DFF8EF
S1131070243402F02BFB02000B0014001D00FFB20D
S1131080DFF82404385CFFB2DFF81C147918097AFD
S1131090401A02F013FC22002B0002F027FC0AD8AD
S11310A0DFF8E403B0F8D204DFF8DC13401817F1DA
S11310B0080180F80A147F1C18F101085FFA88F807
S11310C0F6B2B0450AD2DFF8C003B0F8D204DFF8B4
S11310D0B813401890F80A04FF28A5D0DFF8A80335
S11310E0B0F86606C72805D1DFF89C030021A0F8F4
S11310F0661608E0DFF89003B0F86606401CDFF8D7
S11311008813A1F86606DFF88003B0F80604DFF858
S11311107813401890F83E03FF284ED0DFF8680398
S1131120B0F8D204DFF86013401890F80A04FF28DE
S113113043D0DFF85403B0F80604DFF84C1340182A
S113114090F83E03DFF84013B1F8D214DFF83823E7
S1131150891891F80A1451FA80F0022190FBF1F0F9
S113116000F2A930DFF82013B1F86616DFF818236F
S113117012EB4101A1F8D604C348C34991F86A1699
S113118080F8C916C048B0F8D204BF49401890F896
S11311900A04BD49B1F80614BB4A891891F83E13F4
S11311A0401AB94981F86A06B748002180F86B16DD
S11311B0B548002180F86C1663E1B348B0F8060422
S11311C0B149401890F83E03FF2861D0AE48B0F80A
S11311D0D204AD49401890F80A04FF2858D1AA480F
S11311E0B0F86606A84911EB4000A749B1F8061407
S11311F0A54A891891F83E1301F2D231A0F8D61409
S1131200A148B0F86606A04911EB4000B0F8D60436
S1131210B0F5966F09DD9C48B0F866069A4911EB63
S113122040004FF49661A0F8D6149748B0F86606CB
S1131230954911EB4000B0F8D60440F206418842CB
S113124004DA9148002180F86B1603E08E480121EE
S113125080F86B168C48B0F806048B49401890F857
S11312603E0327280FDA8848B0F86606864911EB52
S113127040008549B1F86816834A12EB4101B1F880
S1131280D614A0F8D6148048002180F86C16F8E033
S11312907D48B0F806047C49401890F83E03FF28C6
S11312A060D17948B0F8D2047749401890F80A041C
S11312B0FF2857D07448B0F86606734911EB400014
S11312C07149B1F8D214704A891891F80A1411F5C9
S11312D06071A0F8D6146C48B0F866066A4911EB40
S11312E04000B0F8D604B0F5966F08DD6648B0F853
S11312F06606654911EB40000021A0F8D614624847
S1131300B0F86606604911EB4000B0F8D60440F22C
S1131310CB31884204DB5C48002180F86B1603E083
S11313205948012180F86B165748B0F8D204564941
S1131330401890F80A0459280FDB5348B0F86606A1
S1131340514911EB40005049B1F868164E4A12EB6E
S11313504101B1F8D614A0F8D6144B48002180F806
S11313606C168EE0484890F86B06012810D1464868
S1131370B0F86606444911EB40004349B1F86816D9
S1131380414A12EB4101B1F8D614A0F8D61478E022
S11313903D4890F86C06002824D13B48012180F890
S11313A06C1639483C494968C0F870163648B0F89C
S11313B06806354911EB4000B0F8D6043249A1F86B
S11313C074063148B0F866062F4911EB40002E49E7
S11313D0B1F868162C4A12EB4101B1F8D614A0F802
S11313E0D6144EE02848012180F86C162A4840683B
S11313F02549D1F87016401A02F020F904002000A3
S11314002A4902F08BFA00D8294C2000284902F01E
S113141097FA04005FF07E50210002F00FFB0400F5
S11314201948B0F87406B0F57A7F0FDB1648B0F8A7
S11314307406B0F57A7002F0F7F80100200002F0AB
S113144071FB184902F0DAFB04000FE00E48B0F813
S11314507406D0F57A7002F0E7F80100200002F07B
S113146061FB01000F4802F0E9FA0400200002F0D9
S113147007FC0549B1F86616034A12EB4101A1F8CD
S1131480D604BDE8F0810000840AFF1F7409FF1F21
S11314909A9999999999C93FB811FF1F01007A4502
S11314A000007A4500007A44FC09FF1F01409C4576
S11314B000409C45DFF88C0D90F89806002840F019
S11314C01B81DFF8840D90F83300012840F014816B
S11314D0DFF8740D007B022840F00E81DFF8640D04
S11314E0B0F80604DFF85C1D401890F83E03FF28AE
S11314F076D1DFF8500DB0F8D204DFF8481D40185B
S113150090F80A04FF286BD0DFF8380DB0F808040F
S1131510DFF8301D401890F83E03FF2860D0DFF854
S1131520240DB0F8D404DFF81C1D401890F80A0408
S1131530FF2855D0DFF80C0DB0F86606DFF8041D5F
S113154011EB4000B0F8D604A0F2DE30152847D2E3
S1131550DFF8F00CB0F82803DFF8E81C11EB4000CA
S1131560B0F89801A0F2DE30152839D2DFF8D40C97
S1131570B0F86806DFF8CC1C11EB4000B0F8D604D4
S1131580A0F2DE3015282BD2DFF8B80CB0F82A030D
S1131590DFF8B01C11EB4000B0F89801A0F2DE3087
S11315A015281DD2DFF89C0C90F86A063E2817D344
S11315B0DFF8900C90F82C03452811D2DFF8840C46
S11315C00B2180F89816DFF87C0C002180F8B41603
S11315D0DFF8700CDFF8701C4968C0F8B016A1E29F
S11315E0DFF8600CB0F80604DFF8581C401890F8D7
S11315F03E03FF2800F09682DFF8480CB0F8D204CE
S1131600DFF8401C401890F80A04FF2840F08A8252
S1131610DFF8300CB0F80804DFF8281C401890F804
S11316203E03FF2800F07E82DFF8180CB0F8D404E3
S1131630DFF8101C401890F80A04FF2800F07282AA
S1131640DFF8000CB0F86606DFF8F81B11EB400079
S1131650B0F8D604A0F2DE30152880F06382DFF8FB
S1131660E40BB0F82803DFF8DC1B11EB4000B0F802
S11316709801A0F2DE30152880F05482DFF8C40B04
S1131680B0F86806DFF8BC1B11EB4000B0F8D604D4
S1131690A0F2DE30152880F04582DFF8A80BB0F800
S11316A02A03DFF8A01B11EB4000B0F89801A0F268
S11316B0DE30152880F03682DFF8880B90F86A0651
S11316C03E28C0F02F82DFF87C0B90F82C034528CD
S11316D080F02882DFF86C0B0B2180F89816DFF875
S11316E0640B012180F8B416DFF8580BDFF8581B9F
S11316F04968C0F8B01615E2DFF8480B90F8980670
S11317000B2840F04E81DFF8400B4068DFF8341BB3
S1131710D1F8B016401AB0F5FA6FC0F04281DFF884
S1131720240BB0F80604DFF81C1B401890F83E03A5
S1131730FF2840F08E80DFF80C0BB0F8D204DFF8FD
S1131740041B401890F80A04FF2800F08280DFF898
S1131750F40A90F8B40600287BD1DFF8E80AB0F860
S11317606606DFF8E01A11EB4000B0F8D604A0F2E8
S1131770DE3015286DD2DFF8CC0AB0F82803DFF884
S1131780C41A11EB4000B0F89801A0F2DE3015281D
S11317905FD2DFF8B00A90F86A063E2859D3DFF822
S11317A0A40A90F82C03452853D2DFF8980A0C2198
S11317B080F89816DFF88C0ADFF88C1A4968C0F8AC
S11317C0B816DFF8800A002180F8C016DFF8A80DEB
S11317D001214180DFF8A00D6421C18041F69020F1
S11317E0DFF8981DB1F89011DFF8902D32F8111040
S11317F00522DFF8543A5B7892FBF3F25143052259
S113180091FBF2F1BE2202FB110000281BD441F629
S11318109020DFF8681DB1F89011DFF8602D32F8E0
S113182011100522DFF8203A5B7892FBF3F2514362
S1131830052291FBF2F1BE2202FB1100DFF8041A2B
S1131840C1F8BC066EE1DFF8FC090021C0F8BC1643
S113185068E1DFF8F009B0F80604DFF8E819401889
S113186090F83E03FF2800F08E80DFF8D809B0F826
S1131870D204DFF8D019401890F80A04FF2840F089
S11318808280DFF8C00990F8B40601287BD1DFF824
S1131890B409B0F86606DFF8AC1911EB4000B0F8F3
S11318A0D604A0F2DE3015286DD2DFF89809B0F81E
S11318B02803DFF8901911EB4000B0F89801A0F26A
S11318C0DE3015285FD2DFF87C0990F86A063E28DE
S11318D059D3DFF8700990F82C03452853D2DFF868
S11318E064090C2180F89816DFF85809DFF85819B4
S11318F04968C0F8B816DFF84C09012180F8C01611
S1131900DFF8740C01214180DFF86C0CA021C18048
S113191041F69020DFF8641CB1F89011DFF85C2CDC
S113192032F811100522DFF820395B7892FBF3F2CC
S11319305143052291FBF2F1BE2202FB1100002863
S11319401BD441F69020DFF8341CB1F89011DFF875
S11319502C2C32F811100522DFF8EC385B7892FB5E
S1131960F3F25143052291FBF2F1BE2202FB110076
S1131970DFF8D018C1F8BC06D4E0DFF8C8080021AD
S1131980C0F8BC16CEE0DFF8F00B00214170DFF8A0
S1131990E80B00214180DFF8AC08002180F898169C
S11319A0C0E0DFF8A00890F898060C2827D1DFF8EB
S11319B098084068DFF88C18D1F8B816401ADFF898
S11319C08418D1F8BC168842C0F0AC80DFF87408E3
S11319D00D2180F89816DFF8A00B01214170DFF883
S11319E0640890F8C006002804D1DFF88C0B0021AD
S11319F0017197E0DFF8800BC821017192E0DFF8F4
S1131A00440890F898060D2831D1DFF8380890F88A
S1131A10C006002804D1DFF8600B0021017103E047
S1131A20DFF8540BC8210171DFF81C084068DFF8A7
S1131A301418D1F8B816401ADFF80818D1F8BC16F3
S1131A4001F51C51103188426CD3DFF8F8070E21E0
S1131A5080F89816DFF8EC07B0F86606DFF8E417AC
S1131A6011EB40004FF47A71A0F8D6145AE0DFF875
S1131A70D40790F898060E2854D1DFF8C807B0F8B8
S1131A806606DFF8C01711EB4000B0F8D604B0F5D5
S1131A90757029282BD2DFF8AC07B0F80604DFF8FC
S1131AA0A417401890F83E03FF2820D0DFF89407CD
S1131AB0B0F8D204DFF88C17401890F80A04FF2815
S1131AC015D0DFF8800790F86A063E38C0B20D28BA
S1131AD00DD2DFF8A40A00214170DFF89C0A00212E
S1131AE04180DFF86007002180F898161AE0DFF8DB
S1131AF0540790F8C006002804D1DFF87C0A0021BE
S1131B00017103E0DFF8700AC8210171DFF83407BE
S1131B10B0F86606DFF82C1711EB40004FF47A7129
S1131B20A0F8D614DFF81C0790F8980600286CD1AA
S1131B30DFF8140790F83400012866D1DFF80807AD
S1131B40007B022861D1DFF8FC06B0F80604DFF858
S1131B50F416401890F83E03FF2800F09C82DFF84A
S1131B60E406B0F8D204DFF8DC16401890F80A0452
S1131B70FF2800F09082DFF8CC0690F86A0634283B
S1131B8080F08982DFF8BC0690F82C033828C0F076
S1131B908282DFF8B006B0F86606DFF8A81611EB0B
S1131BA04000B0F8D604A0F2D530272880F0738224
S1131BB0DFF890061F2180F89816DFF88806DFF812
S1131BC0841691F86A1680F8CA16DFF87806DFF8EA
S1131BD078164968C0F8CC16DFF86806B0F86606CF
S1131BE0DFF8601611EB4000B0F8D604B0F57A7F48
S1131BF005DCDFF85006002180F8D0164BE2DFF850
S1131C004406012180F8D01645E2DFF8380690F842
S1131C1098061F2848D1DFF830064068DFF82416FC
S1131C20D1F8CC16401AB0F5487F3DD3DFF814063E
S1131C30B0F80604DFF80C16401890F83E03FF28AD
S1131C402CD0DFF80006B0F8D204DFF8F8154018FD
S1131C5090F80A04FF2821D0DFF8E80590F86A0616
S1131C6034281BD2DFF8DC05B0F86606DFF8D4159B
S1131C7011EB4000B0F8D604A0F2D53027280DD2DD
S1131C80DFF8C005202180F89816DFF8EC0802215F
S1131C904180DFF8E408C8210181FCE1DFF8A405F4
S1131CA0002180F89816F6E1DFF8980590F8980678
S1131CB0202840F0F081DFF890054068DFF88415B3
S1131CC0D1F8CC16401AB0F57A5F80F0DC81DFF8E9
S1131CD0740590F8D00600285DD1DFF86805B0F8E7
S1131CE00604DFF86015401890F83E03FF2852D030
S1131CF0DFF85005B0F80604DFF84815401890F8EE
S1131D003E03DFF8401591F8CA16022291FBF2F166
S1131D1051FA80F000F2A930DFF82815B1F8661600
S1131D20DFF8202512EB4101A1F8D604DFF81405F1
S1131D30B0F86606DFF80C1511EB4000B0F8D604D5
S1131D40B0F5966F0CDDDFF8FC04B0F86606DFF83A
S1131D50F41411EB40004FF49661A0F8D614B7E0E8
S1131D60DFF8E004B0F86606DFF8D81411EB4000A1
S1131D70B0F8D604B0F5487F80F2AA80DFF8C40436
S1131D80B0F86606DFF8BC1411EB40004FF448715C
S1131D90A0F8D6149CE0DFF8AC0490F8D006002834
S1131DA017D1DFF8A004B0F80604DFF8981440183F
S1131DB090F83E03FF280CD1DFF88804B0F86606DB
S1131DC0DFF8801411EB40004FF47A71A0F8D614B8
S1131DD07EE0DFF8700490F8D00601285BD1DFF8CC
S1131DE06404B0F8D204DFF85C14401890F80A04D4
S1131DF0FF2850D0DFF84C04B0F8D204DFF84414C4
S1131E00401890F80A0400F2A930DFF8381491F869
S1131E10CA16022291FBF2F1401ADFF82814B1F835
S1131E206616DFF8202412EB4101A1F8D604DFF88E
S1131E301404B0F86606DFF80C1411EB4000B0F897
S1131E40D604B0F5487F0CDADFF8F803B0F866067C
S1131E50DFF8F01311EB40004FF44871A0F8D614EA
S1131E6036E0DFF8E003B0F86606DFF8D81311EBCC
S1131E704000B0F8D604B0F5966F29DDDFF8C4034E
S1131E80B0F86606DFF8BC1311EB40004FF496611E
S1131E90A0F8D6141CE0DFF8AC0390F8D0060128B3
S1131EA016D1DFF8A003B0F8D204DFF89813401875
S1131EB090F80A04FF280BD1DFF88803B0F866060F
S1131EC0DFF8801311EB40004FF47A71A0F8D614B8
S1131ED0DFF8700390F8D006002852D1DFF86403CD
S1131EE0B0F8C800DFF85C13405CFF2849D0DFF885
S1131EF05403B0F8C800DFF84C13405CDFF8441317
S1131F0091F8CA16022291FBF2F1081800F2A930E6
S1131F10DFF83013B1F82813DFF8282312EB41015E
S1131F20A1F89801DFF81C03B0F82803DFF81413B4
S1131F3011EB4000B0F89801B0F5966F0ADDC14886
S1131F40B0F82803BF4911EB40004FF49661A0F8A4
S1131F509811A0E0BB48B0F82803BA4911EB40003F
S1131F60B0F89801B0F5487F80F29580B548B0F894
S1131F702803B44911EB40004FF44871A0F89811BC
S1131F8089E0B04890F8D006002811D1AD48B0F8E7
S1131F90C800AC49405CFF280AD1AA48B0F828031D
S1131FA0A84911EB40004FF47A71A0F8981172E03F
S1131FB0A44890F8D00601284CD1A248B0F8940166
S1131FC0A049401890F8CC00FF2843D09D48B0F8B1
S1131FD094019C49401890F8CC0000F2A93099492A
S1131FE091F8CA16022291FBF2F1401A9549B1F810
S1131FF02813944A12EB4101A1F898019148B0F8D2
S11320002803904911EB4000B0F89801B0F5487FDF
S11320100ADA8C48B0F828038A4911EB40004FF4DF
S11320204871A0F8981136E08648B0F8280385492D
S113203011EB4000B0F89801B0F5966F2BDD8148A4
S1132040B0F828037F4911EB40004FF49661A0F8E3
S1132050981120E07B4890F8D00601281BD17948DC
S1132060B0F894017749401890F8CC00FF2812D1B9
S11320707448B0F82803734911EB40004FF47A71A7
S1132080A0F8981107E0DFF8F004002141806D48C2
S1132090002180F898166C4890F8350001285BD12F
S11320A06948007B022857D1664890F898060028B2
S11320B052D16448B0F82803624911EB4000B0F8EB
S11320C09801A0F2DF30132846D25E48B0F86606C5
S11320D05C4911EB4000B0F8D604A0F2DF301328BD
S11320E03AD25848B0F806045649401890F83E03CE
S11320F0FF2831D05348B0F8D2045249401890F820
S11321000A04FF2828D04F48B0F8C8004D49405C65
S1132110FF2821D04B48B0F894014A49401890F860
S1132120CC00FF2818D0474890F82C034B2813D331
S1132130444890F86A0655280ED34248292180F86D
S11321409816404840494968C0F8E4163D483E495D
S11321508968C0F8E816DBE03A4890F89806292820
S113216074D1DFF85007B0F89001DFF8481731F860
S11321701000572858DA334890F82C03452853D3D5
S11321803048B0F828032F4911EB4000B0F898010B
S1132190A0F2DF30132847D22A48B0F8C8002949F2
S11321A0405CFF2840D02748B0F8940125494018E6
S11321B090F8CC00FF2837D022482A2180F89816BE
S11321C0DFF8B40303214180DFF8AC039621418199
S11321D01C48B0F866061B4911EB4000B0F8D60461
S11321E040F2F331884209DB1648B0F86606154917
S11321F011EB400040F2F231A0F8D6141148B0F8C7
S11322006606104911EB4000B0F8D60440F2DE3106
S1132210884209DA0B48B0F866060A4911EB400017
S113222040F2DE31A0F8D614074840680549D1F8D9
S1132230E416401AB0F57A6F6AD90248002180F892
S1132240981665E0840AFF1FB811FF1FDFF86806BF
S113225090F898062A285BD1DFF85C06B0F8660689
S1132260DFF8541611EB4000B0F8D60440F2F33115
S113227088420BDBDFF84006B0F86606DFF8381654
S113228011EB400040F2F231A0F8D614DFF8280632
S1132290B0F86606DFF8201611EB4000B0F8D6045B
S11322A040F2DE3188420BDADFF80C06B0F866063D
S11322B0DFF8041611EB400040F2DE31A0F8D6142A
S11322C0DFF8F8054068DFF8F015D1F8E416401A95
S11322D048F2E901884213D2DFF8DC0590F82C03B8
S11322E0452815D3DFF8D005B0F82803DFF8C81562
S11322F011EB4000B0F89801B0F57570292807D3A8
S1132300DFF8B405002180F898169B48002141802D
S1132310DFF8A80590F8360001283DD1DFF89805CC
S113232090F89806292837D0DFF88C0590F898069D
S11323302A2831D0DFF88405007B02282CD1DFF86D
S1132340780590F8D106002826D1DFF87405B0F896
S11323509001DFF86C15405C00281DD1DFF86005A2
S1132360B0F89001DFF85815401890F8C80000281C
S113237012D1DFF84405DFF844158968C0F8D41693
S1132380DFF83405DFF834154968C0F8DC16DFF8E7
S11323902805012180F8D116DFF8200590F83600D1
S11323A001285AD1DFF8100590F89806292854D04E
S11323B0DFF80805007B02284FD1DFF8FC0490F811
S11323C0D106012849D1DFF8F4044068DFF8E814A5
S11323D0D1F8DC16401A41F2893188423DD3DFF846
S11323E0DC048068DFF8D014D1F8D416401AB0F5B4
S11323F0FA6F32D9DFF8C804B0F89001DFF8C014DE
S1132400405C002829D1DFF8B804B0F89001DFF867
S1132410B014401890F8C80000281ED1DFF89804C2
S1132420DFF898148968C0F8D816DFF88C04DFF850
S11324308C144968C0F8E016DFF87C04022180F8A7
S1132440D116DFF8780403210173DFF86C04472107
S113245080F8981648480A214180DFF8600490F813
S11324603700012840F0E7800120DFF85014097B91
S1132470022940F0E080C00740F1DD80DFF8380435
S113248090F89806292800F0D680DFF82C0490F8FC
S113249098062A2800F0CF80DFF81C0490F89806EC
S11324A0472800F0C880DFF814048068DFF80C14B3
S11324B04969401AB0F5FA6F40F2BD80DFF8FC03B9
S11324C04068DFF8F813496A401A44F621618842EB
S11324D0C0F0B180DFF8E00390F8980600284FD1EF
S11324E0DFF8DC03B0F89001DFF8D413405C002877
S11324F01CD1DFF8CC03B0F89001DFF8C413401806
S113250090F8C800012811D1DFF8AC03332180F81A
S11325109816DFF8A403002180F8F016DFF898037A
S1132520DFF898134968C0F8EC1684E0DFF89003EC
S1132530B0F89001DFF88813405C01287BD1DFF804
S11325408003B0F89001DFF87813401890F8C800C1
S1132550002870D1DFF86003332180F89816DFF883
S11325605803012180F8F016DFF84C03DFF84C1310
S11325704968C0F8EC165EE07811FF1FB804FF1F2D
S1132580DFF8340390F89806332854D1DFF82C038D
S11325904068DFF82413D1F8EC16401A40F6B9313C
S11325A0884204D3DFF81003002180F89816DFF87E
S11325B0080390F8F00600281DD1DFF80403B0F8F2
S11325C09001DFF8FC12405C012814D1BC48B0F83B
S11325D09001BB49401890F8C80000280BD1B648B8
S11325E0342180F89816B54803210173DFF8380BBD
S11325F00A2141801FE0B04890F8F00601281AD162
S1132600AF48B0F89001AE49405C002813D1AC4803
S1132610B0F89001AA49401890F8C80001280AD1DE
S1132620A548342180F89816A44803210173DFF8E3
S1132630F80A0A214180A148007B002807D19F485D
S113264090F83000012802D19C48012101739B4875
S1132650007B02280FD1994890F8300003280AD152
S11326609648032101739448512180F89816DFF8A5
S1132670B80A0A214180914890F83800012817D1FE
S11326808E48007B022813D18C4880688B494969A5
S1132690401A41F2883188420AD3884803210173E1
S11326A085483D2180F89816DFF87C0A0A2141808C
S11326B08248007B02282ED17F48B0F828037E4947
S11326C011EB4000B0F89801A0F2C1304F281AD2A3
S11326D0794890F83603012810D17748D0F83803A8
S11326E0DFF8481AB1F89011DFF8402A32F81110D7
S11326F010FA81F07049C1F838030CE06E480121EA
S113270080F8361307E06C48002180F836136A48D5
S11327100021C0F838136948007B022873D1664849
S1132720B0F82A03644911EB4000B0F898016249FB
S1132730B1F82813604A12EB4101B1F898118842AC
S113274012D25D48B0F828035B4911EB4000B0F8A1
S113275098015949B1F82A13574A12EB4101B1F8CB
S11327609811401A152824DA5348B0F8280352491E
S113277011EB4000B0F898014F49B1F82A134E4AC2
S113278012EB4101B1F89811884227D24A48B0F8B7
S11327902A03494911EB4000B0F898014649B1F8C1
S11327A02813454A12EB4101B1F89811401A152833
S11327B014DB414890F83C0301280FD13E48B0F89F
S11327C028033D4911EB40003B49B1F82A133A4A2A
S11327D012EB4101B1F89811A0F898113648B0F8FD
S11327E02803354911EB4000B0F89801A0F2B53048
S11327F0672804D33048012180F83C1303E02E48B5
S1132800002180F83C132D48007B012816D12B4869
S11328100069002807D129482849896801612748A7
S11328202649496801622548806824490969401A93
S1132830B0F5FA6F02D32148022101731F48007BCF
S113284002280BD11D484069002807D11B481B49A9
S11328508968416119481949496841621748007BF0
S1132860032816D115488069002807D11348134955
S11328708968816111481149496881620F488068FB
S11328800E498969401AB0F57A7F02D30B480421B6
S113289001730A48007B04280BD10848C06900284A
S11328A007D1064805498968C16104480349496854
S11328B0C1627047E007FF1F840AFF1FB811FF1FA2
S11328C04C06FF1F1CB5DFF8080DB0F82803DFF82D
S11328D0001D11EB4000B0F89801B0F5707051285C
S11328E038D2DFF8EC0C90F86A0634280BD2DFF803
S11328F0E00C90F898061F2805D0DFF8D40C90F867
S11329009806202826D1DFF8C80CD0F8380342F204
S1132910107188421ED3DFF81408B0F89001DFF874
S11329200C1831F810000521DFF8A82C527891FB1F
S1132930F2F148438C2812DADFF8940CB0F86606FA
S1132940DFF88C1C11EB4000B0F8D604B0F57070C1
S1132950512804D3DFF8D0070021017003E0DFF829
S1132960C80701210170DFF8C00700210170DFF8FA
S1132970B8070078002840F0D781DFF8AC078089D9
S1132980DFF8501CC97890FBF1F0DFF8441CB1F873
S1132990281381420FDBDFF8380CB0F82803DFF886
S11329A088178989DFF82C2CD27891FBF2F1401A30
S11329B0ADF8000010E0DFF870078089DFF8141C20
S11329C0C97890FBF1F0D0F1C800DFF8041CB1F82D
S11329D028130818ADF80000DFF8F40BB0F828034A
S11329E0DFF8EC1B11EB4000B0F8980110F57A7099
S11329F0BDF80010DFF8D82B12EB4101B1F89811A3
S1132A00401AADF80400DFF82007BDF80410C181B6
S1132A10DFF8BC0BB0F82803DFF8B41B11EB40005F
S1132A20B0F89841BDF8040000F008FEDFF8F8168D
S1132A30496901F077F801F023F90419DFF8E80691
S1132A404169DFF8940B01F06DF801F019F9201ACF
S1132A50ADF80200BDF80200B0F5966F04DD4FF446
S1132A609660ADF8020008E0BDF80200B0F5487FBA
S1132A7003DA4FF44870ADF80200DFF8540BB0F8F5
S1132A802803DFF84C1B11EB4000B0F89801B0F5B7
S1132A907A7F08DCBDF80200B0F57A7F03DD4FF4DD
S1132AA07A70ADF80200DFF8280BB0F82803DFF8DD
S1132AB0201B11EB4000B0F89801B0F57A7F08DBD9
S1132AC0BDF80200B0F57A7F03DA4FF47A70ADF8FE
S1132AD00200DFF85406BDF802100183DFF8F00AA3
S1132AE0B0F82803DFF8E81A11EB4000B0F8984179
S1132AF0BDF8040000F0A2FDDFF82C16C96901F04E
S1132B0011F801F0BDF80419DFF81C06C169DFF8FB
S1132B10C80A01F007F801F0B3F8201AADF8000074
S1132B20BDF80000B0F5966F04DD4FF49660ADF883
S1132B30000008E0BDF80000B0F5487F03DA4FF468
S1132B404870ADF80000DFF8880AB0F82803DFF811
S1132B50801A11EB4000B0F89801B0F57A7F08DCD8
S1132B60BDF80000B0F57A7F03DD4FF47A70ADF85C
S1132B700000DFF85C0AB0F82803DFF8541A11EB00
S1132B804000B0F89801B0F57A7F08DBBDF800008A
S1132B90B0F57A7F03DA4FF47A70ADF80000DFF80D
S1132BA08805BDF802100184DFF8240AB0F8280370
S1132BB0DFF81C1A11EB4000B0F89801B0F57A7FE9
S1132BC026DBDFF80C0AB0F82803DFF8041A11EB4F
S1132BD04000B0F89801DFF8041A4018B0F57A7094
S1132BE000786430ADF80000DFF8E409B0F8280399
S1132BF0DFF8DC1911EB4000B0F89801DFF8E019B8
S1132C0011EB8000B0F57A600068ADF8020026E0B0
S1132C10DFF8BC09B0F82803DFF8B41911EB400061
S1132C20B0F898014042DFF8B419401890F8E8036E
S1132C30D0F16400ADF80000DFF89409B0F828037F
S1132C40DFF88C1911EB4000B0F898014042DFF82E
S1132C50901911EB8000D0F8A00FADF80200DFF856
S1132C60C804BDF800108176BDF8020000F0E6FC4F
S1132C70DFF8B414896A00F055FF01F001F8DFF8B9
S1132C80A8144884DFF8A004DFF89C14898CC1845C
S1132C90DFF89404008BB0F57A7F18DBDFF8880442
S1132CA0008BDFF838194018B0F57A70007864307A
S1132CB0ADF80000DFF87004008CDFF8241911EB84
S1132CC08000B0F57A600068ADF8020018E0DFF823
S1132CD05804008B4042DFF80419401890F8E803C8
S1132CE0D0F16400ADF80000DFF83C04008C4042F1
S1132CF0DFF8EC1811EB8000D0F8A00FADF802005B
S1132D00DFF82404BDF80010C176BDF8020000F01D
S1132D1095FCDFF81414896A00F004FF00F0B0FF9A
S1132D20DFF804148884C2E1DFF8FC038089DFF84B
S1132D30A418C97890FBF1F0DFF89418B1F866167E
S1132D4081420FDBDFF88808B0F86606DFF8D81395
S1132D508989DFF88028D27891FBF2F1401AADF826
S1132D60000010E0DFF8C0038089DFF86818C97834
S1132D7090FBF1F0D0F1C800DFF85418B1F86616F2
S1132D800818ADF80000DFF84808B0F86606DFF868
S1132D90401811EB4000B0F8D60410F57A70BDF875
S1132DA00010DFF82C2812EB4101B1F8D614401AB8
S1132DB0ADF80200DFF87003BDF802100182DFF8FD
S1132DC01008B0F86606DFF8081811EB4000B0F8F8
S1132DD0D644BDF8020000F031FCD349496900F043
S1132DE0A1FE00F04DFF0419CF484169DFF8E80760
S1132DF000F098FE00F044FF201AADF80400BDF87E
S1132E000400B0F5966F04DD4FF49660ADF804004D
S1132E1008E0BDF80400B0F5487F03DA4FF44870C9
S1132E20ADF80400DFF8A807B0F86606DFF8A017CD
S1132E3011EB4000B0F8D604B0F57A7F08DCBDF899
S1132E400400B0F57A7F03DD4FF47A70ADF8040026
S1132E50DFF87C07B0F86606DFF8741711EB400062
S1132E60B0F8D604B0F57A7F08DBBDF80400B0F5FD
S1132E707A7F03DA4FF47A70ADF80400AA48BDF8FB
S1132E8004100183DFF84807B0F86606DFF840173E
S1132E9011EB4000B0F8D644BDF8020000F0CEFBC0
S1132EA0A149C96900F03EFE00F0EAFE04199E48FB
S1132EB0C169DFF8240700F035FE00F0E1FE201AB6
S1132EC0ADF80000BDF80000B0F5966F04DD4FF4D6
S1132ED09660ADF8000008E0BDF80000B0F5487F4A
S1132EE003DA4FF44870ADF80000DFF8E406B0F8F8
S1132EF06606DFF8DC1611EB4000B0F8D604B0F536
S1132F007A7F08DCBDF80000B0F57A7F03DD4FF46A
S1132F107A70ADF80000DFF8B806B0F86606DFF89E
S1132F20B01611EB4000B0F8D604B0F57A7F08DB98
S1132F30BDF80000B0F57A7F03DA4FF47A70ADF88B
S1132F4000007948BDF804100184DFF88406B0F865
S1132F506606DFF87C1611EB4000B0F8D604B0F535
S1132F607A7F26DBDFF86806B0F86606DFF86016BD
S1132F7011EB4000B0F8D604DFF868164018B0F53D
S1132F807A7000786430ADF80000DFF84406B0F8D9
S1132F906606DFF83C1611EB4000B0F8D604DFF803
S1132FA0481611EB8000B0F57A600068ADF80200B5
S1132FB026E0DFF81C06B0F86606DFF8141611EBFD
S1132FC04000B0F8D6044042DFF81816401890F8D4
S1132FD0E803D0F16400ADF80000DFF8F405B0F8C0
S1132FE06606DFF8EC1511EB4000B0F8D604404259
S1132FF0DFF8F41511EB8000D0F8A00FADF8020053
S11330004948BDF800108176BDF8020000F016FBB7
S11330104549896A00F086FD00F032FE4249488441
S113302041484149898CC1843F48008BB0F57A7F7F
S113303016DB3D48008BDFF8AC154018B0F57A700C
S113304000786430ADF800003748008CDFF898153C
S113305011EB8000B0F57A600068ADF8020016E06C
S11330603148008B4042DFF87C15401890F8E803A3
S1133070D0F16400ADF800002B48008C4042DFF82A
S1133080681511EB8000D0F8A00FADF802002648B7
S1133090BDF80010C176BDF8020000F0CFFA224955
S11330A0896A00F03FFD00F0EBFD1F4988841E484B
S11330B0B42181841C484078012804D11A481A4953
S11330C00979C17607E018484078022803D11648E8
S11330D015494979C17614484088012804D1124819
S11330E01149C98881841DE00F484088022804D111
S11330F00D480D490989818414E00B484088032850
S113310004D109480849498981840BE0064840886C
S11331100A2804D0DFF8BC04007B032802DB024841
S11331200021818413BD00007811FF1FB804FF1F24
S1133130F8B5DFF8B804B0F89001DFF8B01431F84E
S113314010000521DFF88C24527891FBF2F110FB7A
S113315001F6DFF89C04808CDFF89414C98C884253
S113316010D2DFF88C04808CB6B286420AD2DFF823
S11331708004012180F82F10DFF87404DFF8541460
S113318049680163DFF86804808CB6B286420FD3C5
S1133190DFF840044068DFF85814096B401A42F223
S11331A01171884204D3DFF84804002180F82F10FD
S11331B0DFF83C04808CB6B286421ED2B6B2300030
S11331C000F03CFADFF80C14096C00F0ABFCDFF8FB
S11331D0241400F013FD00F053FD80B240F2DF31FF
S11331E0884201DB40F2DE30DFF804148885DFF822
S11331F00004012180F82E1089E0DFF8F403808CAC
S1133200B6B286424DD3DFF8E803808C002848D05C
S1133210DFF8DC0390F82F0001280BD0DFF8B003AF
S113322090F898062A2832D1DFF8C403808CB6B20D
S1133230B0422CD2B6B2300000F000FADFF894139A
S1133240096C00F06FFC0100DFF8A80300F0F6FB46
S1133250002100F063FB10D8B6B2300000F0EEF9A4
S1133260DFF87013096C00F05DFC0100DFF88403E3
S113327000F0E4FB00F004FD00E00020DFF8701330
S11332808885DFF86C03022180F82E103FE00020CF
S1133290DFF85C138885DFF85803012180F82E10CD
S11332A035E0DFF84C03808C002830D1B6B20F2E05
S11332B026DBB6B2300000F0C1F9C649096C00F053
S11332C031FC0100CB4800F0B9FB002100F026FBE3
S11332D00ED8B6B2300000F0B1F9BE49096C00F066
S11332E021FC0100C34800F0A9FB00F0C9FC00E088
S11332F00020BF498885BE48022180F82E1006E0D0
S1133300BB4800218185BA48012180F82E10B848B5
S1133310B749896B4163B648808C00F08FF904008B
S1133320B6B2300000F08AF90100200000F086FBFC
S11333300700AF4887633800002100F0EFFA5BD242
S1133340AB48808C00F07AF900F098F9AA4AAB4BAC
S113335000F0BCF902000B0014001D00B6B23000EE
S113336000F06CF900F08AF922002B0000F0AAFCAE
S113337042D29F48C06B00F081F904000D00380070
S113338000F07CF99E4A9F4B00F0A0F922002B002C
S113339000F0B0FC00F022FD04002000002100F049
S11333A0BDFA1BD2B6B2300000F048F98949096C65
S11333B000F0B8FB8F4900F021FC210000F056FD1D
S11333C00CD2B6B2300000F039F98249096C00F031
S11333D0A9FB884900F012FC040071E020000021E0
S11333E000F044FD6CD2200090F00040864900F0CB
S11333F095FA65D8854C63E03800002100F08EFA18
S11334001CD2B6B2300000F019F900F037F902000E
S11334100B0014001D007648808C00F00FF900F0BA
S11334202DF95FF066327A4B00F050F922002B0040
S113343000F048FC02D26E48C46B41E06C48C06B9B
S113344000F01CF904000D00380000F017F9714A6F
S1133450714B00F03BF922002B0000F04BFC00F014
S1133460BDFC04002000002100F058FA1BD2B6B2C3
S1133470300000F0E3F85749096C00F053FB5D4954
S113348000F0BCFB210000F0F1FC0CD2B6B230001D
S113349000F0D4F84F49096C00F044FB554900F0A2
S11334A0ADFB04000CE02000002100F0DFFC07D29B
S11334B0200090F00040544900F030FA00D8534CFA
S11334C04B48C4630020390000F02CFB210000F0BD
S11334D095FB02001000002100F020FA06D2100033
S11334E04E4900F01BFA01D84D4A0CE010000021AF
S11334F000F0BCFC07D2100090F00040474900F0F7
S11335000DFA00D8474A1000002100F007FA09D844
S1133510100000F0B5FB364988853548012180F854
S11335202E100AE092F00042100000F0A9FB30498E
S113353088852F48022180F82E102D48808C002881
S113354030D1B6B20F2E26DBB6B2300000F076F8DA
S11335502049096C00F0E6FA0100264800F06EFAF2
S1133560002100F0DBF90ED8B6B2300000F066F8A6
S11335701849096C00F0D6FA01001E4800F05EFA02
S113358000F07EFB00E000201949888518480221DC
S113359080F82E1006E01648002181851448012188
S11335A080F82E100B48007B022808DB0948007BBA
S11335B0042804D0074890F83200002806D10C48AB
S11335C0002181850A48012180F82E10F1BD0000F8
S11335D0840AFF1FB811FF1F00007A44201A01005B
S11335E0B0110100EC1A0100D4140100B804FF1F4B
S11335F07811FF1F0000AF43CDCCCCCCCCCCEC3F3A
S11336007B14AE47E17AB43F0100C8430000C8C34D
S11336106666EE3F0AD7A3703D0AB73F0180774440
S113362000807744008077C4002840F10980F44684
S1133630404200F005F850F000406047002800BF09
S11336400AD0B0FA80F18840D1F19D01C905020683
S113365072F1004241EB1020704750F8041B61B135
S113366050F8042BD30744BFA9F101039A1800238F
S113367042F8043B091FFAD1EFE770475FF0FF0CF3
S11336801CEAD05114BF614506E0C110400721F087
S1133690E04101F16051704779B900F00041000246
S11336A00AD0B0FA80FC00FA0CF001F16051A1EBF1
S11336B00C5101EBD0214005704741020CBF40F48E
S11336C0E0016FF00001002070470000B0B581EA0E
S11336D0030C0CF0004C40F2FF7515EA11541DBFA9
S11336E015EA1357AC42AF4239E0E41923EA4553D3
S11336F043F48013C90241F0004141EA505EC7021D
S11337001100A7FB020200284FF00000EEFB01208D
S11337104FF00001E3FB072118BF42F001024018FB
S113372000214941E3FB0E01A4F580640F0302D29A
S113373052004041494154F101046CDD470872F1E3
S1133740004250F1000051EB0451A1F580115CBF1F
S113375041EA0C01B0BD4CEA05510020B0BD05EAB8
S11337601357AC4214BFAF4241E050EA410E1CBFB4
S113377052EA430E02E061460020B0BD24423C44BC
S11337801BD15FEA070EF6D0090302BF01460020F1
S1133790AEF1140EB1FA81F7AEEB070401FA07FE9D
S11337A00C37C7F1200100FA07F7C8404EEA000EB3
S11337B023EA455343F48013A2E733F00043B3FAFA
S11337C083F704BFB2FA82FE77440B3FE41BB7F1E0
S11337D0200E2FBF02FA0EF3BB40C7F1200E22FACF
S11337E00EFE38BF43EA0E03BA40641C82E750EA77
S11337F0410E14BF52EA430E6FF000014FF400175C
S113380017EB430F8ABF194617EB410FB5E74CEA94
S113381005510020B0BDD4F10104B4F120070FDA42
S1133820C4F12007520828BF42F0010210FA07F53C
S113383001FA07F7E1BF2A43E0403843E1400FE0D3
S1133840352C98DCC7F1200452EA400220FA07F232
S113385018BF42F0010231FA07F0A1400A430021E7
S113386072F1004250F1000051EB0C01B0BD0000B8
S1133870F446400D40EAC120490006D200F00EF89B
S1133880004248BF6FF00040604700F007F84FF077
S1133890004188428CBF08464042604740F00040E7
S11338A0490DA1F58061491C05D4D1F11F0154BF14
S11338B0C840C01770474FF000007047010040F146
S11338C00980F446404200F005F851F00041604799
S11338D0010000BF09D0B0FA80F18840C91CC1F5CD
S11338E08461090501EBD021400570474FF4001CA9
S11338F01CEB410F94BF1CEB430F09E041EA030C9E
S113390050EA4C0C52EA0C0C03D28B4208BF8242A0
S1133910704714BF99429042704700004FF0807C7A
S11339201CEB400F94BF1CEB410F05E040EA010C77
S11339305FEA4C0C01D28142704718BF884270473D
S113394010B5FF2313EAD0541DBF13EAD1529C4291
S11339509A4239E0A41ADA0780EA0103134042EAE2
S1133960012142EA0020421A3CBF641E01EB4202DC
S1133970090AB2FBF1FE01FB1E221202B2FBF1F0B6
S113398001FB10226EF30F201202B2FBF1FE4EEA8D
S113399000207F3406DDFE2C24DA53EA500050EB7D
S11339A0C45010BDD4F1020401FB1E2240F080710A
S11339B0192C1DDC21FA04F0C4F12004A1401143A8
S11339C071F10042584110BD9C421ABF03EAD15222
S11339D09A420FE080EA010E0EF00043400004D04A
S11339E0490016D143F0FF4010BD490008BFD3433E
S11339F0180010BD9C4205D1D21AF7D001F0004145
S1133A00484010BD4A0212BF0846484000F000403A
S1133A1010BD4AB90902B1FA81F2914044B1A41827
S1133A20C00140F000409EE7C90141F0004152420C
S1133A300002B0FA80F4A040141B94E790EA010F4E
S1133A4044BF81F0004100F0E1B800BF431A4FF0D9
S1133A5000423EBF5340C01AC91800BFD3095FEAF1
S1133A60D05C13EB400F34BFB3EB410F40E07CEB71
S1133A70D1530CD342EA012122D8D1EB402009D3FF
S1133A80400A28BF5FEA500140EBCC507047401A0F
S1133A9015D04002B0FA80F2521C9040400A4FEA1E
S1133AA03C23B3EB026384BF00EB730007E040F4F4
S1133AB000001A16DB07C2F10102D0401843704718
S1133AC0182BFCDC31FA03F202FA03F3591A38BF5B
S1133AD042F00102D2EB40203CBF4000ACF1010CAB
S1133AE05FEACC5CC20572F100414CEB5020704798
S1133AF013EB400F0FD24B0009D0ACEBD153022B88
S1133B0003DB4902172BDDDD70479143401A430064
S1133B10D5D10020704713EB410FD0D36FF00000D4
S1133B2070470000FF2212EAD05C1DBF12EAD15395
S1133B30944593422BE09C44D30780EA01021A4047
S1133B4043EA002043EA0121A1FB0030410038BFD1
S1133B5040007CF17F010BDBFE294ADA5B0842EA74
S1133B60C15153EA006373F1004C51EB10207047CC
S1133B70D1F1080CDCF120012FDB5B0810FA01F114
S1133B800B4373F1004120FA0CF050417047944507
S1133B901CBF02EAD153934280EA010202F00042C0
S1133BA01DD0400019D0490017D05BB9634514D02B
S1133BB00902B1FA81F39940BCEB030CC00140F057
S1133BC00040C1E70002B0FA80FC10FA0CF0B3EB3D
S1133BD00C0CC90141F00041B6E7100070474000E9
S1133BE00AD0490008D010F1807F94BF11F1807F82
S1133BF002E042F0FF407047D043704790EA010F63
S1133C0044BF81F00041FFF721BF00BF421A3CBF0F
S1133C10801A89184FF0004CC0F3C752FF2A24D0F1
S1133C20C1F3C75313B3D21AD2F1190327DD4CEAF7
S1133C3001214CFA03F321EA0303D140C20D4CEAFB
S1133C400020401834BF20EA0C004CEA5000D20592
S1133C5053EA006373EB0C0C52EB1020420012F198
S1133C60807F38BF7047C00DC0057047490212BF3E
S1133C709A4200EB5120F8E7D2F11703D9D57047E7
S1133C804100090E7F3915D4D1F11F0114D440002D
S1133C9007D2C00140F00040C84048BF6FF0004068
S1133CA07047C00140F00040C8404CBF4FF0004096
S1133CB0404270470020704700424FF0004058BF18
S1133CC0C04370474FF4001C1CEB410F94BF1CEB26
S1133CD0430F09E041EA030C50EA4C0C52EA0C0C85
S1133CE003D2994208BF9042704714BF8B4282426C
S1133CF07047000070B44FF0004591EA030C44BFD4
S1133D006B4000F0C5B800BF841A71EB030603D200
S1133D10001BB141121973414FF4001C1CEB410FFD
S1133D2034BF7CEB430443E00C0DA4EB1356352E57
S1133D3050DC45EAC323DB0A45EAC121C912B6F1C6
S1133D4020050DDD63FA05F6EB4086EA0305124211
S1133D5018BF45F00105C01851F100010CD213E061
S1133D6062FA06F5F2405540F3415A40B340F3403D
S1133D705A408018594107D349085FEA30005FEA86
S1133D80350528BF45F0010501F58011420875F19C
S1133D90004250F1000041EB045170BC4FF4001C90
S1133DA01CEB410F38BF70470020090D090570470F
S1133DB01CEB410F10D252EA43060BD0BCEB410F6F
S1133DC005D80C0DAB43661E342EB5DD02E0AB43C3
S1133DD08018594170BC704770BC70474FEAF17C41
S1133DE0BCF1E04C2CBFBCF5001F11E05FEA4C0CA9
S1133DF034BFBCF17F5F2EE05FEA9C0C4FEA0C1CE1
S1133E004FEA3C0CC10071F100414CEB507070471B
S1133E10C90241EA5051C00218BF41F0010141F00A
S1133E2000414FEA6C50C0F10900212810D240EA49
S1133E30CC7CCCF1200C11FA0CF070F10040CCF1E8
S1133E40200C21FA0CF00CF0004C40EB0C007047F5
S1133E504FEACC707047490011F5001F04D84FEAAF
S1133E60CC10FF30C0057047C81770474FF0807CF6
S1133E701CEB400F94BF1CEB410F05E040EA010C22
S1133E805FEA4C0C01D28842704718BF81427047E8
S1133E90841A71EB030604D26E40001BB14112195F
S1133EA073414FF4001C1CEB410F34BF7CEB430601
S1133EB084E00C0DA4EB1356362E7DDC012E43DC7E
S1133EC045EAC32343EA525312BFD20292025B086B
S1133ED0240545EAC12141EA5051D2EBC020994161
S1133EE025D407D1B0FA80F610FA06F164D0002088
S1133EF0203608E0B1FA81F6B140C6F1200220FA7A
S1133F0002F21143B0404FEAF474B4EB465434F077
S1133F1001064FEA74040AD8D6F50016760D04F0AB
S1133F200044F04061FA06F25040F1404840C00AB3
S1133F3040EA415021F0004128BF5FEA500550F1AA
S1133F40000044EBD12137E045EAC323DB0A45EA0C
S1133F50C121C90AB6F120050EDD42EA0242120C63
S1133F60C5F1200603FA06F6EB4042EA06056D4267
S1133F70984161F100010DE062FA06F5F240554006
S1133F8063FA06FC82EA0C02F3405A406D42904107
S1133F9061EB030111F4801F05D1641E620502D098
S1133FA06D004041494121F48011430875F10043FB
S1133FB050F1000041EB045170BC70471CEB410F01
S1133FC015D223F0004352EA43060BD04FEA4C0CBF
S1133FD0BCEB410F04D80C0D661E342EB7DDEBE7A5
S1133FE0801A994150EA410608BF0021E4E708BF5E
S1133FF01CEB430F28BF6FF00001DDE70821DFF859
S11340008425126852F40052DFF878351A60DFF81C
S11340107425126832F08002DFF868351A6018E0FF
S1134020DFF86025126832F04002DFF858351A6074
S1134030DFF85025126852F08002DFF848351A6024
S1134040DFF84025126832F08002DFF838351A6054
S113405040000A00511ED2B2002A0AD00206DFD55F
S1134060DFF82025126852F04002DFF818351A6094
S1134070DEE770470821DFF80C25126832F400529D
S1134080DFF800351A60DFF8FC24126832F0800291
S1134090DFF8F0341A6018E0DFF8E824126832F030
S11340A04002DFF8E0341A60DFF8D824126852F0D6
S11340B08002DFF8D0341A60DFF8C824126832F0C6
S11340C08002DFF8C0341A6040000A00511ED2B2E8
S11340D0002A0AD00206DFD5DFF8A824126852F0BD
S11340E04002DFF8A0341A60DEE7704710B5040020
S11340F0B1F15000C0B2FFF7BDFFE4B2200950F0A7
S11341001000C0B2FFF7B6FF14F00F0050F001002A
S1134110C0B2FFF7AFFF10BD70B50400002508E082
S11341202000C0B2FFF76AFF761CF6B2802EF7DBE0
S11341306D1CEDB2082D0CDAB5F15000C0B2FFF7DA
S113414099FF0120FFF796FF1020FFF793FF002649
S1134150EBE770BD38B5002407E00020FFF74EFF01
S11341606D1CEDB2802DF8DB641CE4B2082C0CDA73
S1134170B4F15000C0B2FFF77DFF0120FFF77AFFD2
S11341801020FFF777FF0025EBE731BD80B5DFF89E
S1134190F803006850F48050DFF8EC130860DFF88F
S11341A0EC03006850F48070DFF8E0130860DFF877
S11341B0E003006850F48070DFF8D4130860DFF87F
S11341C0D403006850F48070DFF8C8130860DFF887
S11341D0C803006850F48070DFF8BC130860DFF88F
S11341E0BC03006850F40050DFF8B0130860DFF837
S11341F0AC03006850F48070DFF8A0130860DFF8A7
S11342009C03006850F04000DFF890130860DFF86A
S11342108C03006850F08000DFF880130860DFF83A
S11342206403006850F40050DFF858130860DFF8A6
S11342305403006830F48070DFF848130860DFF836
S11342404403006850F04000DFF838130860DFF8DA
S11342503403006850F08000DFF828130860002061
S113426000E0401C80B2B0F57A7FFADBDFF814037B
S1134270006850F48070DFF80C130860AE20FFF77C
S1134280F9FE0020FFF7F6FE1020FFF7F3FE4020B2
S1134290FFF7F0FE8120FFF7EDFECF20FFF7EAFEE7
S11342A0A120FFF7E7FEC820FFF7E4FEA620FFF7F2
S11342B0E1FEA820FFF7DEFE3F20FFF7DBFED32060
S11342C0FFF7D8FE0020FFF7D5FED520FFF7D2FE7A
S11342D08020FFF7CFFED920FFF7CCFEF120FFF7B7
S11342E0C9FEDA20FFF7C6FE1220FFF7C3FEDB206B
S11342F0FFF7C0FE4020FFF7BDFE2020FFF7BAFE07
S11343000220FFF7B7FE8D20FFF7B4FE1420FFF75D
S1134310B1FEA420FFF7AEFEA620FFF7ABFEAF2050
S1134320FFF7A8FE0020FFF7F7FE00210020FFF7AB
S1134330DDFE01BD38B504000120C9B2082291FB9D
S1134340F2F303FB121310FA03F5C9B2C80850388C
S1134350C0B2FFF78FFEE4B2200950F01000C0B2E3
S1134360FFF788FE14F00F00FFF784FE2800C0B2A8
S1134370FFF744FE31BD38B504001500C9B2C808C2
S11343805038C0B2FFF776FEE4B2200950F01000B6
S1134390C0B2FFF76FFE14F00F00FFF76BFE2800AA
S11343A0C0B2FFF72BFE31BD2DE9F84304000D0028
S11343B0160000275FF000085FF0000915E05FFABF
S11343C088F8FFB20620DFF8DC1900FB071018F8A4
S11343D00000FFF713FE18F101085FFA88F8B8F13E
S11343E0060FECDBA41D19F101095FFA89F919F82C
S11343F00600002813D05FFA89F919F80600B0F115
S11344002007E4B27F2C01DB00246D1C2900C9B213
S11344102000C0B2FFF76AFE5FF00008DDE7BDE8E8
S1134420F1832DE9F047040015001E000027F6B2C1
S1134430082096FBF0F202FB1062002A04D1F6B2C7
S1134440082096FBF0FA05E0F6B2082096FBF0F09F
S113445010F1010A8A46DDF820800EE0BFB217F899
S11344600800FFF7CBFD7F1C19F10109EDB25FFADB
S113447089F94D45F2D21AF1010AF6B25FFA8AFAC5
S1134480564507D35146C9B22000C0B2FFF72EFEED
S1134490A146EBE7BDE8F0872DE9F043A1B00500A4
S11344A0140000265FF0000900A8802102F034FA0D
S11344B00027002100205FF000080022170005E01B
S11344C0FFB2785DFFB200A978547F1CFFB2802F41
S11344D0F6DB002709E0FFB200A8385CF6B286429A
S11344E002D2FFB200A83E5C7F1CFFB2802FF2DB39
S11344F0F6B23000FFF7A2F880464046002102F0F1
S11345000FFA01D15FF07E580020FFF705FE002767
S113451017E0FFB200A8385CFFF790F84146FFF7B8
S11345200FFADFF8481BFFF7FDFAFFF7A9FB8146F6
S11345304946D1F13F01C9B23800C0B2FFF7FAFED3
S11345407F1CFFB2802FE4DBFF2200212000C0B2D9
S1134550FFF711FFFF2208212000C0B2FFF70BFF75
S1134560FF220021D4F17F00C0B2FFF704FFFF2235
S11345700821D4F17F00C0B2FFF7FDFE21B0BDE8F1
S1134580F0830000C0F00F403880044034C0044081
S113459020C0044018C004401CC00440D4F00F40A4
S11345A0F0B583B004000D0016000022002701239B
S11345B000A8DFF8201CB1E80050A0E8005008393A
S11345C008383000DFF8101CFFF7A8F901D80027DD
S11345D06BE03000DFF8041CFFF7A0F901D80127D5
S11345E063E03000DFF8F81BFFF798F901D80227E1
S11345F05BE03000DFF8EC1BFFF790F901D80327EC
S113460053E03000DFF8E01BFFF788F901D80427F6
S11346104BE03000DFF8D41BFFF780F901D8052701
S113462043E03000DFF8C81BFFF778F901D806270C
S11346303BE030005FF07E51FFF770F904D93000A1
S1134640002102F06DF901D107272EE03000DFF8D8
S1134650A41BFFF763F901D8082726E03000DFF830
S1134660981BFFF75BF901D809271EE03000DFF83B
S11346708C1BFFF753F901D80A2716E03000DFF846
S1134680801BFFF74BF901D80B270EE03000DFF851
S1134690741BFFF743F901D80C2706E03000DFF85C
S11346A0681BFFF73BF900D80D27FFB2022F14D087
S11346B012D3042F00F0EA8078D3062F00F0B981DA
S11346C0C0F04A81082F00F08E82C0F01F820A2FAA
S11346D000F01F83C0F0D68259E3300002F02EF9B7
S11346E00300002204E0D2B200A820211154521C7D
S11346F0D2B2072A59DAD2B2002A09D0022A25D026
S113470015D3042A3ED030D3062AECD047D3EEE7A3
S1134710DFF8580CB3FBF0F03030D2B200A950549B
S1134720DFF8480CB3FBF0F100FB1133DFE742F292
S11347301070B3FBF0F03030D2B200A9505442F202
S11347401070B3FBF0F100FB1133D0E74FF47A7033
S1134750B3FBF0F03030D2B200A950544FF47A7069
S1134760B3FBF0F100FB1133C1E76420B3FBF0F0BD
S11347703030D2B200A950546420B3FBF0F100FBF6
S11347801133B4E70A20B3FBF0F03030D2B200A901
S113479050540A20B3FBF0F100FB1133A7E7D2B267
S11347A000A813F130011154A1E7F0E2DFF8380A50
S11347B03100FFF7B7F902F0C1F80300002204E06A
S11347C0D2B200A820211154521CD2B2072A5CDABA
S11347D0D2B2002A09D0022A25D015D3042A40D007
S11347E030D3062AECD04BD3EEE7DFF8840BB3FBCF
S11347F0F0F03030D2B200A95054DFF8740BB3FBA0
S1134800F0F100FB1133DFE7DFF8680BB3FBF0F0E6
S11348103030D2B200A95054DFF8580BB3FBF0F19A
S113482000FB1133D0E7DFF8440BB3FBF0F030307A
S1134830D2B200A95054DFF8340BB3FBF0F100FB03
S11348401133C1E742F21070B3FBF0F03030D2B252
S113485000A9505442F21070B3FBF0F100FB113385
S1134860B2E74FF47A70B3FBF0F03030D2B200A963
S113487050544FF47A70B3FBF0F100FB1133A3E70B
S1134880D2B200A8202111549EE780E2DFF8580933
S11348903100FFF747F902F051F80300002204E069
S11348A0D2B200A820211154521CD2B2072A52DAE3
S11348B0D2B2002A09D0022A25D015D3042A40D026
S11348C030D3062AECD041D3EEE7DFF8A80AB3FBD5
S11348D0F0F03030D2B200A95054DFF8980AB3FB9C
S11348E0F0F100FB1133DFE7DFF8800AB3FBF0F0EF
S11348F03030D2B200A95054DFF8700AB3FBF0F1A3
S113490000FB1133D0E742F21070B3FBF0F030300B
S1134910D2B200A9505442F21070B3FBF0F100FB84
S11349201133C1E74FF47A70B3FBF0F03030D2B2F8
S113493000A950544FF47A70B3FBF0F100FB11332B
S1134940B2E7D2B200A820211154ADE7D2B200A838
S113495020211154A8E71AE2DFF88C083100FFF790
S1134960E1F801F0EBFF0300002205E0D2B200A859
S113497013F130011154521CD2B2072A58DAD2B2C0
S1134980002A09D0022A25D015D3042A36D030D3E0
S1134990062AEBD03FD3EEE7DFF8D009B3FBF0F003
S11349A03030D2B200A95054DFF8C009B3FBF0F1A3
S11349B000FB1133DFE742F21070B3FBF0F030304C
S11349C0D2B200A9505442F21070B3FBF0F100FBD4
S11349D01133D0E74FF47A70B3FBF0F03030D2B239
S11349E000A950544FF47A70B3FBF0F100FB11337B
S11349F0C1E7D2B200A82E211154BCE76420B3FB56
S1134A00F0F03030D2B200A950546420B3FBF0F17E
S1134A1000FB1133AFE70A20B3FBF0F03030D2B221
S1134A2000A950540A20B3FBF0F100FB1133A2E7B4
S1134A30ADE1DFF8B0073100FFF774F801F07EFF55
S1134A400300002205E0D2B200A813F13001115492
S1134A50521CD2B2072A58DAD2B2002A09D0022A4A
S1134A6025D015D3042A36D026D3062AEBD03FD33B
S1134A70EEE7DFF8F808B3FBF0F03030D2B200A96B
S1134A805054DFF8E808B3FBF0F100FB1133DFE723
S1134A9042F21070B3FBF0F03030D2B200A950549F
S1134AA042F21070B3FBF0F100FB1133D0E7D2B245
S1134AB000A82E211154CBE74FF47A70B3FBF0F029
S1134AC03030D2B200A950544FF47A70B3FBF0F1F5
S1134AD000FB1133BCE76420B3FBF0F03030D2B2FA
S1134AE000A950546420B3FBF0F100FB1133AFE78D
S1134AF00A20B3FBF0F03030D2B200A950540A209F
S1134B00B3FBF0F100FB1133A2E740E1DFF8D0067C
S1134B103100FFF707F801F011FF0300002205E060
S1134B20D2B200A813F130011154521CD2B2072A98
S1134B3058DAD2B2002A09D0022A1BD015D3042A8B
S1134B4036D026D3062AEBD03FD3EEE7DFF81C0895
S1134B50B3FBF0F03030D2B200A95054DFF80C08A7
S1134B60B3FBF0F100FB1133DFE7D2B200A82E2132
S1134B701154DAE742F21070B3FBF0F03030D2B2E5
S1134B8000A9505442F21070B3FBF0F100FB113352
S1134B90CBE74FF47A70B3FBF0F03030D2B200A917
S1134BA050544FF47A70B3FBF0F100FB1133BCE7BF
S1134BB06420B3FBF0F03030D2B200A9505464202A
S1134BC0B3FBF0F100FB1133AFE70A20B3FBF0F0C5
S1134BD03030D2B200A950540A20B3FBF0F100FBEC
S1134BE01133A2E7D3E0DFF800063100FEF79AFFA5
S1134BF001F0A4FE0300002204E0D2B200A82021A8
S1134C001154521CD2B2072A3BDAD2B2002A09D07C
S1134C10022A11D00BD3042A28D01AD3062AECD0A6
S1134C202AD3EEE7D2B200A830211154E9E7D2B278
S1134C3000A82E211154E4E76420B3FBF0F03030D7
S1134C40D2B200A950546420B3FBF0F100FB11333D
S1134C50D7E70A20B3FBF0F03030D2B200A95054A9
S1134C600A20B3FBF0F100FB1133CAE7D2B200A86B
S1134C7013F130011154C4E7D2B200A82021115419
S1134C80BFE784E0DFF860053100FEF74BFF01F079
S1134C9055FE0300002204E0D2B200A820211154E2
S1134CA0521CD2B2072A33DAD2B2002A09D0022A1D
S1134CB011D00BD3042A20D012D3062AECD022D34D
S1134CC0EEE7D2B200A830211154E9E7D2B200A82D
S1134CD02E211154E4E7D2B200A830211154DFE7A9
S1134CE00A20B3FBF0F03030D2B200A950540A20AD
S1134CF0B3FBF0F100FB1133D2E7D2B200A813F1F9
S1134D0030011154CCE7D2B200A820211154C7E7D6
S1134D103DE0DFF8D4043100FEF704FF01F00EFE9D
S1134D200300002204E0D2B200A820211154521C36
S1134D30D2B2072A2BDAD2B2002A09D0022A11D021
S1134D400BD3042A18D012D3062AECD01AD3EEE7D8
S1134D50D2B200A830211154E9E7D2B200A82E2122
S1134D601154E4E7D2B200A830211154DFE7D2B2E3
S1134D7000A830211154DAE7D2B200A813F13001AF
S1134D801154D4E7D2B200A820211154CFE7002057
S1134D908DF8070000AA2900C9B22000C0B2FFF7AD
S1134DA003FBF7BDF81701000821DFF8CC251268D2
S1134DB052F40022DFF8C0351A60DFF8BC2512680F
S1134DC032F48032DFF8B0351A6018E0DFF8A82535
S1134DD0126832F40032DFF8A0351A60DFF8982543
S1134DE0126852F48032DFF890351A60DFF88825B3
S1134DF0126832F48032DFF880351A6040000A000D
S1134E00511ED2B2002A0AD00206DFD5DFF8682587
S1134E10126852F40032DFF860351A60DEE770473A
S1134E200821DFF85425126832F40022DFF84835EF
S1134E301A60DFF84425126832F48032DFF838351E
S1134E401A6018E0DFF83025126832F40032DFF817
S1134E5028351A60DFF82025126852F48032DFF812
S1134E6018351A60DFF81025126832F48032DFF842
S1134E7008351A6040000A00511ED2B2002A0AD036
S1134E800206DFD5DFF8F024126852F40032DFF8AE
S1134E90E8341A60DEE7704710B50400B1F1500041
S1134EA0C0B2FFF7BDFFE4B2200950F01000C0B259
S1134EB0FFF7B6FF14F00F0050F00100C0B2FFF787
S1134EC0AFFF10BD80B5DFF8AC0C006850F4006093
S1134ED0DFF8A01C0860DFF8A00C006850F48070B4
S1134EE0DFF8941C0860DFF8940C006850F48070BC
S1134EF0DFF8881C0860DFF8880C006850F48070C4
S1134F00DFF87C1C0860DFF87C0C006850F48070CB
S1134F10DFF8701C0860DFF8700C006850F40020A3
S1134F20DFF8641C0860DFF8600C006850F480202F
S1134F30DFF8541C0860DFF8500C006850F40030AF
S1134F40DFF8441C0860DFF8400C006850F480303F
S1134F50DFF8341C0860DFF82004006850F40020F7
S1134F60DFF814140860DFF81004006830F48020BF
S1134F70DFF804140860DFF80004006850F400301F
S1134F80DFF8F4130860DFF8F003006850F48030B1
S1134F90DFF8E4130860002000E0401C80B2B0F5A4
S1134FA07A7FFADBDFF8D003006850F48020DFF862
S1134FB0C8130860AE20FFF733FF0020FFF730FF6F
S1134FC01020FFF72DFF4020FFF72AFF8120FFF775
S1134FD027FFCF20FFF724FFA120FFF721FFC820E0
S1134FE0FFF71EFFA620FFF71BFFA820FFF718FFFF
S1134FF03F20FFF715FFD320FFF712FF0020FFF734
S11350000FFFD520FFF70CFF8020FFF709FFD92001
S1135010FFF706FFF120FFF703FFDA20FFF700FF99
S11350201220FFF7FDFEDB20FFF7FAFE4020FFF71A
S1135030F7FE2020FFF7F4FE0220FFF7F1FE8D209B
S1135040FFF7EEFE1420FFF7EBFEA420FFF7E8FEC7
S1135050A620FFF7E5FEAF20FFF7E2FE002000F0F8
S113506007F800210020FFF717FF01BD00007C4274
S113507070B50400002508E02000C0B2FFF794FEDC
S1135080761CF6B2802EF7DB6D1CEDB2082D0CDA1F
S1135090B5F15000C0B2FFF7C3FE0120FFF7C0FE18
S11350A01020FFF7BDFE0026EBE770BD38B50024E5
S11350B007E00020FFF778FE6D1CEDB2802DF8DBD1
S11350C0641CE4B2082C0CDAB4F15000C0B2FFF74F
S11350D0A7FE0120FFF7A4FE1020FFF7A1FE002584
S11350E0EBE731BD38B504000120C9B2082291FBB9
S11350F0F2F303FB121310FA03F5C9B2C8085038CF
S1135100C0B2FFF78DFEE4B2200950F01000C0B227
S1135110FFF786FE14F00F00FFF782FE2800C0B2EE
S1135120FFF742FE31BD38B504001500C9B2C80806
S11351305038C0B2FFF774FEE4B2200950F01000FA
S1135140C0B2FFF76DFE14F00F00FFF769FE2800F0
S1135150C0B2FFF729FE31BD2DE9F84304000D006C
S1135160160000275FF000085FF0000915E05FFA01
S113517088F8FFB20620DFF8141A00FB071018F8AD
S11351800000FFF711FE18F101085FFA88F8B8F182
S1135190060FECDBA41D19F101095FFA89F919F86E
S11351A00600002813D05FFA89F919F80600B0F157
S11351B02007E4B27F2C01DB00246D1C2900C9B256
S11351C02000C0B2FFF768FE5FF00008DDE7BDE82D
S11351D0F1830000E81C01008096184B00247449F8
S11351E00050C34700401C4600007A440000C842F7
S11351F000002041CDCCCC3D0BD7233C6F12833A29
S113520018B7D138ADC52737BE3786352DE9F047F5
S1135210040015001E000027F6B2082096FBF0F2E9
S113522002FB1062002A04D1F6B2082096FBF0FAC1
S113523005E0F6B2082096FBF0F010F1010A8A4668
S1135240DDF820800EE0BFB217F80800FFF7ACFDD0
S11352507F1C19F10109EDB25FFA89F94D45F2D2CB
S11352601AF1010AF6B25FFA8AFA564507D3514693
S1135270C9B22000C0B2FFF70FFEA146EBE7BDE8BC
S1135280F0872DE9F043A1B00500140000265FF07B
S1135290000900A8802101F03FFB00270021002025
S11352A05FF000080022170005E0FFB2785DFFB24E
S11352B000A978547F1CFFB2802FF6DB002709E099
S11352C0FFB200A8385CF6B2864202D2FFB200A850
S11352D03E5C7F1CFFB2802FF2DBF6B23000FEF79B
S11352E0ADF980464046002101F01AFB01D15FF080
S11352F07E580020FFF7BCFE002717E0FFB200A88D
S1135300385CFEF79BF94146FEF71AFBDFF880187C
S1135310FEF708FCFEF7B4FC81464946D1F13F0193
S1135320C9B23800C0B2FFF7DDFE7F1CFFB2802F88
S1135330E4DBFF2200212000C0B2FFF7F4FEFF22CD
S113534008212000C0B2FFF7EEFEFF220021D4F1B5
S11353507F00C0B2FFF7E7FEFF220821D4F17F00EF
S1135360C0B2FFF7E0FE21B0BDE8F083A0860100E3
S11353708096980040420F0080F00F40F0B583B053
S113538004000D00160000220027012300A8DFF806
S11353900418B1E80050A0E800500839083830007B
S11353A0DFF8F417FEF7BAFA01D800276BE03000F3
S11353B0DFF8E817FEF7B2FA01D8012763E03000FE
S11353C0DFF8DC17FEF7AAFA01D802275BE0300009
S11353D0DFF8D017FEF7A2FA01D8032753E0300014
S11353E0DFF8C417FEF79AFA01D804274BE030001F
S11353F0DFF8B817FEF792FA01D8052743E030002A
S1135400DFF8AC17FEF78AFA01D806273BE0300034
S11354105FF07E51FEF782FA04D93000002101F0DA
S11354207FFA01D107272EE03000DFF88817FEF756
S113543075FA01D8082726E03000DFF87C17FEF75C
S11354406DFA01D809271EE03000DFF87017FEF767
S113545065FA01D80A2716E03000DFF86417FEF772
S11354605DFA01D80B270EE03000DFF85817FEF77D
S113547055FA01D80C2706E03000DFF84C17FEF788
S11354804DFA00D80D27FFB2022F14D012D3042FE7
S113549000F0EA8078D3062F00F0B981C0F04A8189
S11354A0082F00F08B82C0F01F820A2F00F01A83AD
S11354B0C0F0D28253E3300001F040FA030000222E
S11354C004E0D2B200A820211154521CD2B2072AFF
S11354D059DAD2B2002A09D0022A25D015D3042AD7
S11354E03ED030D3062AECD047D3EEE7DFF8DC0613
S11354F0B3FBF0F03030D2B200A95054DFF8CC0640
S1135500B3FBF0F100FB1133DFE742F21070B3FBA1
S1135510F0F03030D2B200A9505442F21070B3FB14
S1135520F0F100FB1133D0E74FF47A70B3FBF0F0E5
S11355303030D2B200A950544FF47A70B3FBF0F17A
S113554000FB1133C1E76420B3FBF0F03030D2B27A
S113555000A950546420B3FBF0F100FB1133B4E70D
S11355600A20B3FBF0F03030D2B200A950540A2024
S1135570B3FBF0F100FB1133A7E7D2B200A813F19B
S113558030011154A1E7EAE2DFF81C063100FEF70E
S1135590C9FA01F0D3F90300002204E0D2B200A852
S11355A020211154521CD2B2072A5CDAD2B2002A4A
S11355B009D0022A25D015D3042A40D030D3062A94
S11355C0ECD04BD3EEE7DFF80806B3FBF0F0303055
S11355D0D2B200A95054DFF8F805B3FBF0F100FB98
S11355E01133DFE7DFF8EC05B3FBF0F03030D2B273
S11355F000A95054DFF8DC05B3FBF0F100FB1133D4
S1135600D0E7DFF8C805B3FBF0F03030D2B200A920
S11356105054DFF8B805B3FBF0F100FB1133C1E7D8
S113562042F21070B3FBF0F03030D2B200A9505403
S113563042F21070B3FBF0F100FB1133B2E74FF408
S11356407A70B3FBF0F03030D2B200A950544FF46A
S11356507A70B3FBF0F100FB1133A3E7D2B200A8D8
S1135660202111549EE77AE2DFF83C053100FEF771
S113567059FA01F063F90300002204E0D2B200A851
S113568020211154521CD2B2072A52DAD2B2002A73
S113569009D0022A25D015D3042A40D030D3062AB3
S11356A0ECD041D3EEE7DFF82C05B3FBF0F030305B
S11356B0D2B200A95054DFF81C05B3FBF0F100FB93
S11356C01133DFE7DFF80405B3FBF0F03030D2B27A
S11356D000A95054DFF8F404B3FBF0F100FB1133DC
S11356E0D0E742F21070B3FBF0F03030D2B200A930
S11356F0505442F21070B3FBF0F100FB1133C1E7D8
S11357004FF47A70B3FBF0F03030D2B200A95054A9
S11357104FF47A70B3FBF0F100FB1133B2E7D2B26D
S113572000A820211154ADE7D2B200A820211154C1
S1135730A8E714E2DFF870043100FEF7F3F901F092
S1135740FDF80300002205E0D2B200A813F13001F5
S11357501154521CD2B2072A58DAD2B2002A09D004
S1135760022A25D015D3042A36D030D3062AEBD00A
S11357703FD3EEE7DFF85404B3FBF0F03030D2B29D
S113578000A95054DFF84404B3FBF0F100FB1133DB
S1135790DFE742F21070B3FBF0F03030D2B200A970
S11357A0505442F21070B3FBF0F100FB1133D0E718
S11357B04FF47A70B3FBF0F03030D2B200A95054F9
S11357C04FF47A70B3FBF0F100FB1133C1E7D2B2AE
S11357D000A82E211154BCE76420B3FBF0F0303054
S11357E0D2B200A950546420B3FBF0F100FB113392
S11357F0AFE70A20B3FBF0F03030D2B200A9505426
S11358000A20B3FBF0F100FB1133A2E7A7E1DFF8B4
S113581094033100FEF786F901F090F803000022AA
S113582005E0D2B200A813F130011154521CD2B2D7
S1135830072A58DAD2B2002A09D0022A25D015D371
S1135840042A36D026D3062AEBD03FD3EEE7DFF87E
S11358507C03B3FBF0F03030D2B200A95054DFF82F
S11358606C03B3FBF0F100FB1133DFE742F210707D
S1135870B3FBF0F03030D2B200A9505442F21070B1
S1135880B3FBF0F100FB1133D0E7D2B200A82E2114
S11358901154CBE74FF47A70B3FBF0F03030D2B24E
S11358A000A950544FF47A70B3FBF0F100FB1133AC
S11358B0BCE76420B3FBF0F03030D2B200A95054FE
S11358C06420B3FBF0F100FB1133AFE70A20B3FB14
S11358D0F0F03030D2B200A950540A20B3FBF0F1FA
S11358E000FB1133A2E73AE1AD483100FEF71AF9A3
S11358F001F024F80300002205E0D2B200A813F15D
S113590030011154521CD2B2072A56DAD2B2002AFC
S113591009D0022A19D013D3042A34D024D3062A56
S1135920EBD03DD3EEE7A948B3FBF0F03030D2B270
S113593000A95054A548B3FBF0F100FB1133E1E793
S1135940D2B200A82E211154DCE742F21070B3FB4E
S1135950F0F03030D2B200A9505442F21070B3FBD0
S1135960F0F100FB1133CDE74FF47A70B3FBF0F0A4
S11359703030D2B200A950544FF47A70B3FBF0F136
S113598000FB1133BEE76420B3FBF0F03030D2B239
S113599000A950546420B3FBF0F100FB1133B1E7CC
S11359A00A20B3FBF0F03030D2B200A950540A20E0
S11359B0B3FBF0F100FB1133A4E7D0E07A483100E7
S11359C0FEF7B0F800F0BAFF0300002204E0D2B200
S11359D000A820211154521CD2B2072A3BDAD2B2B9
S11359E0002A09D0022A11D00BD3042A28D01AD3B2
S11359F0062AECD02AD3EEE7D2B200A83021115403
S1135A00E9E7D2B200A82E211154E4E76420B3FBE5
S1135A10F0F03030D2B200A950546420B3FBF0F15E
S1135A2000FB1133D7E70A20B3FBF0F03030D2B2D9
S1135A3000A950540A20B3FBF0F100FB1133CAE76C
S1135A40D2B200A813F130011154C4E7D2B200A8B5
S1135A5020211154BFE782E053483100FEF762F879
S1135A6000F06CFF0300002204E0D2B200A8202161
S1135A701154521CD2B2072A33DAD2B2002A09D006
S1135A80022A11D00BD3042A20D012D3062AECD038
S1135A9022D3EEE7D2B200A830211154E9E7D2B202
S1135AA000A82E211154E4E7D2B200A830211154E9
S1135AB0DFE70A20B3FBF0F03030D2B200A9505433
S1135AC00A20B3FBF0F100FB1133D2E7D2B200A8F5
S1135AD013F130011154CCE7D2B200A820211154A3
S1135AE0C7E73CE030483100FEF71CF800F026FF21
S1135AF00300002204E0D2B200A820211154521C59
S1135B00D2B2072A2BDAD2B2002A09D0022A11D043
S1135B100BD3042A18D012D3062AECD01AD3EEE7FA
S1135B20D2B200A830211154E9E7D2B200A82E2144
S1135B301154E4E7D2B200A830211154DFE7D2B205
S1135B4000A830211154DAE7D2B200A813F13001D1
S1135B501154D4E7D2B200A820211154CFE7002079
S1135B608DF8070000AA2900C9B22000C0B2FFF7CF
S1135B70F3FAF7BD388004404CB0044048B0044008
S1135B8044B0044040B0044094F00F40F8170100C2
S1135B9000007C42F01C01008096184B00247449DC
S1135BA00050C34700401C4600007A440000C8422D
S1135BB000002041CDCCCC3D0BD7233C6F12833A5F
S1135BC018B7D138ADC52737BE378635A086010052
S1135BD08096980040420F0080B5DFF8000C0078F2
S1135BE0002840F03784DFF8F40B4078002803D015
S1135BF0022821D00DD30EE20A220021DFF8E00BA7
S1135C00FEF74AFC05220021DFF8D80BFFF739FB29
S1135C1001E2DFF8D40B0078002806D1FF20FEF75C
S1135C207BFA0020FFF724FA05E00020FEF774FA5F
S1135C30FF20FFF71DFAEEE1DFF8A00B0079012841
S1135C4007D1FEF787FAFFF731FADFF8900B00214E
S1135C500171DFF8980B90F89806002836D00128D7
S1135C6049D002285CD003286FD0042800F0828039
S1135C700B2800F094800C2800F0A6800D2800F07A
S1135C80B8800E2800F0CA80152800F0DC801628A1
S1135C9000F0EE801F2800F00081202800F012811F
S1135CA0292800F024812A2800F03681332800F0C6
S1135CB04881342800F05A813D2800F06C8147283F
S1135CC000F07E81512800F09081A3E1DFF8200BE1
S1135CD0009007237F2200210020FFF797FADFF8C6
S1135CE00C0B90F89806FDF7A9FC020004212D2066
S1135CF0FEF756FC8EE1DFF8FC0A009007237F22B2
S1135D0000210020FFF782FADFF8E00A90F89806F5
S1135D10FDF794FC020004212D20FEF741FC79E1FB
S1135D20DFF8D40A009007237F2200210020FFF728
S1135D306DFADFF8B80A90F89806FDF77FFC0200C8
S1135D4004212D20FEF72CFC64E1DFF8B00A00905A
S1135D5007237F2200210020FFF758FADFF88C0A7E
S1135D6090F89806FDF76AFC020004212D20FEF746
S1135D7017FC4FE1DFF8880A009007237F220021F7
S1135D800020FFF743FADFF8640A90F89806FDF75D
S1135D9055FC020004212D20FEF702FC3AE1DFF855
S1135DA0640A009007237F2200210020FFF72EFAC7
S1135DB0DFF8380A90F89806FDF740FC0200042149
S1135DC02D20FEF7EDFB25E1DFF83C0A00900723C8
S1135DD07F2200210020FFF719FADFF8100A90F85B
S1135DE09806FDF72BFC020004212D20FEF7D8FBBA
S1135DF010E1DFF8180A009007237F220021002019
S1135E00FFF704FADFF8E40990F89806FDF716FCAA
S1135E10020004212D20FEF7C3FBFBE0DFF8F009AC
S1135E20009007237F2200210020FFF7EFF9DFF81D
S1135E30BC0990F89806FDF701FC020004212D200E
S1135E40FEF7AEFBE6E0DFF8CC09009007237F22E3
S1135E5000210020FFF7DAF9DFF8900990F898069E
S1135E60FDF7ECFB020004212D20FEF799FBD1E0A5
S1135E70DFF8A409009007237F2200210020FFF708
S1135E80C5F9DFF8680990F89806FDF7D7FB02001A
S1135E9004212D20FEF784FBBCE0DFF8800900908C
S1135EA007237F2200210020FFF7B0F9DFF83C0927
S1135EB090F89806FDF7C2FB020004212D20FEF79E
S1135EC06FFBA7E0DFF85809009007237F22002129
S1135ED00020FFF79BF9DFF8140990F89806FDF706
S1135EE0ADFB020004212D20FEF75AFB92E0DFF8FF
S1135EF03409009007237F2200210020FFF786F950
S1135F00DFF8E80890F89806FDF798FB02000421F2
S1135F102D20FEF745FB7DE0DFF80C0900900723F8
S1135F207F2200210020FFF771F9DFF8C00890F804
S1135F309806FDF783FB020004212D20FEF730FBB9
S1135F4068E0DFF8E808009007237F2200210020A2
S1135F50FFF75CF9DFF8940890F89806FDF76EFBFC
S1135F60020004212D20FEF71BFB53E0DFF8C008DC
S1135F70009007237F2200210020FFF747F9DFF874
S1135F806C0890F89806FDF759FB020004212D20B7
S1135F90FEF706FB3EE0DFF89C08009007237F2213
S1135FA000210020FFF732F9DFF8400890F8980646
S1135FB0FDF744FB020004212D20FEF7F1FA29E04D
S1135FC0DFF87408009007237F2200210020FFF7E8
S1135FD01DF9DFF8180890F89806FDF72FFB02006A
S1135FE004212D20FEF7DCFA14E0DFF850080090BD
S1135FF007237F2200210020FFF708F9DFF8EC07D0
S113600090F89806FDF71AFB020004212D20FEF7F4
S1136010C7FAFFE7FFE7DFF8C4078078002805D058
S1136020022800F01582C0F0188112E2DFF810286F
S113603002210020FEF7B8F9DFF8A407B0F88200C7
S1136040FDF7FCFA020002213C20FEF7A9FADFF872
S1136050F42703210020FEF7A7F9DFF8840790F85E
S11360608100FDF7EBFA020003212820FEF798FADD
S1136070DFF86C0790F88000FDF7E0FA02000321D6
S11360805520FEF78DFADFF8C02704210020FEF723
S11360908BF9DFF84C0790F88400FDF7CFFA020083
