S01300005368756E416E5F506F65742E73726563CD
S1130000F8FF00201104000097DB000097DB0000DC
S113001097DB000097DB000097DB000097DB000014
S113002097DB000097DB000097DB000097DB000004
S113003097DB000097DB000097DB000097DB0000F4
S113004097DB000097DB000097DB000097DB0000E4
S1130400FFFFFFFFFFFFFFFFFFFFFFFFFEFFFFFFF9
S11304104FF000004FF000014FF000024FF00003D6
S11304204FF000044FF000054FF000064FF00007B6
S11304304FF000084FF000094FF0000A4FF0000B96
S11304404FF0000C62B6DFF81000016841F470014F
S113045001600DF025FBFEE788ED00E080B5DFF8D4
S1130460F009006850F00100DFF8E4190860DFF8D3
S1130470E409C06F401CDFF8DC19C867DFF8D40951
S1130480DFF8D019C979817104F0CFFADFF8C41903
S1130490C871DFF8C4090068002803D0DFF8B80980
S11304A000688047DFF8AC09C06F0521B0FBF1F2AA
S11304B001FB1200002840F0E780DFF89809DFF81C
S11304C09419098E8186DFF88C09DFF88819498E22
S11304D0C186DFF8880904F042FCDFF87819088641
S11304E0DFF87C0904F03BFC4042DFF868194886D9
S11304F005F0BEF9DFF85C190885DFF85809807B40
S1130500002840F0C180DFF85C090068DFF8441976
S11305108969884280F0B880DFF83809C069DFF85B
S113052044190968884280F0AF80DFF82809008DFB
S113053005F0B0F9DFF81C198881DFF81809B0F963
S1130540200000EE100AB8EEC00ADFED500A30EECB
S1130550200ADFED4F0A80EE200AB5EE400AF1EEE4
S113056010FA10D5DFF8EC08B0F9200000EE100AFC
S1130570B8EEC00ADFED450A30EE200ADFED430A8B
S113058080EE200A0FE0DFF8CC08B0F9200000EE7E
S1130590100AB8EEC00ADFED3D0A30EE200ADFEDA6
S11305A03C0A80EE200ADFED3A0A20EE200AF3EE40
S11305B0090AB4EE600AF1EE10FA24D5DFF89408C3
S11305C00088DFF890184988401A7FF0180190FBE2
S11305D0F1F000EE900AF8EEE00ADFF878084088BF
S11305E001EE100AB8EE411AF3EE091A00EEE11A10
S11305F000EE801ABDEEC10A10EE100ADFF854189E
S1130600A1F86C0023E0DFF84C084088DFF84418B8
S11306108988401A7FF04A0190FBF1F000EE900ABD
S1130620F8EEE00ADFF82C08808801EE100AB8EE34
S1130630411ADFED171A00EEE11A00EE801ABDEE42
S1130640C10A10EE100ADFF80C18A1F86C00DFF8EC
S1130650040890F88400142805D0DFF80C0890F8FA
S1130660E001012806D1DFF8EC07DFF8E8178988F4
S1130670A0F86C10DFF8DC07B0F96C0000B2DFF80A
S1130680D417D1F8DC10884701BD00000000C8C2AF
S11306900000C84230B585B0040000208DF8020087
S11306A000208DF801001F208DF8000000208DF837
S11306B00E003F208DF80D0000208DF80C00002066
S11306C08DF80A0000208DF8090000208DF808003C
S11306D01F208DF8060000208DF8050000208DF8FD
S11306E00400DFF8840790F8E15173E0EDB2DFF81D
S11306F07807281890F81C01FF280ED001AA2900B9
S1130700C9B2EDB2DFF86007281890F81C01022383
S113071090FBF3F0C0B205F0EEFCEDB2DFF8480751
S1130720281890F8E000FF280ED003AA2900C9B2C7
S1130730EDB2DFF83407281890F8E000022390FBAC
S1130740F3F0C0B205F0D7FCEDB2DFF81C072818AF
S113075090F86800FF280ED001AA2900C9B2EDB2B2
S1130760DFF80407281890F86800022390FBF3F0E0
S1130770C0B205F0C0FCEDB2DFF8EC06281890F822
S11307802C00FF280ED003AA2900C9B2EDB2DFF86D
S1130790D806281890F82C00022390FBF3F0C0B27E
S11307A005F0A9FCEDB2DFF8C006281890F8A40003
S11307B0FF280ED000AA2900C9B2EDB2DFF8A806BE
S11307C0281890F8A400022390FBF3F0C0B205F0BF
S11307D092FC6D1CDFF8900690F8E201EDB28542C0
S11307E084D3E4B2012C00F0F28000240DE000AACE
S11307F02100C9B2DFF8700690F8D401022390FBFF
S1130800F3F0C0B205F077FC641CE4B25A2C10DAA1
S1130810E4B22D2CEBDA01AA2100C9B2DFF84806B4
S113082090F8D401022390FBF3F0C0B205F063FC0E
S1130830EAE7002409E002AADFF82C0690F8D111B7
S11308402000C0B205F057FC641CE4B23C2CF2DB7F
S1130850DFF8140690F82902FF280ED0002409E0DE
S113086000AADFF8040690F829122000C0B205F0AF
S113087042FC641CE4B2602CF2DBDFF8EC05807A05
S1130880FF280DD0002408E000AADFF8DC05817AF7
S11308902000C0B205F02FFC641CE4B2602CF3DB32
S11308A0DFF8C405407AFF280DD0002408E000AA30
S11308B0DFF8B405417A2000C0B205F01CFC641CCA
S11308C0E4B2602CF3DBDFF8A005007EFF280DD036
S11308D0002408E001AADFF89005C17D2000C0B221
S11308E005F009FC641CE4B2602CF3DBDFF8780546
S11308F0C07DFF280DD0002408E001AADFF86805B8
S1130900017E2000C0B205F0F6FB641CE4B2602C4A
S1130910F3DBDFF8540590F82802FF2812D00024F6
S11309200DE002AA2100C9B2DFF83C0590F82802C4
S1130930022390FBF3F0C0B205F0DDFB641CE4B2CB
S11309403C2CEEDB00240BE003AA2100C9B22800F2
S1130950C0B205F0D0FB6D1CEDB2602DF4DB641C5D
S1130960E4B23C2C33DAE4B2DFF8FC04201890F84B
S1130970E4014B280CD1002507E002AA2100C9B2EA
S11309802800C0B205F0B7FB6D1CEDB2602DF4DB9E
S1130990E4B2DFF8D404201890F8E40157280CD10D
S11309A0002507E000AA2100C9B22800C0B205F062
S11309B0A2FB6D1CEDB2602DF4DBE4B2DFF8A804F9
S11309C0201890F8E4014228C9D10025C4E705B0F5
S11309D030BD0000F0B4CAB0002213E0DBB2D2B2E2
S11309E0242402AD04FB0254DBB2D2B2242505FB5D
S11309F0020555F8235044F823505B1CDBB2092B45
S1130A00ECDB521CD2B2082A01DA0023F6E700A874
S1130A10DFF8582418CA18C0083A08380020002201
S1130A2000231A0001E0401C521CD2B2092A07DA42
S1130A30D2B2082A06D1C0B2082801D04620EDE17E
S1130A40401E75E104001300D2B2C0B2242502AEE8
S1130A5005FB006515EB820595ED000AB5EE400A2D
S1130A60F1EE10FA0CD5D2B2C0B2242502AE05FBC9
S1130A70006515EB820595ED000AB1EE400A09E028
S1130A80D2B2C0B2242502AE05FB006555F822504F
S1130A9000EE105A250000E06D1CEDB2082D5BDA63
S1130AA01E000CE0F6B2EDB2242302AC03FB0543B6
S1130AB053F8263000EE103A2C003300761CF6B2C0
S1130AC0082EE9DAF6B2EDB224270DF1080C07FB83
S1130AD005C717EB8607D7ED000AF5EE400AF1EEDD
S1130AE010FA0DD5F6B2EDB224270DF1080C07FB70
S1130AF005C717EB8607D7ED000AF1EE600A0AE096
S1130B00F6B2EDB224270DF1080C07FB05C757F820
S1130B10267000EE907AB4EE600AF1EE10FACDD5AC
S1130B20F6B2EDB2242302AC03FB054313EB8603B8
S1130B3093ED000AB5EE400AF1EE10FAB2D5F6B222
S1130B40EDB2242302AC03FB054313EB860393EDC0
S1130B50000AB1EE400AAFE7B5EE400AF1EE10FA32
S1130B606CD0C0B2E4B2A04268D0D2B2DBB29A4236
S1130B7064D09FEDB60A002525E0EDB2C0B224266C
S1130B8002AF06FB007656F8256000EE106AEDB25F
S1130B90C0B2242602AF06FB0076EDB2E4B22427ED
S1130BA00DF1080C07FB04C757F8257046F82570AB
S1130BB0EDB2E4B2242602AF06FB047616EB8506FA
S1130BC086ED000A6D1CEDB2092DD6DB002424E06D
S1130BD0D2B2E4B2242502AE05FB046555F82250D6
S1130BE000EE105AD2B2E4B2242502AE05FB04652D
S1130BF0DBB2E4B2242602AF06FB047656F8236087
S1130C0045F82260DBB2E4B2242502AE05FB04659C
S1130C1015EB830585ED000A641CE4B2082CD7DBD0
S1130C200024D2B200AD555D2C00D2B200ADDBB2CF
S1130C3000AE9E5D5655DBB200AD5C55D2B2C0B27B
S1130C40242302AC03FB004313EB820393ED000A5D
S1130C50B5EE400AF1EE10FA3FF4E6AED2B2C0B2FD
S1130C60242302AC03FB004353F8223000EE103A75
S1130C70130016E0DBB2C0B2242402AD04FB00541E
S1130C8014EB8304DBB2C0B2242502AE05FB00657D
S1130C9015EB8305D5ED000AC0EE800AC4ED000A09
S1130CA05B1CDBB2092BE5DB431C24E0E4B2DBB2C2
S1130CB0242502AE05FB036515EB8405E4B2C0B23E
S1130CC0242602AF06FB007616EB8406D6ED000A56
S1130CD0E4B2DBB2242602AF06FB037616EB8406ED
S1130CE096ED001A00EE601A85ED001A641CE4B259
S1130CF0092CDBDB5B1CDBB2082BBFF694AED2B253
S1130D00DBB2242402AD04FB035414EB820494EDFF
S1130D10000AD2B2C0B2242402AD04FB005414EB86
S1130D208204D4ED000A80EE200A1400DFE7401E9E
S1130D3040B2002860D40823002201E0521C5B1E4C
S1130D40DBB2002B0ED0D2B240B2242402AD10FB91
S1130D50045414EB820494ED000AB5EE400AF1EE5B
S1130D6010FAEBD0DBB2002BE1D0002324E0E4B294
S1130D70DBB2242502AE05FB036515EB8405E4B262
S1130D8040B2242602AF10FB067616EB8406D6ED9D
S1130D90000AE4B2DBB2242602AF06FB037616EBAC
S1130DA0840696ED001A00EE601A85ED001A641CA4
S1130DB0E4B2092CDBDB5B1C1C00E4B205006DB261
S1130DC024B22DB2AC42B2DAD2B2DBB2242402ADE8
S1130DD004FB035414EB820494ED000AD2B240B233
S1130DE0242402AD10FB045414EB8204D4ED000A55
S1130DF080EE200A1400DBE700200BE0C0B200AA5A
S1130E00825CC0B2242302AC03FB00431B6A41F89A
S1130E102230401CC0B20828F0DB54204AB0F0BC99
S1130E207047134A4264134A8264134AC264134AE1
S1130E300265134A4265134A8265134AC265134A1E
S1130E4002665C2081F8D4017047000000000000B5
S1130E501C710340E404FF1F7CFAFF1F0090034051
S1130E6000800B40BC04FF1FC405FF1F1CED0000E5
S1130E7009C2553E09E191BEA0E08F4016008032C0
S1130E80CE8A0C3F3E3300C1070020B0AB8E41BC7C
S1130E902DE9F84F2DED028BB4B0002200208DF81F
S1130EA0230000208DF80D0000208DF82200002082
S1130EB02E218DF821102E218DF80E1020218DF871
S1130EC02E105FF0200B202720218DF80C107321A9
S1130ED08DF8141000218DF8201000218DF80F10CA
S1130EE0FF218DF81510B821ADF816103C2103240C
S1130EF003238DF8093000238DF835300B008DF86D
S1130F003430DFF8983C93ED110ADFF8903CD3EDD0
S1130F10150ADFF8883C93ED161ADFF8803CD3ED10
S1130F20181AB3EE0E2A21EE822A82EE002A8DEDE3
S1130F30102AB3EE0E2A82EE000A8DED0F0ABBEEE4
S1130F400E0A21EE800A20EE210A8DED110A9FED92
S1130F505D0A21EE800A8DED120ADFF8443C1393FA
S1130F60B3EE0E0A21EE800A20EE210A8DED140A5A
S1130F70B3EE0E0A31EE000A20EE210A30EE600ACA
S1130F808DED150ABDF81630ADF82C3000238DF820
S1130F900830FF238DF80B3001238DF8283000230F
S1130FA08DF8293000238DF82A30DFF8F83B93F8C8
S1130FB0D461DFF8F03B93F8D45100238DF81B3053
S1130FC000238DF81A3000238DF8193000238DF892
S1130FD01830FF238DF8303000238DF83230002391
S1130FE08DF8333000238DF8103000238DF8123043
S1130FF000238DF8113000238DF813305FF0000AC0
S11310005FF0000900238DF8273000238DF8353078
S11310100B008DF83430002300E05B1C9BB289B2D6
S11310208B4225D29BB200EE103AF8EE400A9DEDB9
S1131030101A9DED0F0A00EE810AF2EE0E0AC0EEC0
S1131040200ABDF8160001EE100AB8EE411AB4EEFB
S1131050410AF1EE10FA02DB18008DF835009FED1D
S1131060DB0AF4EE400AF1EE10FAD6D58DF83430EE
S1131070DFF8300B9DF8351080F8D011DFF8240B21
S113108090F8D4615FF0FF3803208DF80A00DFF890
S11310900C0B0021C173DFF8040B00210174DFF88D
S11310A0FC0A00214174FF208DF81C00FF208DF8FC
S11310B01D000020ADF83A009DF834B09DF835705D
S11310C014E000BF000070C2C0B2DFF8D81A4118A3
S11310D0FFB2DFF8D02ABA1892F8A42081F8A4202D
S11310E0401CC0B2FFB2B842EED37F1C9DF834005E
S11310F0FFB2874280F0D384FF208DF81900FF20CF
S11311008DF81800FF208DF81B00FF208DF81A00C1
S113111018F10108FFB200EE107AB8EE400ADDEDD6
S1131120100A9DED0F1A00EE201ABDEEC10A10EE52
S1131130100AADF82C00FFB2DFF8680A10EB470084
S1131140BDF92C10A0F8581100200FFA88F8B8F156
S1131150010F64DBB6B2FFB2B921DFF84C2A01FB00
S11311600721715CB6B2FFB2B922DFF83C3A02FB48
S11311700732B21812F8B92C891A09B2002902D51B
S113118009B24A4200E00A001FFA8AFA12B29245F2
S11311900DDA1FFA89F912B2914508DA09B2002969
S11311A005D58DF8307001208DF8330001200FFA39
S11311B088F8B8F1020F28DBB6B2FFB2B921DFF824
S11311C0E82901FB0721715CB6B2FFB2B922DFF84E
S11311D0D83902FB0732B218B2F5B9721278891AFB
S11311E009B2002902D509B24A4200E00A00BDF85A
S11311F03A3012B2934208DA09B2002905D58DF8C3
S1131200307001208DF8330001201FFA89F91FFA8C
S11312108AFAD14501D2D146FFE7ADF83A905FF0A2
S113122000095FF0000A00210022FF235FF0000C98
S11312305FF0000E4EE01FFA8EFEFFB25FF0B909B8
S1131240DFF864A909FB07A91EF80990B9F1000F9A
S11312503ED01CF1010C1FFA8EFEFFB25FF0B909FB
S1131260DFF844A909FB07A91EF8099051FA89F18E
S11312701FFA8EFEFFB25FF0B909DFF82CA909FB53
S113128007A91EF80990D2B24A4509D21FFA8EFE68
S1131290FFB2B922DFF8109902FB07921EF8022070
S11312A01FFA8EFEFFB25FF0B909DFF8FCA809FB54
S11312B007A91EF80990DBB2994509D21FFA8EFEE0
S11312C0FFB2B923DFF8E09803FB07931EF803305D
S11312D01EF1010EBDF816901FFA8EFECE45AAD35C
S11312E05FFA8CFCB1FBFCF9B2EB030A5FFA8AFAF1
S11312F000EE10AAB8EE400ADFED350A20EE200A0F
S1131300BDEEC00A10EE10AA5FFA8AFA5FFA89F9F4
S113131000EE109AB8EE400ADFED2D0A20EE200A06
S1131320BDEEC00A10EE109A5FFA89F9BDF82C10D0
S113133000EE101AB8EE400ADFED260A20EE200A6D
S1131340F7EE040A20EE200AF0EE000A80EE200AEE
S1131350BDEEC00A10EE101A8A19731A1100BDF8F6
S113136016C0A4B2BCEB040C12B2944502DABDF868
S11313701610091B1A001BB2A4B2A34200DA220001
S11313809DF809301BB20FFA88F8434504DB221993
S1131390BDF81610091B091B9DF82730012B0CD131
S11313A09DF824300A2B03D1BDF81610091B091B24
S11313B09DF82430142B00D1221900238DF813300A
S11313C000238DF8113033000EE000BF0100803F90
S11313D0CDCCCC3EF4FDB43F9E468DF81AE05FF0D0
S11313E0010E8DF813E05B1CA4B204FA83FC89B2ED
S11313F08C453CDA1BB2FFB25FF0B90CDFF8A8E70A
S11314000CFB07EC13F80CC0CDF800C0A4B204FA2E
S113141083FCFFB25FF0B90BDFF88CE70BFB07EE40
S11314201CF80EE0DDF800C0BCEB0E0C0FFA8CFCCF
S1131430BCF1000F04D50FFA8CFCDCF1000E00E0C7
S1131440E6461FFA8AFA0FFA8EFEF245CBDA1FFA45
S113145089F90FFA8EFEF145C5DA0FFA8CFCBCF15E
S1131460010FB9DB8DF8183001218DF8111000211E
S11314708DF8121000218DF81010310006E00B00D9
S11314808DF81B3001238DF81230491E09B2A4B225
S11314900B1B92B2934232DB09B2FFB2B923DFF8DD
S11314A008C703FB07C3CB5C09B2A4B2B1EB040CBD
S11314B0FFB25FF0B90EDFF8F0B60EFB07BE1CF802
S11314C00EC0B3EB0C031BB2002B03D51BB2D3F13C
S11314D0000C00E09C461FFA8AFA0FFA8CFCE245E5
S11314E0D3DA1FFA89F90FFA8CFCE145CDDA1BB285
S11314F0012BC4DB8DF8191001218DF810100FFA9F
S113150088F8B8F1000F07D19DF81B108DF81C1056
S11315109DF81A108DF81D10C0B2012833D19DF822
S11315201A00FF285BD09DF81B00FF2857D09DF8B8
S11315301A009DF81B10401A05F03EF802000B003B
S1131540CDE90023FFB2DFF85C0610EB4700B0F9E9
S1131550580100EE100AB8EEC00AF2EE0E0A80EE50
S1131560200A10EE100A05F03FF8DFF8EC2BDFF844
S1131570EC3B05F071F8DDE9002305F043F92ED8C2
S11315808DF815700020FFB2DFF818063818FF2117
S113159080F8E010FFB2DFF80C063818FF2180F85D
S11315A01C119DF810009DF8111051FA80F00228CA
S11315B040F09682FFB216A81E21395400208DF8FF
S11315C008009DF819009DF8181051FA80F00221C6
S11315D090FBF1F502208DF80A0000F01BBC0FFA15
S11315E088F8B8F1010FC0F258829DF8270000284E
S11315F040F05382FFB216A8381810F8010C1E28C8
S113160040F04B82FFB2DFF89C05381890F8670071
S1131610FFB2DFF89015791891F82B10401A0028C2
S11316200DD5FFB2DFF87C05381890F82B00FFB217
S1131630DFF87015791891F86710401A0CE0FFB2C2
S1131640DFF86005381890F86700FFB2DFF854152A
S1131650791891F82B10401AFFB2DFF8481511EBF6
S11316604701B1F95611052291FBF2F18142C0F212
S1131670148248208DF81400FFB2DFF828053818CA
S113168090F8A300791EFF22C9B2DFF8183513EBD6
S11316904103B3F958315FF0020C93FBFCF353FAA6
S11316A080FC0FFA8CFCBCF1B30F01DB5FF0B20CD1
S11316B00FFA8CFCBCF1060F01DA5FF0060CC0B225
S11316C0030000E05B1C0FFA8CFCA4B204FA83FE56
S11316D0F4453CDB1BB2C9B25FF0B90EDFF8C8B405
S11316E00EFB01BE13F80EE0CDF804E0A4B204FA38
S11316F083FECDF800E0C9B25FF0B90BDFF8A8E4CF
S11317000BFB01EEDDF800B01BF80EE0DDF804B0D1
S1131710BBEB0E0E0FFA8EFEBEF1000F04D50FFACE
S11317208EFEDEF1000B00E0F3461FFA8AFA0FFA90
S11317308BFBDA45C6DA1FFA89F90FFA8BFBD94518
S1131740C0DA0FFA8EFEBEF1000FBBD5E218FF23FC
S1131750C0B2C9B2DFF84CC41CEB410CBCF958C18F
S11317605FF0020E9CFBFEFCB0EB0C0EADF838E013
S1131770BDF938C0BCF1B30F01DB5FF0B20CBDF9A9
S113178038C0BCF1060F01DA5FF0060CC0B2844623
S113179001E0BCF1010C0FFA8CFCA4B2BCEB040E0A
S11317A0BDF938B0DE4540DB0FFA8CFCC9B25FF0FE
S11317B0B90EDFF8F4B30EFB01BE1CF80EE0CDF851
S11317C004E00FFA8CFCA4B2BCEB040ECDF800E0EC
S11317D0C9B25FF0B90BDFF8D0E30BFB01EEDDF823
S11317E000B01BF80EE0DDF804B0BBEB0E0E0FFAF0
S11317F08EFEBEF1000F04D50FFA8EFEDEF1000B53
S113180000E0F3461FFA8AFA0FFA8BFBDA45C0DAD6
S11318101FFA89F90FFA8BFBD945BADA0FFA8EFE53
S1131820BEF1000FB5D5BCEB0403C9B2DFF874C335
S113183011EB0C0C9CF82CC0DBB263450AD3C9B283
S1131840DFF860C311EB0C0C9CF82CC0BCF1FF0F4B
S113185000D0FF23C9B2DFF84CC311EB0C0C9CF889
S113186068C0D2B2944509D3C9B2DFF838C311EBCA
S11318700C0191F86810FF2900D0FF22DFF89C1DAD
S113188081F88330DFF8941D81F884203221D2B2AC
S1131890C0B2B2EB000CBCF1000F04D5C0B2D2B29E
S11318A0B0EB020C03E0D2B2C0B2B2EB000CDBB27C
S11318B0C0B2B3EB000EBEF1000F04D5C0B2DBB270
S11318C0B0EB030E03E0DBB2C0B2B3EB000EF445A1
S11318D004DA1000C0B2FF2800D01421DBB2C0B279
S11318E0B3EB000CBCF1000F04D5C0B2DBB2B0EB1B
S11318F0030C03E0DBB2C0B2B3EB000CD2B2C0B253
S1131900B2EB000EBEF1000F03D5C0B2D2B2801A02
S113191002E0D2B2C0B2101A844504DA1800C0B290
S1131920FF2800D00A21C9B2322929D13221FFB2BD
S1131930B81F00B2002800D500200023FFB27A1E91
S113194012E012B2DFF85CC212EB0C0C9CF8A4C0DB
S113195053FA8CF312B2DFF84CC212EB0C0C9CF865
S1131960A3C0B3EB0C03521E00B212B29042E8DBE8
S11319701BB2002B00D514211BB2012B00DB0A2162
S1131980DFF8980CC170FF20C9B2142906D10220D7
S11319908DF822004A208DF8140008E0C9B20A2903
S11319A005D101208DF822006A208DF814008DF8ED
S11319B026708DF8241001208DF827009DF824004E
S11319C00A2833D130008DF81800B6B2300004F084
S11319D0FDFDCDE90001FFB2724810EB4700B0F9FC
S11319E0580104F0E9FDDFF8382CDFF8383C04F046
S11319F033FE02000B00DDE9000104F01BFF04F0DC
S1131A00D9FF0600FFB2032F09DBFFB2654838187F
S1131A1080F8A360FFB26348381880F8A260002001
S1131A208DF8100001208DF8110034E09DF8240099
S1131A30142830D130008DF81900B6B2300004F00B
S1131A40C5FDCDE90001FFB2564810EB4700B0F9DF
S1131A50580104F0B1FDDFF8C82BDFF8C83B04F0EF
S1131A60FBFDDDE9002304F0D1FF04F0A3FF060031
S1131A70FFB2032F09DBFFB24A48381880F8A3608D
S1131A80FFB24848381880F8A26001208DF8100091
S1131A9000208DF81100002075E59DF830B09DF808
S1131AA02700012840F00B853E4890F8E00100280B
S1131AB040F005853B480079002840F0008500216E
S1131AC0002301209DF826200A325FFA8BFBD2B254
S1131AD0934500D25A46334890F8D00100F040BCF8
S1131AE09DF81000012804D09DF81100012840F051
S1131AF0C78000208DF808009DF81000012855D1FA
S1131B00FFB216A80A2139549DF8190000EE100AF4
S1131B10B8EE400ABDF82C0000EE900AF8EE600A18
S1131B209FEDD11A00EE810ABDEEC00A10EE105AE4
S1131B302DB2B6B2B54216DA0FFA88F8B8F1030F2F
S1131B4011DBFFB21748381890F8A300FFB215490B
S1131B50791891F8A21051FA80F0FFB2114979185E
S1131B6091F8A110451A9DF809000FFA88F800B2FF
S1131B7080456DDA0FFA88F8B8F1010F68DBFFB21F
S1131B800848381890F8A3002DB200B285425FDAF5
S1131B90FFB20448381890F8A35059E0E404FF1F3A
S1131BA00000F0C1C405FF1F9CCEFF1FFFB216A8A2
S1131BB0142139549DF8180000EE100AB8EE400ABA
S1131BC0BDF82C0000EE900AF8EE600A9FEDA61A0C
S1131BD000EEC10ABDEEC00A10EE105AB6B22DB224
S1131BE0AE4219DA0FFA88F8B8F1030F14DBFFB22A
S1131BF0DFF8340A381890F8A300FFB2DFF8281A87
S1131C00791891F8A21051FA80F0FFB2DFF8181A8F
S1131C10791891F8A110451A9DF809000FFA88F86F
S1131C2000B2804514DA0FFA88F8B8F1010F0FDB1F
S1131C30FFB2DFF8F409381890F8A30000B22DB20F
S1131C40A84205DAFFB2DFF8E009381890F8A3508B
S1131C509DF80A00022810D10FFA88F8B8F1030F92
S1131C600BDBFFB2DFF8C009381880F8A350FFB2CD
S1131C70DFF8B409381880F8A25001208DF80A0062
S1131C809DF81000002840F0C5809DF81100002840
S1131C9040F0C0809DF81A00FF282DD09DF81B004D
S1131CA0FF2829D09DF81A009DF81B10401A04F053
S1131CB083FC02000B00CDE90023FFB2DFF86809C2
S1131CC010EB4700B0F9580100EE100AB8EEC00A54
S1131CD0F2EE0E0A80EE200A10EE100A04F084FCE4
S1131CE0DFF87424DFF8743404F0B6FCDDE9002373
S1131CF004F088FD40F28E80FFB216A828213954E2
S1131D009DF809000FFA88F800B280450BDA9DF8B7
S1131D10080000B20FFA88F8404504D1DFF808093A
S1131D2090F8D45100E035000FFA88F8B8F1040FA8
S1131D3026DBFFB2DFF8F008381890F8A300FFB2F2
S1131D40DFF8E418791891F8A310FFB2DFF8D82867
S1131D50BA1892F8A220891AFFB2DFF8CC28BA1870
S1131D6092F8A22051FA82F1FFB2DFF8BC28BA1827
S1131D7092F8A120891A022291FBF2F151FA80F51E
S1131D809DF80800401C8DF808009DF80800012803
S1131D9031D1FFB200EE107AB8EE400ADDED110A3F
S1131DA020EE200AFFB200EE907AF8EE600A20EEF0
S1131DB0200AFFB200EE907AF8EE600A9DED121A46
S1131DC000EE810ADDED130A30EE200AFFB200EEC8
S1131DD0907AB8EE601ADDED141ADDED150A41EEC5
S1131DE0210A80EE200ABDEEC00A10EE100A8DF81A
S1131DF00B008DF82A709DF80B00022190FBF1F086
S1131E009DF80810884202DA00208DF8280000208E
S1131E108DF80A009DF81A00FF2843D09DF81B0096
S1131E20FF283FD09DF81A009DF81B10401A04F0BB
S1131E30C3FB02000B00CDE90023FFB2DFF8E80783
S1131E4010EB4700B0F9580100EE100AB8EEC00AD2
S1131E50F2EE0E0A80EE200A10EE100A04F0C4FB23
S1131E60BD4ABE4B02E000BF6666E63E04F0F4FBEA
S1131E70DDE9002304F0C6FC14D800208DF8080026
S1131E80FFB216A83C21395401208DF80F009DF8AB
S1131E901A009DF81B1051FA80F0022190FBF1F515
S1131EA08DF815709DF82800002840F0C0809DF83A
S1131EB00800002840F0BB80DFF86C0790F8D001E0
S1131EC09DF82A10884255D001208DF82800FF2063
S1131ED08DF80B0001208DF82000FFB29DF82A0038
S1131EE0381A401C00EE100AB8EEC00AFFB2DFF840
S1131EF03807381890F8A4009DF82A10DFF828272E
S1131F00891891F8A310401A00EE900AF8EEE00A3E
S1131F1080EE800A9DF82A00DFF80C17401890F82C
S1131F20A30000EE900AF8EE600A9DF82A00401E15
S1131F3001EE100AB8EEC11A41EE400A9DF82A00DB
S1131F40401EC0B2FFB2B84271D2C0B201EE100A54
S1131F50B8EE411AF0EE601A41EE001ABDEEE11A35
S1131F6011EE101AC0B2DFF8C026821882F8A4104D
S1131F70401CE6E701208DF82800FF208DF80B00B7
S1131F8001208DF82000FFB2DFF89C0690F8D00104
S1131F90381A00EE100AB8EEC00AFFB2DFF888065D
S1131FA0381890F8A400DFF8801691F8D011DFF803
S1131FB07826891891F8A410401A00EE900AF8EED9
S1131FC0E00A80EE800ADFF8600690F8D001DFF8BE
S1131FD05816401890F8A40000EE900AF8EE600A33
S1131FE0DFF8440690F8D00101EE100AB8EE411A69
S1131FF041EE400ADFF8300690F8D00113E0C0B299
S113200001EE100AB8EE411AF0EE601A41EE001A21
S1132010BDEEE11A11EE101AC0B2DFF80C268218D8
S113202082F8A410401CC0B2FFB2B842E7D39DF8B6
S11320301800FF2850D0FF209DF81810FFB2DFF8D9
S1132040E82512EB4702B2F95821052392FBF3F27B
S113205052FA81F109B2B62900DBB52109B203298C
S113206000DA03219DF8182000E0521C09B2A4B242
S113207004FA82F3994229DB12B2FFB2B923DFF8E2
S1132080AC6503FB0763D35CA4B204FA82F6FFB227
S11320905FF0B90CDFF894E50CFB07EC16F80C6064
S11320A09B1B1BB2002B02D51BB25E4200E01E003C
S11320B01FFA8AFA36B2B245D7DA1FFA89F936B26C
S11320C0B145D2DA1BB2002BCFD5A018FFB2DFF88E
S11320D05815791881F81C019DF81900FF2854D06F
S11320E0FF209DF81910FFB2DFF83C2512EB4702E0
S11320F0B2F95821052392FBF3F2891A09B2B629E1
S113210000DBB52109B2032900DA03219DF8192067
S113211000E0521E12B2A4B2131B09B28B422EDB92
S113212012B2FFB2B923DFF8046503FB0763D35C83
S113213012B2A4B2161BFFB25FF0B90CDFF8ECE4E4
S11321400CFB07EC16F80C609B1B1BB2002B07D58D
S11321501BB25E4205E000BF39B4C876BE9FF63FAD
S11321601E001FFA8AFA36B2B245D2DA1FFA89F98A
S113217036B2B145CDDA1BB2002BCAD5101BFFB263
S1132180DFF8A414791881F8E000BDF81600A4B2B1
S1132190B0EB44002DB2A84204DABDF81600A4B294
S11321A0B0EB44052DB2A4B2B5EB440F01DA24B26E
S11321B06500FFB2DFF87004381880F8A450FFB24D
S11321C0DFF8640438189DF8191080F82C10FFB259
S11321D0DFF8540438189DF8181080F86810BB46CE
S11321E02E009DF8320001287EF47FAF00208DF888
S11321F032000020FEF775BF9DF82430142B40F008
S1132200AE80C0B2DFF82034C31893F82C30FF2B13
S113221000F0A580C0B2DFF81034C31893F82C3056
S113222000EE103AB8EE400AC0B2DFF8FC3313EB0C
S11322304003B3F9583100EE903AF8EEE00A9FED0E
S11322405C1A00EE810ABDEEC00A10EE103A1BB211
S113225009B28B421CDADFF8D01391F8D011891C33
S1132260C0B2814214DAC0B2DFF8BC13411891F84D
S1132270A310C0B2DFF8B033C31893F8A23053FAF6
S113228081F1C0B2DFF8A033C31893F8A130CB1AA0
S11322909DF809100FFA88F809B2884516DADFF8B4
S11322A0881391F8D011C0B281420FD2C0B2DFF8C6
S11322B07813411891F8A3101BB209B28B4205DAC6
S11322C0C0B2DFF86413411891F8A3309DF82610CA
S11322D0C0B2814235D2C0B2D2B2904231D2C0B281
S11322E003282EDBC0B2D049411891F82D10C0B29A
S11322F0CD4C041994F82C40A14222D2C0B2032838
S11323001FDBC0B2C849411891F82C10FF2918D01E
S1132310C0B2C549411891F82D10FF2911D0C0B29F
S1132320C149411891F8A310C0B2BF4BC31893F828
S1132330A23053FA81F1C0B2BB4BC31893F8A13059
S1132340CB1A1BB2B62B00DBB5231BB2032B00DA6E
S113235003231900C0B2B44BC31883F8A410401C63
S1132360C0B25FFA8BFB584580F0A9809DF82430F9
S11323700A2B7FF441AFC0B2AB4BC31893F868305B
S1132380FF2BECD0C0B2A84BC31893F8683000EE12
S1132390103AB8EE400AC0B2A34B13EB4003B3F9B2
S11323A0583100EE903AF8EEE00A9FED011A01E090
S11323B06666E63E00EEC10ABDEEC00A10EE103AB3
S11323C009B21BB2994218DA974991F8D011891CC5
S11323D0C0B2814211DAC0B29349411891F8A310F6
S11323E0C0B2914BC31893F8A23053FA81F1C0B232
S11323F08D4BC31893F8A130CB1A9DF809100FFA2E
S113240088F809B2884513DA874991F8D011C0B227
S113241081420DD2C0B28449411891F8A3101BB275
S113242009B28B4204DAC0B27F49411891F8A33053
S11324309DF82610C0B2814232D2C0B2D2B29042CC
S11324402ED2C0B203282BDBC0B27749411891F8D1
S11324506810C0B2744C041994F86940A1421FD2A8
S1132460C0B27149411891F86810FF2918D0C0B260
S11324706D49411891F86910FF2911D0C0B26A4919
S1132480411891F8A310C0B2674BC31893F8A23057
S113249053FA81F1C0B2644BC31893F8A130CB1A3C
S11324A01BB2B62B00DBB5231BB2032B00DA0323CC
S11324B01900C0B25C4BC31883F8A4104FE7002185
S11324C000245648002202705FF0000A00208DF8B4
S11324D000000022544890F8D451002700205FF0F7
S11324E0FF384FF0FF0900235FF0000C4FF0FF0EA0
S11324F04D4E96F8D0610AE0F6B24B48301890F889
S1132500A450F6B24848301880F8A450761CF6B2AD
S11325105FFA8BFB5E4580F0F081434890F8D00170
S1132520F6B2B04200F08680F6B23F48301890F818
S1132530A30004F04BF8CDE90001F6B23A4810EBE1
S11325404600B0F9580104F037F85FF03332DFF891
S11325503C3D04F081F802000B00DDE9000104F0C9
S113256069F904F027FA0700F6B22F48301890F8FA
S1132570A30004F02BF8CDE90001F6B22A4810EBD1
S11325804600B0F9580104F017F85FF03332DFF871
S1132590FC3C04F061F8DDE9002304F037FA04F0B0
S11325A009FAF6B22049711891F8A410F6B21E4A3D
S11325B0B21892F8A320891A00290BD5F6B21A4949
S11325C0711891F8A310F6B2174AB21892F8A42021
S11325D0891A0AE0F6B21449711891F8A410F6B2F7
S11325E0114AB21892F8A320891AF6B20E4A12EBD5
S11325F04602B2F95821042392FBF3F291421BDB09
S1132600F6B20949711891F8A410F6B2064AB21844
S113261092F8A32091420BD2B5200DE0F407FF1FDE
S1132620CDCCCCCCCCCCDC3FC405FF1F9CCEFF1F53
S1132630032701E00327B5203FB2B62F00DBB527FF
S11326403FB2032F00DA032700B2B62800DBB5201F
S113265000B2032800DA0320F6B2DFF8341C711844
S113266081F84570DFF82C1C91F8D011F6B2B14214
S11326700CD2F6B216A9715C282907D1F6B216A9B4
S1132680711811F8011CF6B216AAB154F6B2DFF8AB
S1132690041C711891F8A410F6B225AAB1540023B1
S11326A018F10108F6B2DFF8EC1B711891F8E0108C
S11326B0FF2940F0FB82F6B2DFF8D81B711891F8BD
S11326C01C11FF2940F0F282DFF8C81B91F8D011E9
S11326D0F6B2B14280F0EA824FFA88F8B8F1020FFC
S11326E0C0F24E814FFA88F8B8F1030F15DBF6B249
S11326F0DFF8A00B301890F8A300F6B2DFF8941BB3
S1132700711891F8A21051FA80F0F6B2DFF8841B28
S1132710711891F8A110401A05E0F6B2DFF8740BB5
S1132720301890F8A30000B2032800DA032000B2A6
S1132730B62800DBB52000B2F6B2DFF8581B7118DA
S113274091F8A410411A002908D5F6B2DFF8441B09
S1132750711891F8A41000B2081A07E000B2F6B29A
S1132760DFF8301B711891F8A410401AF6B2DFF8A4
S1132770241B11EB4601B1F95811092291FBF2F126
S1132780814280F28C829DF80F00012803D0E4B2CC
S1132790012C40F08482DFF8FC0A90F8D001F6B2F4
S11327A0311F884202DAF6B2301F04E0DFF8E40A8F
S11327B090F8D001401C16A9405C462800F08C809B
S11327C0DFF8D00A90F8D001F6B2311F884202DA5D
S11327D0F6B2301F04E0DFF8BC0A90F8D001401CC8
S11327E016A9405C3C2877D0DFF8A80A90F8D001FD
S11327F0F6B2F11E884202DAF6B2F01E04E0DFF807
S1132800940A90F8D001401C16A9405C462863D075
S1132810DFF8800A90F8D001F6B2F11E884202DA9D
S1132820F6B2F01E04E0DFF86C0A90F8D001401C08
S113283016A9405C3C284FD0DFF8580A90F8D00124
S1132840F6B2B11E884202DAF6B2B01E04E0DFF836
S1132850440A90F8D001401C16A9405C46283BD09D
S1132860DFF8300A90F8D001F6B2B11E884202DADD
S1132870F6B2B01E04E0DFF81C0A90F8D001401C48
S113288016A9405C3C2827D0DFF8080A90F8D0014C
S1132890F6B2711E884202DAF6B2701E04E0DFF866
S11328A0F40990F8D001401C16A9405C462813D0C6
S11328B0DFF8E00990F8D001F6B2711E884202DA1E
S11328C0F6B2701E04E0DFF8CC0990F8D001401C89
S11328D016A9405C3C284FD1F6B2DFF8B409301891
S11328E0407A6430F6B2DFF8A81971184872DFF83C
S11328F0A00901210170B3460121DFF8980990F87D
S1132900D001DFF89019401890F8A400DFF884197A
S11329104871DFF8800990F8D001DFF87819401881
S113292090F8A500DFF86C198871DFF8680990F851
S1132930D001DFF86019401890F8E000FF2810D1AA
S1132940DFF8500990F8D001DFF84819401890F8E2
S11329501C01FF2805D15FFA8AFABAF1010F40F091
S1132960FF825FFA8BFBBBF10B0FC0F2F982DFF839
S113297024090121C171F6E201208DF823008EE1C2
S11329804FFA88F8B8F1000F40F0BB80DFF8040973
S1132990C079012840F0B580DFF8F80890F8D0013C
S11329A0DFF8F018401890F8A400DFF8E818497927
S11329B0401A00280DD5DFF8DC084079DFF8D41878
S11329C091F8D011DFF8CC28891891F8A410401A96
S11329D00CE0DFF8C00890F8D001DFF8B818401810
S11329E090F8A400DFF8AC184979401ADFF8A4186D
S11329F091F8D011DFF89C2812EB4101B1F958117C
S1132A00032291FBF2F181427BDADFF8880890F827
S1132A10D001DFF88018401890F82C00FF2825D04A
S1132A20DFF8700890F8D001DFF86818401890F8C3
S1132A306800FF2865D1DFF85C0890F8D001DFF862
S1132A4054184018DFF84C1891F8D011DFF84428D6
S1132A50891891F82C1080F8A41001240123F6B2EF
S1132A6016A8462131545FF0010A4AE0DFF8240831
S1132A7090F8D001DFF81C18401890F86800FF287F
S1132A801AD0DFF8100890F8D001DFF808184018C1
S1132A90DFF8001891F8D011DFF8F827891891F8B9
S1132AA0681080F8A41001240123F6B216A8462168
S1132AB031545FF0010A24E0DFF8D80790F8D00120
S1132AC0DFF8D017401890F8E000FF2819D1DFF89C
S1132AD0C40790F8D001DFF8BC17401890F81C0127
S1132AE0FF280ED1DFF8AC0790F8D001DFF8A41767
S1132AF04018DFF8A01791F8D41180F8A4105FF003
S1132B00010A4FFA88F8B8F1010F40F0C880DFF8E5
S1132B108407007A012840F0C280DFF8780790F833
S1132B20D001DFF87017401890F8A500DFF864179B
S1132B308979401A00280DD5DFF858078079DFF825
S1132B40541791F8D011DFF84C27891891F8A51083
S1132B50401A0CE0DFF83C0790F8D001DFF8341796
S1132B60401890F8A500DFF82C178979401ADFF88F
S1132B70241791F8D011DFF81C2712EB4101B1F9A9
S1132B805A11032291FBF2F1814280F28880DFF82E
S1132B90040790F8D001DFF8FC16401890F82D00D7
S1132BA0FF2829D0DFF8EC0690F8D001DFF8E4160E
S1132BB0401890F86900FF2871D1DFF8D80690F822
S1132BC0D001DFF8D0164018DFF8C81691F8D011FC
S1132BD0DFF8C026891891F82D1080F8A51001247B
S1132BE00123DFF8B00690F8D00116A94018462159
S1132BF041705FF0010A52E0DFF8980690F8D001C6
S1132C00DFF89016401890F86900FF281DD0DFF80F
S1132C10840690F8D001DFF87C164018DFF87416AB
S1132C2091F8D011DFF86C26891891F8691080F8B2
S1132C30A51001240123DFF85C0690F8D00116A941
S1132C40462242545FF0010A29E0DFF8480690F872
S1132C50D001DFF84016401890F8E100FF281ED19B
S1132C60DFF8300690F8D001DFF82816401890F805
S1132C701D01FF2813D1DFF81C0690F8D001DFF8FE
S1132C8014164018DFF80C1691F8D011DFF804265A
S1132C90891891F8A41080F8A5105FF0010AF6B223
S1132CA0DFF8F005301890F8A4502FE45FFA89F9A2
S1132CB0B9F1FF0F00D1B146002100220023190011
S1132CC000231A00F6B2DFF8CC35F31893F8E0309D
S1132CD0FF2B25D0F6B2DFF8BC35F31893F8E030BB
S1132CE01BB23FB2BB421BDBF6B2DFF8A835F318C8
S1132CF093F8E03000B21BB2984211DB0121F6B226
S1132D00DFF89035F31893F82C30F6B2DFF88455D9
S1132D10751995F8E05055FA83F3022593FBF5F500
S1132D20F6B2DFF87035F31893F81C31FF2B25D079
S1132D30F6B2DFF86035F31893F81C311BB23FB2DA
S1132D40BB421BDBF6B2DFF84C35F31893F81C31A9
S1132D5000B21BB2984211DB0122F6B2DFF834054F
S1132D60301890F86800F6B2DFF82835F31893F8B5
S1132D701C3153FA80F0022390FBF3F5D2B252FADD
S1132D8081F001280AD144208DF821000124012377
S1132D90F6B216A846213154FFF7B3BB4E208DF886
S1132DA02100F6B2DFF8EC04301890F8E000FF28B8
S1132DB03FF4A2ABF6B2DFF8DC04301890F81C0143
S1132DC0FF283FF499ABF6B2DFF8C804301890F846
S1132DD02C00F6B2DFF8BC14711891F8681051FA9F
S1132DE080F0022190FBF1F5F6B2DFF8A804301868
S1132DF090F8A400DFF89C1491F8D41151FA80F0F3
S1132E00022190FBF1F7F6B2DFF88804301890F84D
S1132E106800F6B2DFF87C14711891F82C10401A8F
S1132E2003F0CAFB02000B00CDE90023F6B2DFF881
S1132E30640410EB4600B0F9580103F0BDFBDFF861
S1132E400027DFF8003703F007FCDDE9002303F077
S1132E50D9FC43D8F6B2DFF83C04301890F8680087
S1132E60FFB2C01BF6B2DFF82C14711891F82C10C5
S1132E70FFB2C91B884218DA01240123F6B216A84E
S1132E8046213154F6B2DFF80C04301890F868008B
S1132E90F6B2DFF80014711891F81C1151FA80F0A1
S1132EA0022190FBF1F5FFF72CBB01240123F6B2BC
S1132EB016A846213154F6B2DFF8D803301890F83A
S1132EC02C00F6B2DFF8CC13711891F8E01051FA27
S1132ED080F0022190FBF1F5FFF713BBF6B2002E50
S1132EE03FF40FABF6B2DFF8AC03301890F867008C
S1132EF0FF2816D101240123F6B216A84621315425
S1132F00F6B2DFF89003301890F86800F6B2DFF8F4
S1132F108413711891F81C1151FA80F0022190FB6E
S1132F20F1F5F6B2DB48301890F82B00FF287FF457
S1132F30E8AA01240123F6B216A846213154F6B2B8
S1132F40D448301890F82C00F6B2D249711891F890
S1132F50E01051FA80F0022190FBF1F5FFF7D1BAAD
S1132F60CC480021C171CB4890F8D001C949401820
S1132F7090F8E100FF280DD1C64890F8D001C5496A
S1132F80401890F81D01FF2804D15FFA8AFABAF1BB
S1132F90010F08D15FFA8BFBBBF10B0F03DBBD48BC
S1132FA00121017202E0BB48002101720020B949ED
S1132FB091F8E011012900F02782E4B2012C03D03A
S1132FC09DF80F10012915D10020B24991F8D011B4
S1132FD00BE0C9B216AA8A5C3C2A04D0C9B216AA6C
S1132FE08A5C462A00D1401C491CC9B25FFA8BFB9B
S1132FF05945EED3C0B2062880F206820024A548C3
S113300090F8D001401C00E0401CC0B25FFA8BFB7A
S113301058452FD2C0B29F49411891F8A410C0B2AC
S11330209C4A821892F8A320891A00290BD5C0B2B1
S11330309849411891F8A310C0B2964A821892F8A0
S1133040A420891A0AE0C0B29249411891F8A41048
S1133050C0B2904A821892F8A320891AC0B28D4A4D
S113306012EB4002B2F95821062392FBF3F28A4292
S1133070CADA0400E4B2002C00F0C681E4B200EE27
S1133080104AB8EE400ADDED110A20EE200AE4B23F
S113309000EE904AF8EE600A20EE200AE4B200EE58
S11330A0904AF8EE600A9DED121A00EE810ADDEDF9
S11330B0130A30EE200AE4B200EE904AF8EE600AF9
S11330C09DED141ADDED151A40EE811A80EE210AE9
S11330D0F0EE000A80EE200ABDEEC00A10EE105A8F
S11330E08DF80850E4B200EE104AB8EE400ADFF85A
S11330F04C0ED0ED150ADFF8440E90ED161A00EED2
S1133100201AE4B200EE104AB8EE400ADFF82C0EA2
S1133110D0ED180AF7EE001A40EE201A81EE210ACB
S11331205C4890F8D00100EE900AF8EE600ADFF8EF
S11331300C0E90ED151ADFF8040ED0ED161A40EEC1
S1133140811A544890F8D00100EE900AF8EE600A13
S1133150DFF8E80D90ED181AB7EE002A00EE812A88
S1133160C1EE820A30EE600ADFED4B0A20EE200A3F
S1133170F3EE0E0A80EE200ABDEEC00A10EE100A2D
S1133180C0B2462880F240810027EDB255FA84F09F
S11331903D2801DB3C2500E065190026671C55E04D
S11331A05FF00008FFB23B48381890F86800FFB29F
S11331B03849791891F82C10401A8046FFB23548E6
S11331C010EB4700B0F9580103F0F6F9DFF8702D61
S11331D0DFF8703D03F040FA02000B00CDE9002354
S11331E05FFA88F8404603F0F1F9DDE9002303F0C3
S11331F009FB2AD85FFA88F8404603F0E7F9020091
S11332000B0090469946FFB2224810EB4700B0F9F4
S1133210580103F0D1F9DFF8302DDFF8303D03F029
S11332201BFA42464B4603F0EDFA0ED8FFB219489A
S1133230381890F86800FF2807D0FFB215483818EE
S113324090F82C00FF2800D0761C7F1CEDB2FFB252
S1133250BD42A5D29DF8080003F0B8F9DFF8E82CC8
S1133260DFF8E83C03F0F8F902000B0090469946B9
S1133270F6B2300003F0AAF942464B4603F0C2FA14
S11332800CD80348012180F887100CE03333D33F76
S1133290F407FF1FC405FF1F00003442DFF8B00C21
S11332A0002180F88710DFF8A80C90F88700012827
S11332B040F0AA800020DFF89C1C91F8D011E4B201
S11332C08C4225D0E4B2DFF88C1C611891F8A5106B
S11332D0E4B2DFF8802CA21892F8A62052FA81F109
S11332E0022291FBF2F1E4B2DFF8682CA21892F802
S11332F0A420E4B2DFF85C3CE31893F8A33053FA5B
S113330082F2022392FBF3F28A4201DA02202BE0DA
S1133310DFF8401C91F8D011E4B28C4224D0E4B21E
S1133320DFF8301C611891F8A410E4B2DFF8242C03
S1133330A21892F8A32052FA81F1022291FBF2F131
S1133340E4B2DFF8102CA21892F8A520E4B2DFF85A
S1133350043CE31893F8A63053FA82F2022392FB5A
S1133360F3F28A4200DA0120DFF8E81B91F8D01169
S113337022E0C0B202281ED1C9B2DFF8D82B8A18C5
S113338092F86820FF2A16D0C9B2DFF8C82B8A1831
S113339092F86820C9B2DFF8BC3BCB1893F8A4308C
S11333A053FA82F2022392FBF3F2C9B2DFF8A43B90
S11333B0CB1883F8A420491CEDB2C9B28D4222D3A4
S11333C0C0B20128D5D1C9B2DFF8882B8A1892F887
S11333D02C20FF2ACDD0C9B2DFF8782B8A1892F8B6
S11333E02C20C9B2DFF86C3BCB1893F8A43053FA05
S11333F082F2022392FBF3F2C9B2DFF8583BCB18F6
S113340083F8A420D7E7AB46DFF8480B80F8D1B1A6
S1133410002132255FF0000800240020FF228DF8EF
S11334200920FF228DF8082000228DF80A20DFF8F9
S1133430242B92F9D121521E00E0521E13005BB2DC
S1133440DFF8106B96F8D0611BB236B2B342C0F20B
S113345092809DF82730012B02D15FF000088AE0AA
S1133460491C5FFA88F8B8F1000F3BD152B2DFF87B
S1133470E43AD31893F82C30FF2B07D152B2DFF87B
S1133480D43AD31893F86830FF2B0FD152B2DFF837
S1133490C43AD31893F82C30FF2B23D052B2DFF860
S11334A0B43AD31893F86830FF2B1BD15FF00108AE
S11334B052B2DFF8A03AD31893F82C30FF2B00D186
S11334C00A2552B2DFF88C3AD31893F86830FF2BF0
S11334D000D114258DF80920C9B2062941DB5FF01B
S11334E0000848E0E4B2002C3BD1EDB20A2D18D11B
S11334F052B2DFF8603AD31893F82C30FF2B03D084
S11335008DF80820012436E052B2DFF8483AD31887
S113351093F86830FF2B04D19DF80A305B1C8DF8BA
S11335200A30EDB2142D1CD152B2DFF8283AD31868
S113353093F86830FF2B07D08DF8082001241AE097
S113354083C0CAA145B6EB3F52B2DFF8083AD3189C
S113355093F82C30FF2B04D19DF80A305B1C8DF8B6
S11335600A305FFA88F8B8F1000F7FF466AFC9B289
S11335700729FFF662AF5FFA88F8B8F1010F40F04F
S1133580A084E4B2002C0CD1DFF8C81991F8E01142
S1133590012940F0BC82DFF8BC1991F8D0118DF8F4
S11335A008109DF8081000EE101AB8EE400ADDED80
S11335B0110A20EE200A9DF8081000EE901AF8EE89
S11335C0600A20EE200A9DF8081000EE901AF8EE2A
S11335D0600A9DED121A00EE810ADDED130A30EE49
S11335E0200A9DF8081000EE901AF8EE600A9DED8E
S11335F0141ADDED151A40EE811A80EE210A9DF8A9
S1133600091000EE901AF8EE600ADFF8301991ED17
S1133610151ADFF82819D1ED161A40EE811A9DF813
S1133620091000EE901AF8EE600ADFF8101991ED17
S1133630181AB7EE002A00EE812AC1EE820A9DF81C
S1133640081001EE101AB8EE411ADFF8F018D1EDA7
S1133650151ADFF8E81891ED162A01EE212A9DF8D3
S1133660081001EE101AB8EE411ADFF8D018D1EDA7
S1133670181AF7EE002A41EE212A82EE221A70EE81
S1133680C10ADFF8D01891F8D11101EE101AB8EE82
S1133690411ADFF8A818D1ED151ADFF8A01891ED3A
S11336A0162A01EE212ADFF8AC1891F8D11101EEA7
S11336B0101AB8EE411ADFF88418D1ED181AF7EE93
S11336C0002A41EE212A82EE221ADFF8881891F8A6
S11336D0D01101EE901AF8EE611ADFF8601891ED3E
S11336E0152ADFF85818D1ED162A41EE822ADFF8A0
S11336F0641891F8D01101EE901AF8EE611ADFF80F
S11337003C1891ED182AB7EE003A01EE823AC2EE67
S1133710831A31EE611AC0EE810ADFF83818C1ED60
S1133720030A50218DF80C10F7EE000A60EE200A0F
S1133730B0EE001AC0EE810A9DF809109DF8082029
S1133740891A01EE101AB8EEC11AB4EE601AF1EE3D
S113375010FAC0F257839DF809109DF80820891AC1
S113376000EE901AF8EEE00AB0EE081A20EE011A04
S1133770F0EE001A81EE211AB4EE601AF1EE10FA9E
S1133780C0F24083F2EE040AC0EE200A9DF80A104B
S113379001EE101AB8EE411AB4EE601AF1EE10FA06
S11337A040F13083DFF8AC1791F8D11100EE901A94
S11337B0F8EE600ADFF8841791ED151ADFF87C172C
S11337C0D1ED161A40EE811ADFF8881791F8D1115D
S11337D000EE901AF8EE600ADFF8601791ED181AFF
S11337E0B7EE002A00EE812AC1EE820ADFF86417E0
S11337F091F8D01101EE101AB8EE411ADFF83C1717
S1133800D1ED151ADFF8341791ED162A01EE212AAD
S1133810DFF8401791F8D01101EE101AB8EE411AF2
S1133820DFF81817D1ED181AF7EE002A41EE212A15
S113383082EE221A70EEC10A9DF8091001EE101AE8
S1133840B8EE411ADFF8F416D1ED151ADFF8EC16CC
S113385091ED162A01EE212A9DF8091001EE101AA5
S1133860B8EE411ADFF8D416D1ED181AF7EE002A93
S113387041EE212A82EE221A9DF8081001EE901AD8
S1133880F8EE611ADFF8B41691ED152ADFF8AC16DC
S1133890D1ED162A41EE822A9DF8081001EE901A05
S11338A0F8EE611ADFF8941691ED182AB7EE003A93
S11338B001EE823AC2EE831A31EE611AF0EE081A72
S11338C021EE211AB4EE601AF1EE10FAC0F29A82D7
S11338D09DF8091000EE901AF8EE600ADFF85C1605
S11338E091ED151ADFF85416D1ED161A40EE811A2F
S11338F09DF8091000EE901AF8EE600ADFF83C1605
S113390091ED181AB7EE002A00EE812AC1EE820A60
S11339109DF8081001EE101AB8EE411ADFF81C16D3
S1133920D1ED151ADFF8141691ED162A01EE212AAD
S11339309DF8081001EE101AB8EE411ADFF8FC15D4
S1133940D1ED181AF7EE002A41EE212A82EE221A4E
S113395070EEC10AB0EE001A60EE810ADFF8F415C9
S113396091F8D11101EE101AB8EE411ADFF8CC1516
S1133970D1ED151ADFF8C41591ED162A01EE212AAE
S1133980DFF8D01591F8D11101EE101AB8EE411AF2
S1133990DFF8A815D1ED181AF7EE002A41EE212A16
S11339A082EE221ADFF8AC1591F8D01101EE901ACC
S11339B0F8EE611ADFF8841591ED152ADFF87C150D
S11339C0D1ED162A41EE822ADFF8881591F8D0113C
S11339D001EE901AF8EE611ADFF8601591ED182ADD
S11339E0B7EE003A01EE823AC2EE831A31EE611A62
S11339F0B4EE601AF1EE10FAC0F2048241218DF89F
S1133A000C10DFED020A9FED010A01E000007F4384
S1133A10EDB2322D02D1DFF83C154D7CEDB20A2D0A
S1133A2040F0FE809DF809109DF80820891A0529A8
S1133A30C0F2F6809DF809009DF8081051FA80F054
S1133A40022190FBF1F09DF80810DFF8082592F8A8
S1133A50D02152FA81F1022291FBF2F1401A00EED8
S1133A60900AF8EEE00A9DF809009DF8081051FA52
S1133A7080F0022190FBF1F0DFF8D814401890F8A0
S1133A8068009DF80810DFF8CC2492F8D02152FA8F
S1133A9081F1022291FBF2F1DFF8B824891891F840
S1133AA06810401A01EE100AB8EEC11AC1EE200ADD
S1133AB09DF80800DFF89C1491F8D01151FA80F0B9
S1133AC0022190FBF1F0DFF88C14401890F86800A4
S1133AD001EE100AB8EE411A9DF80800DFF87414DC
S1133AE091F8D01151FA80F001EE900AF8EEE11A43
S1133AF061EEA01AB0EE002AC1EE821A31EE611A0C
S1133B000020DFF8501491F8D011891C3CE0DFF854
S1133B10441491F8D1118DF80910DFF8381491F894
S1133B20D0118DF8081007218DF80D10DBE1C9B212
S1133B30DFF820248A1892F86820FF2A23D0401C3A
S1133B40C9B201EE901AB8EE612AF0EE411A42EEC3
S1133B50201AC9B2DFF8FC238A1892F8682002EE12
S1133B60102AB8EE422A31EEC22AC9B2DFF8E423A1
S1133B708A1892F8682002EE902AF8EE622A71EE12
S1133B80E21A02EE210A491CC9B2DFF8C82392F8EE
S1133B90D121921E9142CADB01EE100AB8EE411AFD
S1133BA080EE010AB5EE400AF1EE10FA02D5B1EE4C
S1133BB0401A01E0B0EE401AF2EE001AB4EE611AB7
S1133BC0F1EE10FA10DAF5EE400AF1EE10FA02D531
S1133BD0B1EE601A01E0B0EE601AF0EE001AB4EE35
S1133BE0611AF1EE10FA0CDB53208DF80C00002062
S1133BF0D8499DF80920CA74D6499DF808208A74CA
S1133C000EE044208DF80C000120D2499DF80920D3
S1133C10CA74D0499DF808208A7405218DF80D10C6
S1133C20EDB2142D40F0E5809DF809109DF80820B0
S1133C30891A0529C0F2DD809DF809009DF8081055
S1133C4051FA80F0022190FBF1F09DF80810C14A6E
S1133C5092F8D02152FA81F1022291FBF2F1401A3A
S1133C6000EE900AF8EEE00A9DF809009DF80810AD
S1133C7051FA80F0022190FBF1F0B649401890F817
S1133C802C009DF80810B34A92F8D02152FA81F121
S1133C90022291FBF2F1AF4A891891F82C10401AD4
S1133CA001EE100AB8EEC11AC1EE200A9DF8080010
S1133CB0A84991F8D01151FA80F0022190FBF1F05B
S1133CC0A449401890F82C0001EE100AB8EE411AED
S1133CD09DF808009F4991F8D01151FA80F001EE47
S1133CE0900AF8EEE11A61EEA01AB0EE002AC1EED5
S1133CF0821A31EE611A0020964991F8D011891C7C
S1133D0029E0C9B2934A8A1892F82C20FF2A21D0BC
S1133D10401CC9B201EE901AB8EE612AF0EE411AC5
S1133D2042EE201AC9B28B4A8A1892F82C2002EE6D
S1133D30102AB8EE422A31EEC22AC9B2854A8A183C
S1133D4092F82C2002EE902AF8EE622A71EEE21A22
S1133D5002EE210A491CC9B27E4A92F8D121921E70
S1133D609142CEDB01EE100AB8EE411A80EE010A50
S1133D70B5EE400AF1EE10FA02D5B1EE401A01E0B8
S1133D80B0EE401AF2EE081AB4EE611AF1EE10FA2F
S1133D9010DAF5EE400AF1EE10FA02D5B1EE601A2F
S1133DA001E0B0EE601AF0EE001AB4EE611AF1EE22
S1133DB010FA0FDB53208DF80C00002065499DF8A4
S1133DC00920CA7463499DF808208A7401218DF87A
S1133DD00D100EE044208DF80C0001205D499DF883
S1133DE00920CA745B499DF808208A7402218DF861
S1133DF00D105849C1ED070A564981ED080A554985
S1133E004D745DE0534991F8D1118DF80910514971
S1133E1091F8D0118DF8081003218DF80D104D493B
S1133E2000228A82F7EE000A60EE200AB0EE001A41
S1133E30C0EE810A9DF809109DF80820891A01EE48
S1133E40101AB8EEC11AB4EE601AF1EE10FA02DAE2
S1133E50404901228A829DF809109DF80820891A98
S1133E6000EE901AF8EEE00AB0EE081A20EE011AFD
S1133E70F0EE001A81EE211AB4EE601AF1EE10FA97
S1133E8002DA344902228A82F2EE040AC0EE200ADF
S1133E909DF80A1001EE101AB8EE411AB4EE601A39
S1133EA0F1EE10FA02D42B4904228A82DFED2A0AA9
S1133EB0B4EE600AF1EE10FA02DA264908228A8288
S1133EC011E0244991F8E01101290CD1214991F81C
S1133ED0D1118DF809101F4991F8D0118DF80810EF
S1133EE004218DF80D10C0B2012803D11948012115
S1133EF080F8E01100208DF80F00164890F8E001DA
S1133F00012840F0A4829FED158AEDB2322D01D133
S1133F101048457C0F4890F8D1010E4991F8D11111
S1133F209DF808205118022291FBF2F69DF8271003
S1133F30012915D101208DF80F0088E2E404FF1F48
S1133F40B81E85EB51B8DE3F9A9999999999E93F42
S1133F50F407FF1FC405FF1F0100C040000000005C
S1133F60F6B256FA80F1022291FBF2F151FA80F195
S1133F70022291FBF2F151FA80F0022190FBF1F759
S1133F80EDB2142D31D15FF06C0BF6B2DFF8DC0921
S1133F90301890F8680000EE100AB8EE408AF6B2C5
S1133FA0DFF8C809301890F8680000EE100AB8EE7F
S1133FB0400ADFEDD10AB4EE600AF1EE10FA7AD1CC
S1133FC048208DF80E00F6B2DFF8A00910EB460089
S1133FD0B0F9580102F0F0FA0022DFF8943902F047
S1133FE03BFB02F087FD08EE100AEDB20A2D34D136
S1133FF05FF0720BF6B2DFF87409301890F82C00F9
S113400000EE100AB8EE408AF6B2DFF86009301804
S113401090F82C0000EE100AB8EE400ADFEDB60A64
S1134020B4EE600AF1EE10FA40F0088148208DF8F1
S11340300E00F6B2DFF8340910EB4600B0F958016F
S113404002F0BAFA0022DFF8283902F005FB02F088
S113405051FD08EE100AB1EE488ADFF8180980F81D
S113406086709DF80800DFF8041991F8D1119DF8C5
S11340700820891A022291FBF2F1401A0128C0F2A9
S1134080A1819DF8080000EE100AB8EE400ADFF89E
S1134090DC0890F8D1019DF80810401A00EE900A4F
S11340A0FAEEEF0A30EE600ABDEEC00A10EE100A16
S11340B08DF8080089E14E208DF80E00F6B2DFF885
S11340C0AC08301890F8A40000EE100AB8EE400ACC
S11340D038EE408AB5EE408AF1EE10FA02D5B1EE20
S11340E0488AFFE7FFB2DFF88408381890F82C00FC
S11340F0FF283FF47AAFFFB2DFF87008381890F861
S11341002C00FFB2DFF86418791891F86810401A8F
S113411000280DD5FFB2DFF85408381890F868006D
S1134120FFB2DFF84818791891F82C10401A0CE007
S1134130FFB2DFF83808381890F82C00FFB2DFF827
S11341402C18791891F86810401A02F035FA020018
S11341500B00CDE90023FFB2DFF8100810EB470095
S1134160B0F9580102F028FADFF80C28DFF80C380F
S113417002F072FADDE9002302F044FB3FF635AFAA
S1134180FFB2DFF8E807381890F82C00FFB2DFF828
S1134190DC17791891F86810401A00280ED5FFB280
S11341A0DFF8C807381890F86800FFB2DFF8BC17CA
S11341B0791891F82C10B0EB01090DE0FFB2DFF88B
S11341C0AC07381890F82C00FFB2DFF8A017791864
S11341D091F86810B0EB0109FFB2DFF8900710EB1B
S11341E04700B0F9580102F0E7F9DFF89427DFF847
S11341F0943702F031FA02000B00CDE9002348465F
S113420002F0DAF9DDE9002302F0FCFA3FF6EDAE44
S1134210FFB2DFF85807381890F82C00FF283FF455
S1134220E4AEFFB2DFF84407381890F86800FF28BE
S11342303FF4DBAE01208DF80F0008E14E208DF82D
S11342400E00F6B2DFF82407301890F8A40000EE50
S1134250100AB8EE400A38EE408AB5EE408AF1EE14
S113426010FA02D5B1EE488AFFE7FFB2DFF8FC0688
S1134270381890F86800FF283FF4EDAEFFB2DFF87D
S1134280EC06381890F82C00FFB2DFF8E016791825
S113429091F86810401A00280DD5FFB2DFF8CC065B
S11342A0381890F86800FFB2DFF8C016791891F852
S11342B02C10401A0CE0FFB2DFF8B006381890F862
S11342C02C00FFB2DFF8A416791891F86810401A90
S11342D002F072F902000B00CDE90023FFB2DFF80F
S11342E08C0610EB4700B0F9580102F065F9DFF8CD
S11342F08826DFF8883601E000007F4302F0ACF93D
S1134300DDE9002302F07EFA3FF6A5AEFFB2DFF846
S11343105C06381890F82C00FFB2DFF850167918B4
S113432091F86810401A00280DD5FFB2DFF83C065A
S1134330381890F86800FFB2DFF83016791891F851
S11343402C10451A0CE0FFB2DFF82006381890F85C
S11343502C00FFB2DFF81416791891F86810451A8A
S1134360FFB2DFF8080610EB4700B0F9580102F07D
S113437023F9DFF80C26DFF80C3602F06DF90200A1
S11343800B00CDE90023280002F016F9DDE9002333
S113439002F038FA3FF65FAEFFB2DFF8D005381806
S11343A090F82C00FF283FF456AEFFB2DFF8BC05AE
S11343B0381890F86800FF283FF44DAE01208DF8BE
S11343C00F0044E000208DF8080000219DF808004B
S11343D036E09DF80810DFF89425891891F8A410A8
S11343E000EE101AB8EE400AC0B29DF80810411A47
S11343F000EE901AF8EEE00A60EE880ADFF86C1519
S113440091F8D1119DF80820891A01EE101AB8EE1E
S1134410C11AC0EE810A30EE200ABDEEC00A10EEC9
S1134420101A09B2B92900DBB82109B2002900D554
S11344300021C0B2DFF83425821882F8A410401C91
S1134440DFF8281591F8D111C0B28842C1D3DFF842
S11344501C0590F8E001012802D15FF0540B01E043
S11344605FF04E0B5FFA88F8B8F1000F06D1E4B2A2
S1134470002C01D15A2707E0582705E0E4B2002CAC
S113448001D1432700E056279DF80F00012804D1ED
S1134490DFF8D804002180F8E0110020DFF8CC1404
S11344A00978002931D0DFF8C41491F8D01122E042
S11344B0C9B216AA8A5C1E2A1CD1C9B2DFF8AC2480
S11344C08A1892F82C20FF2A14D0C9B2DFF89C2451
S11344D08A1892F86820FF2A0CD0C9B2DFF88C241D
S11344E08A1892F86820C9B2DFF88034CB1893F8A0
S11344F02C30D21A491CDFF8742492F8D121C9B2A5
S11345009142D5D3DFF8641448700020DFF85C14BE
S113451091F8D01101E00120491CDFF8502492F8F1
S1134520D121C9B2914218D2C9B2DFF85C248A18E9
S1134530C9B216ABCB5C82F8A030C9B2DFF82C2428
S11345408A1892F8A420D21FAB2AE4D2C0B2012860
S1134550E2D1DFF8180480F8D111DFF8100490F8E4
S1134560D001DFF80814401890F8A400DFF8FC1319
S113457081F8D401DFF8F403DFF8F01391F8D011D7
S113458080F8E111DFF8E403DFF8E01391F8D111CA
S113459080F8E211DFF8D403FF2180F82C12DFF851
S11345A0CC03FF2180F82B12DFF8C00390F8E00160
S11345B0012805D0DFF8BC0390F88700012803D157
S11345C04FF4967000F014FADFF8C00380F823B0BB
S11345D0DFF8B80380F82170DFF8B0039DF80C1001
S11345E080F82210DFF8A4039DF8141080F824103A
S11345F0DFF898039DF82E1080F82510DFF88C035F
S11346009DF80E1080F82610DFF868039DF821103D
S11346100172D8489DF815104170D6489DF82010B5
S113462080F88110D3489DF8221080F88210D14878
S113463080F885A0CF489DF80D1080F88810CD48EB
S11346409DF8231080F8891034B0BDEC028BBDE8CE
S1134650F18F0000C54890F8D001C01C07E0F4EECB
S1134660400AF1EE10FA01D5B1EE411A401CC0B275
S1134670BE4991F8D111891E884279DADFEDB90A71
S11346809FEDB81A20EE810AB5EE400AF1EE10FA59
S1134690ECD59FEDB40ADFEDB31A20EE812AB5EE16
S11346A0402AF1EE10FAE1DD21EE212AB5EE402A8E
S11346B0F1EE10FADADDF5EE400AF1EE10FA02D569
S11346C0B1EE602A01E0B0EE602AB5EE401AF1EED8
S11346D010FA02D5F1EE412A01E0F0EE412AB4EEDF
S11346E0622AF1EE10FA19D5F5EE400AF1EE10FA4D
S11346F002D5B1EE602A01E0B0EE602AF5EE401A70
S1134700F1EE10FA02D5F1EE611AFFE7B4EE612A78
S1134710F1EE10FA02D5F1EE600AA7E7B5EE401A01
S1134720F1EE10FA02D5F1EE411A01E0F0EE411A71
S1134730F5EE400AF1EE10FA02D5F1EE600AFFE759
S1134740F4EE601AF1EE10FA90D5B5EE401AF1EEDF
S113475010FA02D5F1EE410A01E0F0EE410AB5EE9D
S1134760400AF1EE10FA7FF57AAFB1EE400A76E72F
S113477070470000BCB000200021834A92F88420D6
S11347807A4B93F8D1319A4203D27F4890F884103F
S113479002E0764890F8D111744890F8D001081AD4
S11347A0B7EE001ADFED6F1A774A92ED140A764AD3
S11347B0D2ED150A744A92ED162A734AD2ED172ADD
S11347C0714A92ED183A694A92F8A42003EE902AAD
S11347D0F8EE633A23EE800ADFED623A00EEA30AB4
S11347E030EE020A614A92F8A42003EE902AF8EE11
S11347F0633A63EEA22ADFED5B3A43EE232AF7EE37
S1134800003A72EEA32A80EE220AF1EE082A30EE74
S1134810220AF0EE401A32EE610A61EE831A71EE5A
S1134820E00AC0EE201A9FED4F0A0022DFED4D0A88
S11348304E4B93F8D0315B1C65E09FED4B1ADBB215
S11348404A48181890F8A400563801EE900AF8EE79
S1134850E11AB3EE0E2A61EE821ADBB2434810EB82
S11348604300B0F9580102EE100AB8EEC22A82EEF3
S1134870011A81EE811ADBB200A810EB830080EDEF
S1134880001A521C404890ED231AF0EE001A81EEF3
S1134890211A89B201EE901AF8EE611AB0EE002ADC
S11348A061EE821AB7EE002AC2EE211A31EE611AC5
S11348B0F7EE001AB7EE002AD2B202EE902AF8EE12
S11348C0622A22EE811AD2B202EE902AF8EE622A0D
S11348D021EE221AD2B202EE902AF8EE622A02EEF9
S11348E0A11A31EE021ADBB200A810EB8300D0ED5E
S11348F0001A254890ED222A61EE821A41EE810ABF
S113490030EE010A5B1CDBB289B2481E834217DA1F
S1134910B7EE001A1E48007801288ED1DBB21A487F
S1134920181890F8A0000A2807D0DBB21648181807
S113493090F8A00014287FF480AFB7EE001A7EE749
S113494080EE800ABDEEC00A10EE100A563000B2A6
S1134950002800D5002000B2B92800DBB82080B2BE
S11349603CB0704700000000F4FDB43FC405FF1FD5
S113497000000440F407FF1F9A9999999999F13F0F
S1134980CDCCCCCCCCCCEC3FE404FF1F44FAFF1FCD
S1134990D404FF1F2C48006850F080702A49086036
S11349A02A48006850F400702849086028484FF4E9
S11349B0807101602748006850F080002549086034
S11349C02548006850F08000234908607047C0B251
S11349D0012806D12048006830F080001E49086094
S11349E005E01D48006850F080001B4908607047CE
S11349F010B5040002F07BF9012805D117481749C6
S1134A00096881601548C46010BD1048006850F4FE
S1134A1000500E49086012481249016012480068AB
S1134A2030F080001049086070470D480068C001EC
S1134A3007D50B48006850F08070094908600120D0
S1134A4000E00020704700003C80044038800440AF
S1134A501C90044014F00F4000F00F40BC04FF1FF2
S1134A601CD0044000010B0014F10F4080B5DFF8A6
S1134A70300A00210161DFF8280A00214161DFF8D2
S1134A80200A00218160DFF8180A0021C160DFF8E4
S1134A90140A006850F00060DFF8081A0860DFF8B4
S1134AA0080A006850F00060DFF8FC190860DFF8BD
S1134AB0F409006850F00070DFF8E8190860DFF8C6
S1134AC0E809006850F08070DFF8DC190860DFF84E
S1134AD0DC09006850F40070DFF8D0190860DFF8D2
S1134AE0D009006850F4C060DFF8C4190860DFF82A
S1134AF0C409006850F4C060DFF8B8190860DFF832
S1134B00B809006850F4C060DFF8AC190860DFF839
S1134B10AC09006850F4C060DFF8A0190860DFF841
S1134B20A0094FF6FF710160DFF89809006850F0A2
S1134B300500DFF890190860DFF88C09006850F070
S1134B400D00DFF884190860DFF880090021016096
S1134B50DFF87C0900210160DFF878094FF6FF7166
S1134B600160DFF87409006850F00500DFF8681987
S1134B700860DFF8540B006850F00D00DFF8481BA4
S1134B800860DFF8480B00210160DFF8440B0021C6
S1134B900160DFF81409006850F00070DFF80819AC
S1134BA00860DFF80809006850F40060DFF8FC18BA
S1134BB00860DFF8240B006850F44070DFF8181B1D
S1134BC00860DFF8180B006850F44070DFF80C1B25
S1134BD00860DFF80C0B006850F44070DFF8001B2D
S1134BE00860DFF8000B006850F44070DFF8F41A36
S1134BF00860DFF8F40A006850F48070DFF8E81AFF
S1134C000860DFF8E80A006850F48070DFF8DC1A06
S1134C100860DFF8DC0A006850F48070DFF8D01A0E
S1134C200860DFF8D00A006850F48070DFF8C41A16
S1134C300860DFF8C40A006850F48030DFF8B81A5E
S1134C400860DFF8B40A006850F40030DFF8A81AEE
S1134C500860DFF8A40A006850F48020DFF8981A8E
S1134C600860DFF8940A006850F40020DFF8881A1E
S1134C700860DFF8880A006830F48030DFF87C1AB6
S1134C800860DFF8780A006830F40030DFF86C1A46
S1134C900860DFF8680A006830F48020DFF85C1AE6
S1134CA00860DFF8580A006830F40020DFF84C1A76
S1134CB00860DFF84C0A006830F00400DFF8401A9E
S1134CC00860DFF83C0A28210160DFF8380A006830
S1134CD030F00400DFF82C1A0860DFF8280A2821D5
S1134CE00160DFF8240A006830F00400DFF8181AC5
S1134CF00860DFF8140A28210160DFF8100A006850
S1134D0030F00400DFF8041A0860DFF8000A2821F4
S1134D100160DFF8FC0909210160DFF8F80949F2B4
S1134D207C210160DFF8F00900210160DFF8EC0963
S1134D3000210160DFF8E80900210160DFF8E409DF
S1134D4000210160DFF8E009002101600321002057
S1134D5000F00CF80321002000F09AF801BD41682E
S1134D6000224260080000B27047000010B50C0039
S1134D70DFF88819096831F48031DFF8802911607F
S1134D80DFF87819096831F40031DFF8702911600F
S1134D9000219FED880A80B2B0F57A7F01DD4FF4DF
S1134DA07A7080B200EE100AB8EE400ADFED820A93
S1134DB020EE200A10EE100A01F016FC0022DFF8A3
S1134DC06C3901F0CDFF01F095FE00EE100ABDEE46
S1134DD0C00A10EE101AA4B2002C05D0022C0CD07C
S1134DE024D3032C3BD052E0DFF82C0900210160CE
S1134DF0DFF828090021016049E0DFF81C0989B2C5
S1134E000160DFF8180900210160DFF8F00800688C
S1134E1030F48030DFF8E4180860DFF8E008006858
S1134E2050F40030DFF8D418086030E0DFF8E80808
S1134E3000220260DFF8E40889B20160DFF8BC08F0
S1134E40006850F48030DFF8B4180860DFF8AC086C
S1134E50006830F40030DFF8A418086017E0DFF8C9
S1134E60B80800210160DFF8B40800210160DFF810
S1134E708C08006850F48030DFF880180860DFF890
S1134E807C08006850F40030DFF87018086010BD2A
S1134E9010B50C00DFF86418096831F48021DFF8DC
S1134EA05C281160DFF85418096831F40021DFF838
S1134EB04C28116000219FED3F0A80B2B0F57A7F43
S1134EC001DD4FF47A7080B200EE100AB8EE400AA9
S1134ED0DFED390A20EE200A10EE100A01F084FBFF
S1134EE00022DFF8483801F03BFF01F003FE00EE3A
S1134EF0100ABDEEC00A10EE101AA4B2002C05D0A0
S1134F00022C0CD024D3032C3BD052E0DFF8100841
S1134F1000210160DFF80C080021016049E0DFF89E
S1134F20000889B20160DFF8FC0700210160DFF8A6
S1134F30CC07006830F48020DFF8C0170860DFF881
S1134F40BC07006850F40020DFF8B017086030E0B8
S1134F50DFF8CC0700220260DFF8C80789B20160DD
S1134F60DFF89807006850F48020DFF89017086095
S1134F70DFF88807006830F40020DFF88017086045
S1134F8017E0DFF89C0700210160DFF89807002193
S1134F900160DFF86807006850F48020DFF85C17D0
S1134FA00860DFF85807006850F40020DFF84C1759
S1134FB0086010BD00000000007C124710B5DFF847
S1134FC0702792ED250ADFF86827D2ED260ADFF86C
S1134FD0602792ED271ADFEDC01A9FEDBF2ADFF894
S1134FE05027128E801ADFF84827528E891ADFF86C
S1134FF04427126802FA80F2DFF83C371B689A18DB
S113500002FA81F2022392FBF3F202EE902A09B231
S113501001FA80F2022392FBF3F2F8EEE22A22EE86
S1135020A03ADFEDAE2AB4EE623AF1EE10FA0FDBED
S113503012B2012A0CDBDFF8FC361B68DFF8F846F5
S11350402468E318022493FBF4F302EE903A0FE091
S1135050DFF8E0361B6803FA80F3DFF8D8462360F4
S1135060DFF8D4361B6803FA81F3DFF8CC462360FB
S11350709FED9B1AB4EE413AF1EE10FA0FD512B23D
S1135080002A0CD5DFF8AC060068DFF8AC16096816
S11350900818022190FBF1F002EE900A0FE0DFF80D
S11350A094361B6803FA80F0DFF888361860DFF85E
S11350B08806006800FA81F0DFF87C160860DFF8E3
S11350C074060068DFF8701609680818022190FB5E
S11350D0F1F001EE100A12B201EE902AF8EEE11A94
S11350E061EE801AB8EEC10A40EE201AB0EE612AD1
S11350F09FED7C0AF4EE401AF1EE10FA01DBDFEDCD
S11351007A1A9FED7A0AF4EE401AF1EE10FA01D5FC
S1135110DFED761A9FED730AB4EE402AF1EE10FA31
S113512001DB9FED712A9FED710AB4EE402AF1EE86
S113513010FA01D59FED6D2ABDEEE10A10EE100ABA
S1135140DFF8EC158887BDEEC20A10EE100ADFF80E
S1135150E015C887DFF8D805008D00F09BFB80B20E
S1135160DFF8D8150988022291FBF2F1401A00EE0B
S1135170100AB8EEC00ADFF8C4050088022190FBCB
S1135180F1F000EE900AF8EEE00A80EE200ADFF873
S1135190A005B0F93E0000EE900AF8EEE00A9FED9B
S11351A0BF1A40EE410AFDEEE00A10EE900ADFF865
S11351B08015C887DFF87805B0F93C0000EE900A46
S11351C0F8EEE00A9FEDB51A40EE010ABDEEE00AE2
S11351D010EE100ADFF858158887DFF85405B0F987
S11351E03C0040F2CB31884204DBDFF8440540F256
S11351F0CA318187DFF83805B0F93C00DFF8401583
S1135200884204DADFF82805DFF834158187DFF8EF
S11352102005B0F93E0040F2CB31884204DBDFF8D0
S1135220100540F2CA31C187DFF80405B0F93E0029
S1135230DFF80C15884204DADFF8F404DFF800150F
S1135240C187DFF8EC04B0F93C00012807DB012139
S1135250DFF8DC04808F80B2FFF788FD16E0DFF80A
S1135260D004B0F93C00002809D50221DFF8C004BD
S1135270B0F93C00404280B2FFF778FD06E003211C
S1135280DFF8AC04808F80B2FFF770FDDFF8A00474
S1135290B0F93E00012807DB0121DFF89404C08F38
S11352A080B2FFF7F5FD16E0DFF88404B0F93E00A4
S11352B0002809D50221DFF87804B0F93E00404205
S11352C080B2FFF7E5FD06E00321DFF86404C08F38
S11352D080B2FFF7DDFD10BD000000000100704446
S11352E0000070C401806D4400806D4400806DC472
S11352F038B50400DFF83804008D00F0CBFA80B232
S1135300DFF838140988022291FBF2F1401A00EE0A
S1135310100AB8EEC00ADFF824040088022190FBCA
S1135320F1F000EE900AF8EEE00A80EE200A24B2D2
S113533060000A38DFF8F813C88524B26000DFF88B
S1135340F013C98D884204DADFF8E403A4B26100E3
S1135350C185DFF8DC03C08D0A2803DADFF8D00347
S11353600A21C185DFF8C803B0F93000DFF8C013A3
S1135370B1F932100818022190FBF1F0201ADFF87D
S1135380B013B1F92A10DFF8A823B2F92C20DFF802
S1135390A033B3F93030DFF89853B5F93250AB424B
S11353A010DADFF88C03DFF88813098E418524B204
S11353B0DFF87C03B0F92A00D0EB4400DFF8701367
S11353C088850FE0DFF86803DFF86413498E818570
S11353D024B2DFF85C03B0F92C00D0EB4400DFF812
S11353E050134885DFF84803B0F92A00DFF840136A
S11353F0B1F92C10401A002808D5DFF83403B0F9AD
S11354002C00CB49B1F92A10401A06E0C848B0F97B
S11354102A00C749B1F92C10401AC549C98D8842E0
S113542009DAC348B0F92A00052804DBC048B0F9FA
S11354302C00052828DABE48B0F92C00BC49B1F983
S11354402A10884210DABA48C08D022190FBF1F08C
S11354500019B7494885B648C08D022190FBF1F088
S1135460201AB34988850FE0B148C08D022190FB12
S1135470F1F0201AAE494885AD48C08D022190FB59
S1135480F1F00019AA4988850322A948B0F92C1023
S1135490A748B0F92A00FFF791FD31BD0000C843C9
S11354A018FAFF1F3C8004403080044038800440D8
S11354B02090044024900440289004402C90044000
S11354C00890034054900340809003404C90034064
S11354D00490034008800B4054800B4010B52DED20
S11354E0028B040024B260000A389149C8859048B0
S11354F0008D00F0CFF980B290490988022291FB17
S1135500F2F1401A00EE100AB8EEC00A8B48008887
S1135510022190FBF1F000EE900AF8EEE00A80EE32
S1135520208A8348008D00F0B5F98149888180483C
S1135530B0F930007E49B1F932100818022190FB0D
S1135540F1F0201A7A49B1F93010794AB2F93220CF
S1135550891A00EE101AB8EEC00A7549B1F9301074
S1135560734AB2F93220511800EE901AF8EEE00AAC
S113557080EE200ADFED570AB4EE600AF1EE10FA6D
S113558001DBB7EE000AFFEE000AB4EE600AF1EEAA
S113559010FA01D5BFEE000AF7EE000A30EE200A39
S11355A0F0EE000A80EE200A6149B1F9301000EEF5
S11355B0901AF8EEE00A00B201EE100AB8EEC11A31
S11355C021EE001AF0EE001A41EE210AFDEEE00A87
S11355D010EE901A564A51855549B1F9321000EE31
S11355E0901AF8EEE00AB7EE001A31EE400A00B263
S11355F001EE100AB8EEC11A20EE010AB0EE001A4C
S113560040EE010ABDEEE00A10EE100A4849888512
S11356104748B0F92A004649B1F92C10401A00282D
S113562007D54348B0F92C004149B1F92A10401A72
S113563006E03F48B0F92A003D49B1F92C10401A60
S11356403B49C98D884209DA3948B0F92A0005284E
S113565004DB3748B0F92C00052828DA3448B0F9BF
S11356602C003349B1F92A10884210DA3048C08D31
S1135670022190FBF1F000192D4948852C48C08D7A
S1135680022190FBF1F0201A294988850FE028486F
S1135690C08D022190FBF1F0201A25494885244849
S11356A0C08D022190FBF1F0001921498885032265
S11356B01F48B0F92C101E48B0F92A00FFF77EFCF1
S11356C0BDEC028B10BD000080800B404C800B4071
S11356D004800B400100803F20B0044024B004400B
S11356E028B004402CB0044040B0044044B004400E
S11356F048B004404CB0044094F00F4080F00F4098
S11357002C900B4034900B403C900B4044900B4049
S113571000900B4008900B4030900B4038900B40A9
S113572040900B4048900B4004900B4000408F4049
S1135730E404FF1F30FAFF1F34FAFF1F3268000031
S113574036FCFFFFB248006850F08050B049086052
S1135750B048006850F48060AE490860AE48AE4975
S113576009680160AD48006850F08070AB4908607A
S1135770A848006850F40070A6490860A8484FF48F
S113578040710160A74809210160A7484FF4045102
S11357900160A648A6490160A648006830F00400EC
S11357A0A4490860A348006850F00800A1490860B3
S11357B0A148006830F004009F4908609E480068D2
S11357C050F008009C4908609C48002101609C48F6
S11357D04BF21B7101609B48002101609A484FF411
S11357E0EB61016099480021016099480E21016034
S11357F0704710B4C82140F21F4240F2FB539B1A79
S113580089B200B2814200DA080000B2002800D553
S1135810002000B29BB292B289B201FB02F403FBF6
S1135820004089B290FBF1F000F2462092B212FAE5
S113583083F101F2462100B2814203DAD01800F26A
S1135840462007E000B292B202F24621884201DA11
S113585002F246207B4900220A607B4900B20860BC
S11358607C48006850F080007A49086010BC70479A
S11358700020794914220A60784904220A60784990
S113588011220A60764800680006FBD57548006856
S113589080B2704780B52DED028B40F6860140F64C
S11358A0487280B289B2401A00EE100AB8EEC00AFB
S11358B092B289B2501A00EE900AF8EEE00A80EE35
S11358C0208AB5EE408AF1EE10FA05D59FED4D8A97
S11358D04FF47A70FFF78CF89FED4B0AB4EE408AD0
S11358E0F1EE10FA05DBB7EE008A4FF47A70FFF799
S11358F07FF85D48008800EE100AB8EE400A20EEFA
S1135900080ABDEEC00A10EE100A80B2BDEC028B8C
S113591002BD000010B55624FEF72CFF534981F850
S1135920E3015349524A526E8A6680B200EE100A6D
S1135930B8EE400A4E4981ED190A80B200EE100A11
S1135940B8EE400A4A48D0ED190A494890ED1A1AAF
S113595070EEC10A464890ED091A00EE810ABDEEC8
S1135960C00A10EE100A24B280B2201A00EE100A07
S1135970B8EEC00ADFED250A20EE200ABDEEC00A0B
S113598010EE100A00B2632800DB622000B210F1AE
S1135990620F01DA7FF0610064303549497C0029E7
S11359A017D13349C97B012906D100B2C62802D0D8
S11359B000B2A02800DAC6202D49097C012906D1AD
S11359C000B2022802D000B2292800DB02202849B4
S11359D008842748007D012803D125482449C97C2F
S11359E0018401F08AF9012804D12148B0F920008A
S11359F0FFF7FFFE1E480021C1741D4800214174B9
S1135A0010BD0000000000000100803F0AD7A33F42
S1135A1030800440388004401CA004403C80044092
S1135A201890044054800340648003408C800340F9
S1135A30B51F1F00248003401C8003404C8003409A
S1135A4008800340208003402880034004800340F2
S1135A50008003405880034008C00B400CC00B403A
S1135A6000C00B4010C00B4032680000C405FF1F8B
S1135A70E404FF1F80B5DFF89C0A006850F420603E
S1135A80DFF8901A0860DFF8900A006850F480701C
S1135A90DFF8841A0860DFF8840A006850F4807024
S1135AA0DFF8781A0860DFF8780A006850F480702C
S1135AB0DFF86C1A0860DFF86C0A006850F4807034
S1135AC0DFF8601A0860DFF8600A006850F480703C
S1135AD0DFF8541A0860DFF8540A006850F4807044
S1135AE0DFF8481A0860DFF8480A006A40690121B3
S1135AF0DFF83C2A526A91400843DFF8341A096AF5
S1135B004861DFF82C0A006940690121DFF8202A86
S1135B10526991400843DFF8181A09694861DFF8AF
S1135B20100A806940690121DFF8042AD269914092
S1135B300843DFF8FC1989694861DFF8F409006853
S1135B4040690121DFF8E829526891400843DFF8F1
S1135B50E01909684861DFF8D809806840690121C3
S1135B60DFF8CC29D26891400843DFF8C41989686A
S1135B704861DFF8C409806840690121DFF8B82969
S1135B80D26891400843DFF8B01989684861DFF8AA
S1135B90A009006900680121DFF894295269914045
S1135BA00843DFF88C1909690860DFF88409806903
S1135BB000680121DFF87829D26991400843DFF8B1
S1135BC0701989690860DFF86809006800680121B4
S1135BD0DFF85C29526891408843DFF8541909685A
S1135BE00860DFF84C09006A00680121DFF84029E9
S1135BF0526A91400843DFF83819096A0860DFF8EF
S1135C003009806800680121DFF82429D2689140B6
S1135C100843DFF81C1989680860DFF81C098068EC
S1135C2000680121DFF81029D26891400843DFF8A9
S1135C30081989680860002000E0401C80B2B0F5B3
S1135C407A7FFADBDFF8E808006800680121DFF8F2
S1135C50E028526891400843DFF8D41809680860C6
S1135C6000F003F800F019F901BD38B5DFF8C008F9
S1135C70806800680121DFF8B828D2689140884321
S1135C80DFF8AC18896808600022AD21DFF8A008AD
S1135C9000F0DEF900228E21DFF8940800F0D8F934
S1135CA00022AE21DFF8880800F0D2F90022812119
S1135CB0DFF87C0800F0CCF90022FF21DFF870083F
S1135CC000F0C6F900228221DFF8640800F0C0F970
S1135CD00022FF21DFF8580800F0BAF900228321DE
S1135CE0DFF84C0800F0B4F90022FF21DFF8400887
S1135CF000F0AEF900228721DFF8340800F0A8F99B
S1135D0000220621DFF8280800F0A2F900228A21E7
S1135D10DFF81C0800F09CF90022FF21DFF81008CE
S1135D2000F096F900228B21DFF8040800F090F9C6
S1135D300022FF21DFF8F80700F08AF900228C2105
S1135D40DFF8EC0700F084F90022FF21DFF8E00718
S1135D5000F07EF90022A121DFF8D40700F078F9E1
S1135D6000220021DFF8C80700F072F90022A22106
S1135D70DFF8BC0700F06CF900220021DFF8B0075F
S1135D8000F066F90022A821DFF8A40700F060F90A
S1135D9000223F21DFF8980700F05AF90022A021E1
S1135DA0DFF88C0700F054F900226221DFF8800745
S1135DB000F04EF90022B921DFF8740700F048F929
S1135DC00022B121DFF8680700F042F90022FF2128
S1135DD0DFF85C0700F03CF90022B321DFF850073C
S1135DE000F036F90022F021DFF8440700F030F922
S1135DF00022BB21DFF8380700F02AF900223E21F7
S1135E00DFF82C0700F024F90022BE21DFF8200778
S1135E1000F01EF900223E21DFF8140700F018F903
S1135E200022A421DFF8080700F012F900222E2135
S1135E30DFF8FC0600F00CF90022AF21DFF8F006D1
S1135E4000F006F9002414E000208DF80200002080
S1135E508DF8010000208DF8000000AA2900C9B2C5
S1135E602000C0B200F047F96D1CEDB2402DEBDB11
S1135E70641CE4B2602C01DA0025F6E7DFF8B00612
S1135E80806800680121DFF8A826D26891400843A1
S1135E90DFF89C168968086031BD80B5DFF8980684
S1135EA0806800680121DFF89026D2689140884319
S1135EB0DFF88416896808600022AE21DFF87806CE
S1135EC000F0C6F800220021DFF86C0600F0C0F8EC
S1135ED000221021DFF8600600F0BAF80022402109
S1135EE0DFF8540600F0B4F800228121DFF84806F8
S1135EF000F0AEF80022CF21DFF83C0600F0A8F84D
S1135F000022A121DFF8300600F0A2F80022C82107
S1135F10DFF8240600F09CF80022A621DFF818061A
S1135F2000F096F80022A821DFF80C0600F090F8A3
S1135F3000223F21DFF8000600F08AF80022D32176
S1135F40DFF8F40500F084F800220021DFF8E8050A
S1135F5000F07EF80022D521DFF8DC0500F078F8A7
S1135F6000228021DFF8D00500F072F80022D92148
S1135F70DFF8C40500F06CF80022F121DFF8B80561
S1135F8000F066F80022DA21DFF8AC0500F060F8D2
S1135F9000221221DFF8A00500F05AF80022DB21CC
S1135FA0DFF8940500F054F800224021DFF888055A
S1135FB000F04EF800222021DFF87C0500F048F8BC
S1135FC000220221DFF8700500F042F800228D2142
S1135FD0DFF8640500F03CF800221421DFF85805CE
S1135FE000F036F80022A421DFF84C0500F030F868
S1135FF00022A621DFF8400500F02AF80022AF2194
S1136000DFF8340500F024F8002000F0F8F800224E
S1136010B021DFF8240500F01BF800221021DFF87E
S1136020180500F015F800220021DFF80C0500F037
S11360300FF8DFF80405806800680121DFF8F82410
S1136040D26891400843DFF8F0148968086001BD04
S113605030B58BB003000C00150000A819002822ED
S113606000F0B2FF0820EDB2002D08D008990968AD
S11360700122099B9A401143089A116007E008998C
S113608009680122099B9A409143089A1160049976
S113609009680122059B9A409143049A116018E013
